{
  "_format": "hh-sol-artifact-1",
  "contractName": "Exchange",
  "sourceName": "contracts/Exchange.sol",
  "abi": [
    {
      "anonymous": false,
      "inputs": [
        {
          "indexed": false,
          "internalType": "uint80",
          "name": "roundid",
          "type": "uint80"
        },
        {
          "indexed": false,
          "internalType": "int256",
          "name": "price",
          "type": "int256"
        },
        {
          "indexed": false,
          "internalType": "bool",
          "name": "outcome",
          "type": "bool"
        }
      ],
      "name": "CoinFlipped",
      "type": "event"
    },
    {
      "anonymous": false,
      "inputs": [
        {
          "indexed": false,
          "internalType": "contract IPortfolio",
          "name": "_oldPortfolio",
          "type": "address"
        },
        {
          "indexed": false,
          "internalType": "contract IPortfolio",
          "name": "_newPortfolio",
          "type": "address"
        }
      ],
      "name": "PortfolioSet",
      "type": "event"
    },
    {
      "anonymous": false,
      "inputs": [
        {
          "indexed": true,
          "internalType": "bytes32",
          "name": "role",
          "type": "bytes32"
        },
        {
          "indexed": true,
          "internalType": "bytes32",
          "name": "previousAdminRole",
          "type": "bytes32"
        },
        {
          "indexed": true,
          "internalType": "bytes32",
          "name": "newAdminRole",
          "type": "bytes32"
        }
      ],
      "name": "RoleAdminChanged",
      "type": "event"
    },
    {
      "anonymous": false,
      "inputs": [
        {
          "indexed": true,
          "internalType": "bytes32",
          "name": "role",
          "type": "bytes32"
        },
        {
          "indexed": true,
          "internalType": "address",
          "name": "account",
          "type": "address"
        },
        {
          "indexed": true,
          "internalType": "address",
          "name": "sender",
          "type": "address"
        }
      ],
      "name": "RoleGranted",
      "type": "event"
    },
    {
      "anonymous": false,
      "inputs": [
        {
          "indexed": true,
          "internalType": "bytes32",
          "name": "role",
          "type": "bytes32"
        },
        {
          "indexed": true,
          "internalType": "address",
          "name": "account",
          "type": "address"
        },
        {
          "indexed": true,
          "internalType": "address",
          "name": "sender",
          "type": "address"
        }
      ],
      "name": "RoleRevoked",
      "type": "event"
    },
    {
      "anonymous": false,
      "inputs": [
        {
          "indexed": false,
          "internalType": "contract ITradePairs",
          "name": "_oldTradePairs",
          "type": "address"
        },
        {
          "indexed": false,
          "internalType": "contract ITradePairs",
          "name": "_newTradePairs",
          "type": "address"
        }
      ],
      "name": "TradePairsSet",
      "type": "event"
    },
    {
      "stateMutability": "nonpayable",
      "type": "fallback"
    },
    {
      "inputs": [],
      "name": "AUCTION_ADMIN_ROLE",
      "outputs": [
        {
          "internalType": "bytes32",
          "name": "",
          "type": "bytes32"
        }
      ],
      "stateMutability": "view",
      "type": "function"
    },
    {
      "inputs": [],
      "name": "DEFAULT_ADMIN_ROLE",
      "outputs": [
        {
          "internalType": "bytes32",
          "name": "",
          "type": "bytes32"
        }
      ],
      "stateMutability": "view",
      "type": "function"
    },
    {
      "inputs": [],
      "name": "VERSION",
      "outputs": [
        {
          "internalType": "bytes32",
          "name": "",
          "type": "bytes32"
        }
      ],
      "stateMutability": "view",
      "type": "function"
    },
    {
      "inputs": [
        {
          "internalType": "address",
          "name": "_address",
          "type": "address"
        }
      ],
      "name": "addAdmin",
      "outputs": [],
      "stateMutability": "nonpayable",
      "type": "function"
    },
    {
      "inputs": [
        {
          "internalType": "address",
          "name": "_address",
          "type": "address"
        }
      ],
      "name": "addAuctionAdmin",
      "outputs": [],
      "stateMutability": "nonpayable",
      "type": "function"
    },
    {
      "inputs": [
        {
          "internalType": "bytes32",
          "name": "_tradePairId",
          "type": "bytes32"
        },
        {
          "internalType": "enum ITradePairs.Type1",
          "name": "_type",
          "type": "uint8"
        }
      ],
      "name": "addOrderType",
      "outputs": [],
      "stateMutability": "nonpayable",
      "type": "function"
    },
    {
      "inputs": [
        {
          "internalType": "bytes32",
          "name": "_symbol",
          "type": "bytes32"
        },
        {
          "internalType": "contract IERC20Upgradeable",
          "name": "_token",
          "type": "address"
        },
        {
          "internalType": "enum ITradePairs.AuctionMode",
          "name": "_mode",
          "type": "uint8"
        }
      ],
      "name": "addToken",
      "outputs": [],
      "stateMutability": "nonpayable",
      "type": "function"
    },
    {
      "inputs": [
        {
          "internalType": "bytes32",
          "name": "_tradePairId",
          "type": "bytes32"
        },
        {
          "internalType": "address",
          "name": "_baseAssetAddr",
          "type": "address"
        },
        {
          "internalType": "uint8",
          "name": "_baseDisplayDecimals",
          "type": "uint8"
        },
        {
          "internalType": "address",
          "name": "_quoteAssetAddr",
          "type": "address"
        },
        {
          "internalType": "uint8",
          "name": "_quoteDisplayDecimals",
          "type": "uint8"
        },
        {
          "internalType": "uint256",
          "name": "_minTradeAmount",
          "type": "uint256"
        },
        {
          "internalType": "uint256",
          "name": "_maxTradeAmount",
          "type": "uint256"
        },
        {
          "internalType": "enum ITradePairs.AuctionMode",
          "name": "_mode",
          "type": "uint8"
        }
      ],
      "name": "addTradePair",
      "outputs": [],
      "stateMutability": "nonpayable",
      "type": "function"
    },
    {
      "inputs": [
        {
          "internalType": "bytes32",
          "name": "_bytes32",
          "type": "bytes32"
        }
      ],
      "name": "bytes32ToString",
      "outputs": [
        {
          "internalType": "string",
          "name": "",
          "type": "string"
        }
      ],
      "stateMutability": "pure",
      "type": "function"
    },
    {
      "inputs": [],
      "name": "flipCoin",
      "outputs": [],
      "stateMutability": "nonpayable",
      "type": "function"
    },
    {
      "inputs": [
        {
          "internalType": "bytes32",
          "name": "_tradePairId",
          "type": "bytes32"
        }
      ],
      "name": "getAllowedSlippagePercent",
      "outputs": [
        {
          "internalType": "uint8",
          "name": "",
          "type": "uint8"
        }
      ],
      "stateMutability": "view",
      "type": "function"
    },
    {
      "inputs": [
        {
          "internalType": "bytes32",
          "name": "_tradePairId",
          "type": "bytes32"
        }
      ],
      "name": "getAuctionData",
      "outputs": [
        {
          "internalType": "uint8",
          "name": "mode",
          "type": "uint8"
        },
        {
          "internalType": "uint256",
          "name": "price",
          "type": "uint256"
        },
        {
          "internalType": "uint256",
          "name": "percent",
          "type": "uint256"
        },
        {
          "internalType": "uint256",
          "name": "lower",
          "type": "uint256"
        },
        {
          "internalType": "uint256",
          "name": "upper",
          "type": "uint256"
        }
      ],
      "stateMutability": "view",
      "type": "function"
    },
    {
      "inputs": [
        {
          "internalType": "bytes32",
          "name": "_tradePairId",
          "type": "bytes32"
        },
        {
          "internalType": "bool",
          "name": "_isBase",
          "type": "bool"
        }
      ],
      "name": "getDecimals",
      "outputs": [
        {
          "internalType": "uint8",
          "name": "",
          "type": "uint8"
        }
      ],
      "stateMutability": "view",
      "type": "function"
    },
    {
      "inputs": [
        {
          "internalType": "bytes32",
          "name": "_tradePairId",
          "type": "bytes32"
        },
        {
          "internalType": "bool",
          "name": "_isBase",
          "type": "bool"
        }
      ],
      "name": "getDisplayDecimals",
      "outputs": [
        {
          "internalType": "uint8",
          "name": "",
          "type": "uint8"
        }
      ],
      "stateMutability": "view",
      "type": "function"
    },
    {
      "inputs": [
        {
          "internalType": "bytes32",
          "name": "_tradePairId",
          "type": "bytes32"
        }
      ],
      "name": "getMakerRate",
      "outputs": [
        {
          "internalType": "uint256",
          "name": "",
          "type": "uint256"
        }
      ],
      "stateMutability": "view",
      "type": "function"
    },
    {
      "inputs": [
        {
          "internalType": "bytes32",
          "name": "_tradePairId",
          "type": "bytes32"
        }
      ],
      "name": "getMaxTradeAmount",
      "outputs": [
        {
          "internalType": "uint256",
          "name": "",
          "type": "uint256"
        }
      ],
      "stateMutability": "view",
      "type": "function"
    },
    {
      "inputs": [
        {
          "internalType": "bytes32",
          "name": "_tradePairId",
          "type": "bytes32"
        }
      ],
      "name": "getMinTradeAmount",
      "outputs": [
        {
          "internalType": "uint256",
          "name": "",
          "type": "uint256"
        }
      ],
      "stateMutability": "view",
      "type": "function"
    },
    {
      "inputs": [],
      "name": "getPortfolio",
      "outputs": [
        {
          "internalType": "contract IPortfolio",
          "name": "",
          "type": "address"
        }
      ],
      "stateMutability": "view",
      "type": "function"
    },
    {
      "inputs": [],
      "name": "getPriceFeed",
      "outputs": [
        {
          "internalType": "contract AggregatorV3Interface",
          "name": "",
          "type": "address"
        }
      ],
      "stateMutability": "view",
      "type": "function"
    },
    {
      "inputs": [
        {
          "internalType": "bytes32",
          "name": "role",
          "type": "bytes32"
        }
      ],
      "name": "getRoleAdmin",
      "outputs": [
        {
          "internalType": "bytes32",
          "name": "",
          "type": "bytes32"
        }
      ],
      "stateMutability": "view",
      "type": "function"
    },
    {
      "inputs": [
        {
          "internalType": "bytes32",
          "name": "role",
          "type": "bytes32"
        },
        {
          "internalType": "uint256",
          "name": "index",
          "type": "uint256"
        }
      ],
      "name": "getRoleMember",
      "outputs": [
        {
          "internalType": "address",
          "name": "",
          "type": "address"
        }
      ],
      "stateMutability": "view",
      "type": "function"
    },
    {
      "inputs": [
        {
          "internalType": "bytes32",
          "name": "role",
          "type": "bytes32"
        }
      ],
      "name": "getRoleMemberCount",
      "outputs": [
        {
          "internalType": "uint256",
          "name": "",
          "type": "uint256"
        }
      ],
      "stateMutability": "view",
      "type": "function"
    },
    {
      "inputs": [
        {
          "internalType": "bytes32",
          "name": "_tradePairId",
          "type": "bytes32"
        },
        {
          "internalType": "bool",
          "name": "_isBase",
          "type": "bool"
        }
      ],
      "name": "getSymbol",
      "outputs": [
        {
          "internalType": "bytes32",
          "name": "",
          "type": "bytes32"
        }
      ],
      "stateMutability": "view",
      "type": "function"
    },
    {
      "inputs": [
        {
          "internalType": "bytes32",
          "name": "_tradePairId",
          "type": "bytes32"
        }
      ],
      "name": "getTakerRate",
      "outputs": [
        {
          "internalType": "uint256",
          "name": "",
          "type": "uint256"
        }
      ],
      "stateMutability": "view",
      "type": "function"
    },
    {
      "inputs": [],
      "name": "getTradePairs",
      "outputs": [
        {
          "internalType": "bytes32[]",
          "name": "",
          "type": "bytes32[]"
        }
      ],
      "stateMutability": "view",
      "type": "function"
    },
    {
      "inputs": [],
      "name": "getTradePairsAddr",
      "outputs": [
        {
          "internalType": "contract ITradePairs",
          "name": "",
          "type": "address"
        }
      ],
      "stateMutability": "view",
      "type": "function"
    },
    {
      "inputs": [
        {
          "internalType": "bytes32",
          "name": "role",
          "type": "bytes32"
        },
        {
          "internalType": "address",
          "name": "account",
          "type": "address"
        }
      ],
      "name": "grantRole",
      "outputs": [],
      "stateMutability": "nonpayable",
      "type": "function"
    },
    {
      "inputs": [
        {
          "internalType": "bytes32",
          "name": "role",
          "type": "bytes32"
        },
        {
          "internalType": "address",
          "name": "account",
          "type": "address"
        }
      ],
      "name": "hasRole",
      "outputs": [
        {
          "internalType": "bool",
          "name": "",
          "type": "bool"
        }
      ],
      "stateMutability": "view",
      "type": "function"
    },
    {
      "inputs": [],
      "name": "initialize",
      "outputs": [],
      "stateMutability": "nonpayable",
      "type": "function"
    },
    {
      "inputs": [
        {
          "internalType": "address",
          "name": "_address",
          "type": "address"
        }
      ],
      "name": "isAdmin",
      "outputs": [
        {
          "internalType": "bool",
          "name": "",
          "type": "bool"
        }
      ],
      "stateMutability": "view",
      "type": "function"
    },
    {
      "inputs": [
        {
          "internalType": "address",
          "name": "_address",
          "type": "address"
        }
      ],
      "name": "isAuctionAdmin",
      "outputs": [
        {
          "internalType": "bool",
          "name": "",
          "type": "bool"
        }
      ],
      "stateMutability": "view",
      "type": "function"
    },
    {
      "inputs": [],
      "name": "isHead",
      "outputs": [
        {
          "internalType": "uint80",
          "name": "r",
          "type": "uint80"
        },
        {
          "internalType": "int256",
          "name": "p",
          "type": "int256"
        },
        {
          "internalType": "bool",
          "name": "o",
          "type": "bool"
        }
      ],
      "stateMutability": "view",
      "type": "function"
    },
    {
      "inputs": [
        {
          "internalType": "bytes32",
          "name": "_tradePairId",
          "type": "bytes32"
        },
        {
          "internalType": "uint8",
          "name": "maxCount",
          "type": "uint8"
        }
      ],
      "name": "matchAuctionOrders",
      "outputs": [],
      "stateMutability": "nonpayable",
      "type": "function"
    },
    {
      "inputs": [],
      "name": "owner",
      "outputs": [
        {
          "internalType": "address",
          "name": "",
          "type": "address"
        }
      ],
      "stateMutability": "view",
      "type": "function"
    },
    {
      "inputs": [
        {
          "internalType": "bytes32",
          "name": "_tradePairId",
          "type": "bytes32"
        },
        {
          "internalType": "bool",
          "name": "_addOrderPaused",
          "type": "bool"
        }
      ],
      "name": "pauseAddOrder",
      "outputs": [],
      "stateMutability": "nonpayable",
      "type": "function"
    },
    {
      "inputs": [
        {
          "internalType": "bool",
          "name": "_paused",
          "type": "bool"
        }
      ],
      "name": "pauseDeposit",
      "outputs": [],
      "stateMutability": "nonpayable",
      "type": "function"
    },
    {
      "inputs": [
        {
          "internalType": "bool",
          "name": "_paused",
          "type": "bool"
        }
      ],
      "name": "pauseForUpgrade",
      "outputs": [],
      "stateMutability": "nonpayable",
      "type": "function"
    },
    {
      "inputs": [
        {
          "internalType": "bool",
          "name": "_paused",
          "type": "bool"
        }
      ],
      "name": "pausePortfolio",
      "outputs": [],
      "stateMutability": "nonpayable",
      "type": "function"
    },
    {
      "inputs": [
        {
          "internalType": "bytes32",
          "name": "_tradePairId",
          "type": "bytes32"
        },
        {
          "internalType": "bool",
          "name": "_tradePairPaused",
          "type": "bool"
        }
      ],
      "name": "pauseTradePair",
      "outputs": [],
      "stateMutability": "nonpayable",
      "type": "function"
    },
    {
      "inputs": [
        {
          "internalType": "bool",
          "name": "_tradingPaused",
          "type": "bool"
        }
      ],
      "name": "pauseTrading",
      "outputs": [],
      "stateMutability": "nonpayable",
      "type": "function"
    },
    {
      "inputs": [
        {
          "internalType": "address",
          "name": "_address",
          "type": "address"
        }
      ],
      "name": "removeAdmin",
      "outputs": [],
      "stateMutability": "nonpayable",
      "type": "function"
    },
    {
      "inputs": [
        {
          "internalType": "address",
          "name": "_address",
          "type": "address"
        }
      ],
      "name": "removeAuctionAdmin",
      "outputs": [],
      "stateMutability": "nonpayable",
      "type": "function"
    },
    {
      "inputs": [
        {
          "internalType": "bytes32",
          "name": "_tradePairId",
          "type": "bytes32"
        },
        {
          "internalType": "enum ITradePairs.Type1",
          "name": "_type",
          "type": "uint8"
        }
      ],
      "name": "removeOrderType",
      "outputs": [],
      "stateMutability": "nonpayable",
      "type": "function"
    },
    {
      "inputs": [
        {
          "internalType": "bytes32",
          "name": "role",
          "type": "bytes32"
        },
        {
          "internalType": "address",
          "name": "account",
          "type": "address"
        }
      ],
      "name": "renounceRole",
      "outputs": [],
      "stateMutability": "nonpayable",
      "type": "function"
    },
    {
      "inputs": [
        {
          "internalType": "bytes32",
          "name": "role",
          "type": "bytes32"
        },
        {
          "internalType": "address",
          "name": "account",
          "type": "address"
        }
      ],
      "name": "revokeRole",
      "outputs": [],
      "stateMutability": "nonpayable",
      "type": "function"
    },
    {
      "inputs": [
        {
          "internalType": "bytes32",
          "name": "_tradePairId",
          "type": "bytes32"
        },
        {
          "internalType": "uint8",
          "name": "_allowedSlippagePercent",
          "type": "uint8"
        }
      ],
      "name": "setAllowedSlippagePercent",
      "outputs": [],
      "stateMutability": "nonpayable",
      "type": "function"
    },
    {
      "inputs": [
        {
          "internalType": "bytes32",
          "name": "_tradePairId",
          "type": "bytes32"
        },
        {
          "internalType": "enum ITradePairs.AuctionMode",
          "name": "_mode",
          "type": "uint8"
        }
      ],
      "name": "setAuctionMode",
      "outputs": [],
      "stateMutability": "nonpayable",
      "type": "function"
    },
    {
      "inputs": [
        {
          "internalType": "bytes32",
          "name": "_tradePairId",
          "type": "bytes32"
        },
        {
          "internalType": "uint256",
          "name": "_price",
          "type": "uint256"
        },
        {
          "internalType": "uint256",
          "name": "_pct",
          "type": "uint256"
        }
      ],
      "name": "setAuctionPrice",
      "outputs": [],
      "stateMutability": "nonpayable",
      "type": "function"
    },
    {
      "inputs": [
        {
          "internalType": "bytes32",
          "name": "_tradePairId",
          "type": "bytes32"
        },
        {
          "internalType": "uint8",
          "name": "_displayDecimals",
          "type": "uint8"
        },
        {
          "internalType": "bool",
          "name": "_isBase",
          "type": "bool"
        }
      ],
      "name": "setDisplayDecimals",
      "outputs": [],
      "stateMutability": "nonpayable",
      "type": "function"
    },
    {
      "inputs": [
        {
          "internalType": "bytes32",
          "name": "_tradePairId",
          "type": "bytes32"
        },
        {
          "internalType": "uint256",
          "name": "_maxTradeAmount",
          "type": "uint256"
        }
      ],
      "name": "setMaxTradeAmount",
      "outputs": [],
      "stateMutability": "nonpayable",
      "type": "function"
    },
    {
      "inputs": [
        {
          "internalType": "bytes32",
          "name": "_tradePairId",
          "type": "bytes32"
        },
        {
          "internalType": "uint256",
          "name": "_minTradeAmount",
          "type": "uint256"
        }
      ],
      "name": "setMinTradeAmount",
      "outputs": [],
      "stateMutability": "nonpayable",
      "type": "function"
    },
    {
      "inputs": [
        {
          "internalType": "contract IPortfolio",
          "name": "_portfolio",
          "type": "address"
        }
      ],
      "name": "setPortfolio",
      "outputs": [],
      "stateMutability": "nonpayable",
      "type": "function"
    },
    {
      "inputs": [
        {
          "internalType": "address",
          "name": "_address",
          "type": "address"
        }
      ],
      "name": "setPriceFeed",
      "outputs": [],
      "stateMutability": "nonpayable",
      "type": "function"
    },
    {
      "inputs": [
        {
          "internalType": "contract ITradePairs",
          "name": "_tradePairs",
          "type": "address"
        }
      ],
      "name": "setTradePairs",
      "outputs": [],
      "stateMutability": "nonpayable",
      "type": "function"
    },
    {
      "inputs": [
        {
          "internalType": "string",
          "name": "_string",
          "type": "string"
        }
      ],
      "name": "stringToBytes32",
      "outputs": [
        {
          "internalType": "bytes32",
          "name": "result",
          "type": "bytes32"
        }
      ],
      "stateMutability": "pure",
      "type": "function"
    },
    {
      "inputs": [
        {
          "internalType": "bytes4",
          "name": "interfaceId",
          "type": "bytes4"
        }
      ],
      "name": "supportsInterface",
      "outputs": [
        {
          "internalType": "bool",
          "name": "",
          "type": "bool"
        }
      ],
      "stateMutability": "view",
      "type": "function"
    },
    {
      "inputs": [
        {
          "internalType": "uint256",
          "name": "_makerRate",
          "type": "uint256"
        },
        {
          "internalType": "uint256",
          "name": "_takerRate",
          "type": "uint256"
        }
      ],
      "name": "updateAllRates",
      "outputs": [],
      "stateMutability": "nonpayable",
      "type": "function"
    },
    {
      "inputs": [
        {
          "internalType": "bytes32",
          "name": "_tradePair",
          "type": "bytes32"
        },
        {
          "internalType": "uint256",
          "name": "_rate",
          "type": "uint256"
        },
        {
          "internalType": "enum ITradePairs.RateType",
          "name": "_rateType",
          "type": "uint8"
        }
      ],
      "name": "updateRate",
      "outputs": [],
      "stateMutability": "nonpayable",
      "type": "function"
    },
    {
      "inputs": [
        {
          "internalType": "bytes32",
          "name": "_tradePair",
          "type": "bytes32"
        },
        {
          "internalType": "uint256",
          "name": "_makerRate",
          "type": "uint256"
        },
        {
          "internalType": "uint256",
          "name": "_takerRate",
          "type": "uint256"
        }
      ],
      "name": "updateRates",
      "outputs": [],
      "stateMutability": "nonpayable",
      "type": "function"
    },
    {
      "inputs": [
        {
          "internalType": "uint256",
          "name": "_rate",
          "type": "uint256"
        },
        {
          "internalType": "enum IPortfolio.Tx",
          "name": "_rateType",
          "type": "uint8"
        }
      ],
      "name": "updateTransferFeeRate",
      "outputs": [],
      "stateMutability": "nonpayable",
      "type": "function"
    }
  ],
  "bytecode": "0x608060405234801561001057600080fd5b506136ee806100206000396000f3fe608060405234801561001057600080fd5b50600436106103775760003560e01c806384261ef3116101d1578063ca15c87311610103578063e1f3e8f9116100a7578063eed6b3a311610079578063eed6b3a3146107f8578063f1f0a8331461080b578063fe9181521461084a578063ffa1ad741461085d57005b8063e1f3e8f9146107ac578063e7031981146107bf578063ed62b5aa146107d2578063ee6b4387146107e557005b8063d3d03458116100e0578063d3d0345814610762578063d547741f14610773578063d861336614610786578063e088aa4b1461079957005b8063ca15c87314610729578063cd9ff8461461073c578063cfb519281461074f57005b80639e87a5cd11610175578063b46fb3a711610147578063b46fb3a7146106dd578063b5949091146106f0578063bffc38ff14610703578063c461560b1461071657005b80639e87a5cd1461069e578063a217fddf146106af578063a9e34c27146106b7578063b29ce0ab146106ca57005b80639010d07c116101ae5780639010d07c1461064557806391d14854146106585780639201de551461066b5780639a08884a1461068b57005b806384261ef31461061757806386ce50bf1461062a5780638da5cb5b1461063d57005b8063415855d6116102aa5780636b97239e1161024e578063799ae22311610220578063799ae223146105e15780637eda3588146105e9578063800bbde1146105fc5780638129fc1c1461060f57005b80636b97239e1461059557806370480275146105a8578063724e78da146105bb5780637530c429146105ce57005b80635d51ffbf116102875780635d51ffbf14610528578063657cb55f1461053b57806367bd22f51461056d5780636b84b1731461058057005b8063415855d6146104dd57806342c8d1f0146104f05780635717f4751461051557005b806324d7806c1161031c578063365ec5e5116102ee578063365ec5e5146104915780633a98389a146104a45780633c4b0a6f146104b757806340a89382146104ca57005b806324d7806c146104455780632ac73988146104585780632f2ff15d1461046b57806336568abe1461047e57005b80631785f53c116103555780631785f53c146103c75780631bfa0ee3146103da5780631d643731146103ff578063248a9ca31461042257005b8063016a3a3e1461037957806301ffc9a71461038c578063044337ca146103b4575b005b610377610387366004612d90565b61086c565b61039f61039a3660046130e3565b61092e565b60405190151581526020015b60405180910390f35b6103776103c2366004612d90565b610959565b6103776103d5366004612d90565b610a05565b6103ed6103e8366004612e6e565b610aca565b60405160ff90911681526020016103ab565b61041460008051602061369983398151915281565b6040519081526020016103ab565b610414610430366004612e6e565b60009081526065602052604090206001015490565b61039f610453366004612d90565b610b47565b61037761046636600461308b565b610b53565b610377610479366004612e9e565b610c02565b61037761048c366004612e9e565b610c2d565b61037761049f366004612e54565b610cab565b6103776104b2366004612e54565b610d97565b6103776104c53660046130af565b610da9565b6103ed6104d8366004612f56565b610e61565b6103776104eb366004612e54565b610eee565b60c9546001600160a01b03165b6040516001600160a01b0390911681526020016103ab565b610377610523366004612fe0565b610f63565b610377610536366004613004565b610fd8565b610543611053565b6040805169ffffffffffffffffffff909416845260208401929092521515908201526060016103ab565b61037761057b366004612f56565b611182565b6105886112e2565b6040516103ab9190613333565b6104146105a3366004612f56565b611368565b6103776105b6366004612d90565b6113ed565b6103776105c9366004612d90565b61146d565b6103776105dc366004612e54565b6114df565b6103776115c8565b6103ed6105f7366004612f56565b611630565b61037761060a366004612fbe565b61166a565b6103776117cb565b610414610625366004612e6e565b6118bc565b610414610638366004612e6e565b61193a565b6104fd61196c565b6104fd610653366004613004565b611974565b61039f610666366004612e9e565b61198c565b61067e610679366004612e6e565b6119b7565b6040516103ab9190613465565b610377610699366004612fe0565b6119c2565b60cb546001600160a01b03166104fd565b610414600081565b6103776106c5366004613060565b611a37565b6103776106d8366004613060565b611ac6565b6104146106eb366004612e6e565b611ba5565b6103776106fe366004612f81565b611bd7565b610377610711366004612f56565b611c4e565b61037761072436600461308b565b611cca565b610414610737366004612e6e565b611d54565b61037761074a366004613004565b611d6b565b61041461075d36600461310b565b611de6565b60ca546001600160a01b03166104fd565b610377610781366004612e9e565b611df1565b61039f610794366004612d90565b611e17565b6103776107a7366004612fe0565b611e31565b6104146107ba366004612e6e565b611ea6565b6103776107cd366004612d90565b611ed8565b6103776107e0366004612d90565b611f84565b6103776107f3366004613004565b612011565b610377610806366004612ecd565b6121a9565b61081e610819366004612e6e565b61238a565b6040805160ff90961686526020860194909452928401919091526060830152608082015260a0016103ab565b610377610858366004613025565b612421565b61041464189719171b60d91b81565b61087760003361198c565b6108b45760405162461bcd60e51b8152602060048201526009602482015268452d4f4143432d323360b81b60448201526064015b60405180910390fd5b6108cc60008051602061369983398151915282611df1565b60ca5460405162b51d1f60e11b81526001600160a01b0383811660048301529091169063016a3a3e906024015b600060405180830381600087803b15801561091357600080fd5b505af1158015610927573d6000803e3d6000fd5b5050505050565b60006001600160e01b03198216635a05180f60e01b1480610953575061095382612498565b92915050565b61096460003361198c565b61099c5760405162461bcd60e51b8152602060048201526009602482015268452d4f4143432d303560b81b60448201526064016108ab565b60ca54604080516001600160a01b03928316815291831660208301527fc0413e08a383d262a3a6ef2e385daaf4b6b3a768bac5c2f575491635c99134a1910160405180910390a160ca80546001600160a01b0319166001600160a01b0392909216919091179055565b610a1060003361198c565b610a485760405162461bcd60e51b81526020600482015260096024820152682296a7a0a1a196981960b91b60448201526064016108ab565b6001610a546000611d54565b11610a8d5760405162461bcd60e51b8152602060048201526009602482015268452d414c4f412d303160b81b60448201526064016108ab565b610a98600082611df1565b60ca546040516305e17d4f60e21b81526001600160a01b03838116600483015290911690631785f53c906024016108f9565b60c954604051631bfa0ee360e01b8152600481018390526000916001600160a01b031690631bfa0ee39060240160206040518083038186803b158015610b0f57600080fd5b505afa158015610b23573d6000803e3d6000fd5b505050506040513d601f19601f820116820180604052508101906109539190613246565b6000610953818361198c565b610b5e60003361198c565b610b965760405162461bcd60e51b815260206004820152600960248201526808a5a9e8286865a62760bb1b60448201526064016108ab565b60c954604051630558e73160e31b81526004810184905260ff831660248201526001600160a01b0390911690632ac73988906044015b600060405180830381600087803b158015610be657600080fd5b505af1158015610bfa573d6000803e3d6000fd5b505050505050565b600082815260656020526040902060010154610c1e81336124cd565b610c288383612531565b505050565b6001600160a01b0381163314610c9d5760405162461bcd60e51b815260206004820152602f60248201527f416363657373436f6e74726f6c3a2063616e206f6e6c792072656e6f756e636560448201526e103937b632b9903337b91039b2b63360891b60648201526084016108ab565b610ca78282612553565b5050565b610cb660003361198c565b610cee5760405162461bcd60e51b81526020600482015260096024820152680452d4f4143432d31360bc1b60448201526064016108ab565b8015610d445760c960009054906101000a90046001600160a01b03166001600160a01b0316638456cb596040518163ffffffff1660e01b8152600401600060405180830381600087803b15801561091357600080fd5b60c960009054906101000a90046001600160a01b03166001600160a01b0316633f4ba83a6040518163ffffffff1660e01b8152600401600060405180830381600087803b15801561091357600080fd5b50565b610da0816114df565b610d9481610cab565b610db460003361198c565b610dec5760405162461bcd60e51b8152602060048201526009602482015268452d4f4143432d313760b81b60448201526064016108ab565b60c954604051633c4b0a6f60e01b81526004810185905260ff8416602482015282151560448201526001600160a01b0390911690633c4b0a6f906064015b600060405180830381600087803b158015610e4457600080fd5b505af1158015610e58573d6000803e3d6000fd5b50505050505050565b60c95460405163205449c160e11b81526004810184905282151560248201526000916001600160a01b0316906340a89382906044015b60206040518083038186803b158015610eaf57600080fd5b505afa158015610ec3573d6000803e3d6000fd5b505050506040513d601f19601f82011682018060405250810190610ee79190613246565b9392505050565b610ef960003361198c565b610f315760405162461bcd60e51b8152602060048201526009602482015268452d4f4143432d303960b81b60448201526064016108ab565b60ca546040516320ac2aeb60e11b815282151560048201526001600160a01b039091169063415855d6906024016108f9565b610f6e60003361198c565b610fa65760405162461bcd60e51b8152602060048201526009602482015268114b53d050d0cb4c4d60ba1b60448201526064016108ab565b60c954604051635717f47560e01b81526001600160a01b0390911690635717f47590610bcc908590859060040161341c565b610fe360003361198c565b61101b5760405162461bcd60e51b8152602060048201526009602482015268452d4f4143432d313560b81b60448201526064016108ab565b60c954604051635d51ffbf60e01b815260048101849052602481018390526001600160a01b0390911690635d51ffbf90604401610bcc565b60008060006110706000805160206136998339815191523361198c565b6110a85760405162461bcd60e51b815260206004820152600960248201526808a5a9e8286865a64760bb1b60448201526064016108ab565b60cb60009054906101000a90046001600160a01b03166001600160a01b031663feaf968c6040518163ffffffff1660e01b815260040160a06040518083038186803b1580156110f657600080fd5b505afa15801561110a573d6000803e3d6000fd5b505050506040513d601f19601f8201168201806040525081019061112e91906131f7565b5092955090935060009150620186a0905061114c620f4240856135eb565b6111569190613509565b90506000620f424061116b62989680866135eb565b6111759190613509565b9495939490911392915050565b60c95460405163f1f0a83360e01b8152600481018490526000916001600160a01b03169063f1f0a8339060240160a06040518083038186803b1580156111c757600080fd5b505afa1580156111db573d6000803e3d6000fd5b505050506040513d601f19601f820116820180604052508101906111ff9190613262565b5050505090508060ff16600014156112595761121c60003361198c565b6112545760405162461bcd60e51b8152602060048201526009602482015268452d4f4143432d313160b81b60448201526064016108ab565b6112a9565b6112716000805160206136998339815191523361198c565b6112a95760405162461bcd60e51b81526020600482015260096024820152682296a7a0a1a196991b60b91b60448201526064016108ab565b60c9546040516367bd22f560e01b81526004810185905283151560248201526001600160a01b03909116906367bd22f590604401610e2a565b60c95460408051636b84b17360e01b815290516060926001600160a01b031691636b84b173916004808301926000929190829003018186803b15801561132757600080fd5b505afa15801561133b573d6000803e3d6000fd5b505050506040513d6000823e601f3d908101601f191682016040526113639190810190612dac565b905090565b60c9546040516335cb91cf60e11b81526004810184905282151560248201526000916001600160a01b031690636b97239e9060440160206040518083038186803b1580156113b557600080fd5b505afa1580156113c9573d6000803e3d6000fd5b505050506040513d601f19601f82011682018060405250810190610ee79190612e86565b6113f860003361198c565b6114305760405162461bcd60e51b8152602060048201526009602482015268452d4f4143432d303160b81b60448201526064016108ab565b61143b600082610c02565b60ca54604051637048027560e01b81526001600160a01b038381166004830152909116906370480275906024016108f9565b6114856000805160206136998339815191523361198c565b6114bd5760405162461bcd60e51b8152602060048201526009602482015268114b53d050d0cb4c8d60ba1b60448201526064016108ab565b60cb80546001600160a01b0319166001600160a01b0392909216919091179055565b6114ea60003361198c565b6115225760405162461bcd60e51b815260206004820152600960248201526808a5a9e8286865a60760bb1b60448201526064016108ab565b80156115785760ca60009054906101000a90046001600160a01b03166001600160a01b0316638456cb596040518163ffffffff1660e01b8152600401600060405180830381600087803b15801561091357600080fd5b60ca60009054906101000a90046001600160a01b03166001600160a01b0316633f4ba83a6040518163ffffffff1660e01b8152600401600060405180830381600087803b15801561091357600080fd5b60008060006115d5611053565b6040805169ffffffffffffffffffff851681526020810184905282151581830152905193965091945092507f28be0db2a539d780ed0177f20030150faca56831f72a62f443b8d228de45a71d919081900360600190a1505050565b60c954604051630fdb46b160e31b81526004810184905282151560248201526000916001600160a01b031690637eda358890604401610e97565b6116826000805160206136998339815191523361198c565b6116ba5760405162461bcd60e51b8152602060048201526009602482015268452d4f4143432d323560b81b60448201526064016108ab565b60c95460405163800bbde160e01b81526001600160a01b039091169063800bbde1906116ec9085908590600401613408565b600060405180830381600087803b15801561170657600080fd5b505af115801561171a573d6000803e3d6000fd5b505060ca5460c9546040516335cb91cf60e11b815260048101879052600160248201526001600160a01b03928316945063800bbde19350911690636b97239e9060440160206040518083038186803b15801561177557600080fd5b505afa158015611789573d6000803e3d6000fd5b505050506040513d601f19601f820116820180604052508101906117ad9190612e86565b836040518363ffffffff1660e01b8152600401610bcc929190613408565b600054610100900460ff166117e65760005460ff16156117ea565b303b155b61184d5760405162461bcd60e51b815260206004820152602e60248201527f496e697469616c697a61626c653a20636f6e747261637420697320616c72656160448201526d191e481a5b9a5d1a585b1a5e995960921b60648201526084016108ab565b600054610100900460ff1615801561186f576000805461ffff19166101011790555b611877612575565b6118826000336125e2565b60cb80546001600160a01b031916735498bb86bc934c8d34fda08e81d444153d0d06ad1790558015610d94576000805461ff001916905550565b60c9546040516384261ef360e01b8152600481018390526000916001600160a01b0316906384261ef3906024015b60206040518083038186803b15801561190257600080fd5b505afa158015611916573d6000803e3d6000fd5b505050506040513d601f19601f820116820180604052508101906109539190612e86565b60c9546040516386ce50bf60e01b8152600481018390526000916001600160a01b0316906386ce50bf906024016118ea565b600061136381805b6000828152609760205260408120610ee790836125ec565b60009182526065602090815260408084206001600160a01b0393909316845291905290205460ff1690565b6060610953826125f8565b6119cd60003361198c565b611a055760405162461bcd60e51b8152602060048201526009602482015268452d4f4143432d313360b81b60448201526064016108ab565b60c954604051634d04442560e11b81526001600160a01b0390911690639a08884a90610bcc908590859060040161341c565b611a4f6000805160206136998339815191523361198c565b611a875760405162461bcd60e51b8152602060048201526009602482015268452d4f4143432d323760b81b60448201526064016108ab565b60c95460405163a9e34c2760e01b81526004810185905260248101849052604481018390526001600160a01b039091169063a9e34c2790606401610e2a565b611ad160003361198c565b611b095760405162461bcd60e51b81526020600482015260096024820152680452d4f4143432d32360bc1b60448201526064016108ab565b60c954604051637f48c0a960e11b81526001600160a01b039091169063fe91815290611b3e9086908690600090600401613439565b600060405180830381600087803b158015611b5857600080fd5b505af1158015611b6c573d6000803e3d6000fd5b505060c954604051637f48c0a960e11b81526001600160a01b03909116925063fe9181529150610e2a9086908590600190600401613439565b60c95460405163b46fb3a760e01b8152600481018390526000916001600160a01b03169063b46fb3a7906024016118ea565b611be260003361198c565b611c1a5760405162461bcd60e51b8152602060048201526009602482015268452d4f4143432d313960b81b60448201526064016108ab565b60ca5460405163b594909160e01b81526001600160a01b039091169063b594909190610e2a908690869086906004016133dd565b611c5960003361198c565b611c915760405162461bcd60e51b81526020600482015260096024820152682296a7a0a1a196989960b91b60448201526064016108ab565b60c95460405163bffc38ff60e01b81526004810184905282151560248201526001600160a01b039091169063bffc38ff90604401610bcc565b611ce26000805160206136998339815191523361198c565b611d1a5760405162461bcd60e51b8152602060048201526009602482015268452d4f4143432d323960b81b60448201526064016108ab565b60c95460405163c461560b60e01b81526004810184905260ff831660248201526001600160a01b039091169063c461560b90604401610bcc565b60008181526097602052604081206109539061276e565b611d7660003361198c565b611dae5760405162461bcd60e51b81526020600482015260096024820152682296a7a0a1a196989b60b91b60448201526064016108ab565b60c9546040516366cffc2360e11b815260048101849052602481018390526001600160a01b039091169063cd9ff84690604401610bcc565b600061095382612778565b600082815260656020526040902060010154611e0d81336124cd565b610c288383612553565b60006109536000805160206136998339815191528361198c565b611e3c60003361198c565b611e745760405162461bcd60e51b8152602060048201526009602482015268452d4f4143432d303360b81b60448201526064016108ab565b60ca5460405163e088aa4b60e01b81526001600160a01b039091169063e088aa4b90610bcc908590859060040161341c565b60c95460405163e1f3e8f960e01b8152600481018390526000916001600160a01b03169063e1f3e8f9906024016118ea565b611ee360003361198c565b611f1b5760405162461bcd60e51b81526020600482015260096024820152682296a7a0a1a196981b60b91b60448201526064016108ab565b60c954604080516001600160a01b03928316815291831660208301527fbbf74a5a199a5c0084f6133ca065dd9cb0ee77ee06a5e1ac2963a31de63303e8910160405180910390a160c980546001600160a01b0319166001600160a01b0392909216919091179055565b611f8f60003361198c565b611fc75760405162461bcd60e51b81526020600482015260096024820152682296a7a0a1a196991960b91b60448201526064016108ab565b611fdf60008051602061369983398151915282610c02565b60ca546040516376b15ad560e11b81526001600160a01b0383811660048301529091169063ed62b5aa906024016108f9565b61201c60003361198c565b6120545760405162461bcd60e51b8152602060048201526009602482015268452d4f4143432d323160b81b60448201526064016108ab565b600061205e6112e2565b905060005b81518110156121a35760c95482516001600160a01b039091169063fe918152908490849081106120a357634e487b7160e01b600052603260045260246000fd5b60200260200101518660006040518463ffffffff1660e01b81526004016120cc93929190613439565b600060405180830381600087803b1580156120e657600080fd5b505af11580156120fa573d6000803e3d6000fd5b505060c95484516001600160a01b03909116925063fe918152915084908490811061213557634e487b7160e01b600052603260045260246000fd5b60200260200101518560016040518463ffffffff1660e01b815260040161215e93929190613439565b600060405180830381600087803b15801561217857600080fd5b505af115801561218c573d6000803e3d6000fd5b50505050808061219b906135b0565b915050612063565b50505050565b6121b460003361198c565b6121ec5760405162461bcd60e51b8152602060048201526009602482015268452d4f4143432d303760b81b60448201526064016108ab565b6000806121f889612795565b9150915060008061220889612795565b9150915063082ac82b60e31b84146122815760ca5460405163b594909160e01b81526001600160a01b039091169063b59490919061224e9087908f908a906004016133dd565b600060405180830381600087803b15801561226857600080fd5b505af115801561227c573d6000803e3d6000fd5b505050505b63082ac82b60e31b82146122f75760ca5460405163b594909160e01b81526001600160a01b039091169063b5949091906122c49085908d906000906004016133dd565b600060405180830381600087803b1580156122de57600080fd5b505af11580156122f2573d6000803e3d6000fd5b505050505b60c960009054906101000a90046001600160a01b03166001600160a01b0316631009f7f98d86868e87878f8f8f8f6040518b63ffffffff1660e01b815260040161234a9a99989796959493929190613377565b600060405180830381600087803b15801561236457600080fd5b505af1158015612378573d6000803e3d6000fd5b50505050505050505050505050505050565b60c95460405163f1f0a83360e01b81526004810183905260009182918291829182916001600160a01b03169063f1f0a8339060240160a06040518083038186803b1580156123d757600080fd5b505afa1580156123eb573d6000803e3d6000fd5b505050506040513d601f19601f8201168201806040525081019061240f9190613262565b939a9299509097509550909350915050565b61242c60003361198c565b6124645760405162461bcd60e51b8152602060048201526009602482015268114b53d050d0cb4c0d60ba1b60448201526064016108ab565b60c954604051637f48c0a960e11b81526001600160a01b039091169063fe91815290610e2a90869086908690600401613439565b60006001600160e01b03198216637965db0b60e01b148061095357506301ffc9a760e01b6001600160e01b0319831614610953565b6124d7828261198c565b610ca7576124ef816001600160a01b031660146128b5565b6124fa8360206128b5565b60405160200161250b9291906132be565b60408051601f198184030181529082905262461bcd60e51b82526108ab91600401613465565b61253b8282612a97565b6000828152609760205260409020610c289082612b1d565b61255d8282612b32565b6000828152609760205260409020610c289082612b99565b600054610100900460ff166125e05760405162461bcd60e51b815260206004820152602b60248201527f496e697469616c697a61626c653a20636f6e7472616374206973206e6f74206960448201526a6e697469616c697a696e6760a81b60648201526084016108ab565b565b610ca78282612531565b6000610ee78383612bae565b606060005b60208160ff1610801561263f5750828160ff166020811061262e57634e487b7160e01b600052603260045260246000fd5b1a60f81b6001600160f81b03191615155b15612656578061264e816135cb565b9150506125fd565b60008160ff1667ffffffffffffffff81111561268257634e487b7160e01b600052604160045260246000fd5b6040519080825280601f01601f1916602001820160405280156126ac576020820181803683370190505b509050600091505b60208260ff161080156126f65750838260ff16602081106126e557634e487b7160e01b600052603260045260246000fd5b1a60f81b6001600160f81b03191615155b15610ee757838260ff166020811061271e57634e487b7160e01b600052603260045260246000fd5b1a60f81b818360ff168151811061274557634e487b7160e01b600052603260045260246000fd5b60200101906001600160f81b031916908160001a90535081612766816135cb565b9250506126b4565b6000610953825490565b8051600090829061278c5750600092915050565b50506020015190565b6000806001600160a01b0383166127b8575063082ac82b60e31b92601292509050565b600083905061283a816001600160a01b03166395d89b416040518163ffffffff1660e01b815260040160006040518083038186803b1580156127f957600080fd5b505afa15801561280d573d6000803e3d6000fd5b505050506040513d6000823e601f3d908101601f191682016040526128359190810190613184565b612778565b816001600160a01b031663313ce5676040518163ffffffff1660e01b815260040160206040518083038186803b15801561287357600080fd5b505afa158015612887573d6000803e3d6000fd5b505050506040513d601f19601f820116820180604052508101906128ab9190613246565b9250925050915091565b606060006128c4836002613537565b6128cf9060026134f1565b67ffffffffffffffff8111156128f557634e487b7160e01b600052604160045260246000fd5b6040519080825280601f01601f19166020018201604052801561291f576020820181803683370190505b509050600360fc1b8160008151811061294857634e487b7160e01b600052603260045260246000fd5b60200101906001600160f81b031916908160001a905350600f60fb1b8160018151811061298557634e487b7160e01b600052603260045260246000fd5b60200101906001600160f81b031916908160001a90535060006129a9846002613537565b6129b49060016134f1565b90505b6001811115612a48576f181899199a1a9b1b9c1cb0b131b232b360811b85600f16601081106129f657634e487b7160e01b600052603260045260246000fd5b1a60f81b828281518110612a1a57634e487b7160e01b600052603260045260246000fd5b60200101906001600160f81b031916908160001a90535060049490941c93612a4181613599565b90506129b7565b508315610ee75760405162461bcd60e51b815260206004820181905260248201527f537472696e67733a20686578206c656e67746820696e73756666696369656e7460448201526064016108ab565b612aa1828261198c565b610ca75760008281526065602090815260408083206001600160a01b03851684529091529020805460ff19166001179055612ad93390565b6001600160a01b0316816001600160a01b0316837f2f8788117e7eff1d82e926ec794901d17c78024a50270940304540a733656f0d60405160405180910390a45050565b6000610ee7836001600160a01b038416612be6565b612b3c828261198c565b15610ca75760008281526065602090815260408083206001600160a01b0385168085529252808320805460ff1916905551339285917ff6391f5c32d9c69d2a47ea670b442974b53935d1edc7fd64eb21e047a839171b9190a45050565b6000610ee7836001600160a01b038416612c35565b6000826000018281548110612bd357634e487b7160e01b600052603260045260246000fd5b9060005260206000200154905092915050565b6000818152600183016020526040812054612c2d57508154600181810184556000848152602080822090930184905584548482528286019093526040902091909155610953565b506000610953565b60008181526001830160205260408120548015612d48576000612c59600183613556565b8554909150600090612c6d90600190613556565b9050818114612cee576000866000018281548110612c9b57634e487b7160e01b600052603260045260246000fd5b9060005260206000200154905080876000018481548110612ccc57634e487b7160e01b600052603260045260246000fd5b6000918252602080832090910192909255918252600188019052604090208390555b8554869080612d0d57634e487b7160e01b600052603160045260246000fd5b600190038181906000526020600020016000905590558560010160008681526020019081526020016000206000905560019350505050610953565b6000915050610953565b80358015158114612d6257600080fd5b919050565b803560088110612d6257600080fd5b805169ffffffffffffffffffff81168114612d6257600080fd5b600060208284031215612da1578081fd5b8135610ee781613667565b60006020808385031215612dbe578182fd5b825167ffffffffffffffff80821115612dd5578384fd5b818501915085601f830112612de8578384fd5b815181811115612dfa57612dfa613641565b8060051b9150612e0b848301613498565b8181528481019084860184860187018a1015612e25578788fd5b8795505b83861015612e47578051835260019590950194918601918601612e29565b5098975050505050505050565b600060208284031215612e65578081fd5b610ee782612d52565b600060208284031215612e7f578081fd5b5035919050565b600060208284031215612e97578081fd5b5051919050565b60008060408385031215612eb0578081fd5b823591506020830135612ec281613667565b809150509250929050565b600080600080600080600080610100898b031215612ee9578384fd5b883597506020890135612efb81613667565b96506040890135612f0b81613689565b95506060890135612f1b81613667565b94506080890135612f2b81613689565b935060a0890135925060c08901359150612f4760e08a01612d67565b90509295985092959890939650565b60008060408385031215612f68578182fd5b82359150612f7860208401612d52565b90509250929050565b600080600060608486031215612f95578081fd5b833592506020840135612fa781613667565b9150612fb560408501612d67565b90509250925092565b60008060408385031215612fd0578182fd5b82359150612f7860208401612d67565b60008060408385031215612ff2578182fd5b823591506020830135612ec28161367c565b60008060408385031215613016578182fd5b50508035926020909101359150565b600080600060608486031215613039578081fd5b8335925060208401359150604084013560028110613055578182fd5b809150509250925092565b600080600060608486031215613074578081fd5b505081359360208301359350604090920135919050565b6000806040838503121561309d578182fd5b823591506020830135612ec281613689565b6000806000606084860312156130c3578081fd5b8335925060208401356130d581613689565b9150612fb560408501612d52565b6000602082840312156130f4578081fd5b81356001600160e01b031981168114610ee7578182fd5b60006020828403121561311c578081fd5b813567ffffffffffffffff811115613132578182fd5b8201601f81018413613142578182fd5b8035613155613150826134c9565b613498565b818152856020838501011115613169578384fd5b81602084016020830137908101602001929092525092915050565b600060208284031215613195578081fd5b815167ffffffffffffffff8111156131ab578182fd5b8201601f810184136131bb578182fd5b80516131c9613150826134c9565b8181528560208385010111156131dd578384fd5b6131ee82602083016020860161356d565b95945050505050565b600080600080600060a0868803121561320e578283fd5b61321786612d76565b945060208601519350604086015192506060860151915061323a60808701612d76565b90509295509295909350565b600060208284031215613257578081fd5b8151610ee781613689565b600080600080600060a08688031215613279578283fd5b855161328481613689565b602087015160408801516060890151608090990151929a91995097965090945092505050565b600881106132ba576132ba61362b565b9052565b7f416363657373436f6e74726f6c3a206163636f756e74200000000000000000008152600083516132f681601785016020880161356d565b7001034b99036b4b9b9b4b733903937b6329607d1b601791840191820152835161332781602884016020880161356d565b01602801949350505050565b6020808252825182820181905260009190848201906040850190845b8181101561336b5783518352928401929184019160010161334f565b50909695505050505050565b6000610140820190508b82528a602083015260ff8a16604083015260ff8916606083015287608083015260ff871660a083015260ff861660c08301528460e0830152836101008301526133ce6101208301846132aa565b9b9a5050505050505050505050565b8381526001600160a01b03831660208201526060810161340060408301846132aa565b949350505050565b82815260408101610ee760208301846132aa565b8281526040810161342c83613657565b8260208301529392505050565b8381526020810183905260608101600283106134575761345761362b565b826040830152949350505050565b602081526000825180602084015261348481604085016020870161356d565b601f01601f19169190910160400192915050565b604051601f8201601f1916810167ffffffffffffffff811182821017156134c1576134c1613641565b604052919050565b600067ffffffffffffffff8211156134e3576134e3613641565b50601f01601f191660200190565b60008219821115613504576135046135ff565b500190565b60008261351857613518613615565b600160ff1b821460001984141615613532576135326135ff565b500590565b6000816000190483118215151615613551576135516135ff565b500290565b600082821015613568576135686135ff565b500390565b60005b83811015613588578181015183820152602001613570565b838111156121a35750506000910152565b6000816135a8576135a86135ff565b506000190190565b60006000198214156135c4576135c46135ff565b5060010190565b600060ff821660ff8114156135e2576135e26135ff565b60010192915050565b6000826135fa576135fa613615565b500790565b634e487b7160e01b600052601160045260246000fd5b634e487b7160e01b600052601260045260246000fd5b634e487b7160e01b600052602160045260246000fd5b634e487b7160e01b600052604160045260246000fd5b60058110610d9457610d9461362b565b6001600160a01b0381168114610d9457600080fd5b60058110610d9457600080fd5b60ff81168114610d9457600080fdfea0cfda562e348e6dd163503c96e8678ef086abaf74d083a23226889f462cacaaa26469706673582212209f77c9f6ee3a220a786bd150c1881dfdccd4f26f5f2a8193ace839b30e633e0464736f6c63430008040033",
  "linkReferences": {},
  "deployedLinkReferences": {}
}