{
  "_format": "hh-sol-artifact-1",
  "contractName": "Airdrop",
  "sourceName": "contracts/token/Airdrop.sol",
  "abi": [
    {
      "inputs": [
        {
          "internalType": "contract IERC20",
          "name": "_token",
          "type": "address"
        },
        {
          "internalType": "bytes32",
          "name": "_root",
          "type": "bytes32"
        },
        {
          "internalType": "uint256",
          "name": "__start",
          "type": "uint256"
        },
        {
          "internalType": "uint256",
          "name": "__cliffDuration",
          "type": "uint256"
        },
        {
          "internalType": "uint256",
          "name": "__duration",
          "type": "uint256"
        },
        {
          "internalType": "uint256",
          "name": "__firstReleasePercentage",
          "type": "uint256"
        },
        {
          "internalType": "contract IPortfolio",
          "name": "__portfolio",
          "type": "address"
        }
      ],
      "stateMutability": "nonpayable",
      "type": "constructor"
    },
    {
      "anonymous": false,
      "inputs": [
        {
          "indexed": false,
          "internalType": "address",
          "name": "claimer",
          "type": "address"
        },
        {
          "indexed": false,
          "internalType": "uint256",
          "name": "amount",
          "type": "uint256"
        },
        {
          "indexed": false,
          "internalType": "uint256",
          "name": "timestamp",
          "type": "uint256"
        }
      ],
      "name": "Claimed",
      "type": "event"
    },
    {
      "anonymous": false,
      "inputs": [
        {
          "indexed": true,
          "internalType": "address",
          "name": "previousOwner",
          "type": "address"
        },
        {
          "indexed": true,
          "internalType": "address",
          "name": "newOwner",
          "type": "address"
        }
      ],
      "name": "OwnershipTransferred",
      "type": "event"
    },
    {
      "anonymous": false,
      "inputs": [
        {
          "indexed": false,
          "internalType": "address",
          "name": "account",
          "type": "address"
        }
      ],
      "name": "Paused",
      "type": "event"
    },
    {
      "anonymous": false,
      "inputs": [
        {
          "indexed": false,
          "internalType": "address",
          "name": "account",
          "type": "address"
        }
      ],
      "name": "Unpaused",
      "type": "event"
    },
    {
      "inputs": [],
      "name": "VERSION",
      "outputs": [
        {
          "internalType": "bytes32",
          "name": "",
          "type": "bytes32"
        }
      ],
      "stateMutability": "view",
      "type": "function"
    },
    {
      "inputs": [
        {
          "internalType": "uint256",
          "name": "index",
          "type": "uint256"
        },
        {
          "internalType": "uint256",
          "name": "amount",
          "type": "uint256"
        },
        {
          "internalType": "bytes32[]",
          "name": "merkleProof",
          "type": "bytes32[]"
        }
      ],
      "name": "claim",
      "outputs": [],
      "stateMutability": "nonpayable",
      "type": "function"
    },
    {
      "inputs": [
        {
          "internalType": "uint256",
          "name": "index",
          "type": "uint256"
        },
        {
          "internalType": "uint256",
          "name": "amount",
          "type": "uint256"
        },
        {
          "internalType": "bytes32[]",
          "name": "merkleProof",
          "type": "bytes32[]"
        }
      ],
      "name": "claimToPortfolio",
      "outputs": [],
      "stateMutability": "nonpayable",
      "type": "function"
    },
    {
      "inputs": [],
      "name": "cliff",
      "outputs": [
        {
          "internalType": "uint256",
          "name": "",
          "type": "uint256"
        }
      ],
      "stateMutability": "view",
      "type": "function"
    },
    {
      "inputs": [],
      "name": "duration",
      "outputs": [
        {
          "internalType": "uint256",
          "name": "",
          "type": "uint256"
        }
      ],
      "stateMutability": "view",
      "type": "function"
    },
    {
      "inputs": [],
      "name": "getPercentage",
      "outputs": [
        {
          "internalType": "uint256",
          "name": "",
          "type": "uint256"
        }
      ],
      "stateMutability": "view",
      "type": "function"
    },
    {
      "inputs": [],
      "name": "getPortfolio",
      "outputs": [
        {
          "internalType": "address",
          "name": "",
          "type": "address"
        }
      ],
      "stateMutability": "view",
      "type": "function"
    },
    {
      "inputs": [],
      "name": "owner",
      "outputs": [
        {
          "internalType": "address",
          "name": "",
          "type": "address"
        }
      ],
      "stateMutability": "view",
      "type": "function"
    },
    {
      "inputs": [],
      "name": "pause",
      "outputs": [],
      "stateMutability": "nonpayable",
      "type": "function"
    },
    {
      "inputs": [],
      "name": "paused",
      "outputs": [
        {
          "internalType": "bool",
          "name": "",
          "type": "bool"
        }
      ],
      "stateMutability": "view",
      "type": "function"
    },
    {
      "inputs": [
        {
          "internalType": "uint256",
          "name": "index",
          "type": "uint256"
        }
      ],
      "name": "released",
      "outputs": [
        {
          "internalType": "uint256",
          "name": "",
          "type": "uint256"
        }
      ],
      "stateMutability": "view",
      "type": "function"
    },
    {
      "inputs": [],
      "name": "renounceOwnership",
      "outputs": [],
      "stateMutability": "nonpayable",
      "type": "function"
    },
    {
      "inputs": [],
      "name": "retrieveFund",
      "outputs": [],
      "stateMutability": "nonpayable",
      "type": "function"
    },
    {
      "inputs": [],
      "name": "root",
      "outputs": [
        {
          "internalType": "bytes32",
          "name": "",
          "type": "bytes32"
        }
      ],
      "stateMutability": "view",
      "type": "function"
    },
    {
      "inputs": [
        {
          "internalType": "contract IPortfolio",
          "name": "portfolio",
          "type": "address"
        }
      ],
      "name": "setPortfolio",
      "outputs": [],
      "stateMutability": "nonpayable",
      "type": "function"
    },
    {
      "inputs": [],
      "name": "start",
      "outputs": [
        {
          "internalType": "uint256",
          "name": "",
          "type": "uint256"
        }
      ],
      "stateMutability": "view",
      "type": "function"
    },
    {
      "inputs": [],
      "name": "token",
      "outputs": [
        {
          "internalType": "contract IERC20",
          "name": "",
          "type": "address"
        }
      ],
      "stateMutability": "view",
      "type": "function"
    },
    {
      "inputs": [
        {
          "internalType": "address",
          "name": "newOwner",
          "type": "address"
        }
      ],
      "name": "transferOwnership",
      "outputs": [],
      "stateMutability": "nonpayable",
      "type": "function"
    },
    {
      "inputs": [],
      "name": "unpause",
      "outputs": [],
      "stateMutability": "nonpayable",
      "type": "function"
    }
  ],
  "bytecode": "0x60c06040523480156200001157600080fd5b506040516200194138038062001941833981016040819052620000349162000104565b6000805460ff191690556200004933620000ab565b600180556001600160601b0319606088901b1660805260a0869052600483905562000075848662000173565b6002556003949094556005555050600880546001600160a01b0319166001600160a01b0390921691909117905550620001b19050565b600080546001600160a01b03838116610100818102610100600160a81b0319851617855560405193049190911692909183917f8be0079c531659141344cd1fd0a4f28419497f9722a3daafe3b4186f6b6457e091a35050565b600080600080600080600060e0888a0312156200011f578283fd5b87516200012c8162000198565b809750506020880151955060408801519450606088015193506080880151925060a0880151915060c0880151620001638162000198565b8091505092959891949750929550565b600082198211156200019357634e487b7160e01b81526011600452602481fd5b500190565b6001600160a01b0381168114620001ae57600080fd5b50565b60805160601c60a051611728620002196000396000818161021e015281816105f301526109660152600081816102600152818161048f0152818161073c0152818161080201528181610aaf01528181610ada01528181610c3d0152610cce01526117286000f3fe608060405234801561001057600080fd5b50600436106101215760003560e01c8063a94d373b116100ad578063ebf0c71711610071578063ebf0c71714610219578063ee37811c14610240578063f2fde38b14610248578063fc0c546a1461025b578063ffa1ad741461028257600080fd5b8063a94d373b146101ba578063ae0b51df146101da578063be9a6555146101ed578063d3d03458146101f5578063e28ae8a31461020657600080fd5b80633f4ba83a116100f45780633f4ba83a146101625780635c975abb1461016a578063715018a6146101805780638456cb59146101885780638da5cb5b1461019057600080fd5b8063044337ca146101265780630b2accb21461013b5780630fb5a6b41461015257806313d033c01461015a575b600080fd5b610139610134366004611335565b610291565b005b6005545b6040519081526020015b60405180910390f35b60045461013f565b60025461013f565b610139610351565b60005460ff166040519015158152602001610149565b61013961038b565b6101396103c5565b60005461010090046001600160a01b03165b6040516001600160a01b039091168152602001610149565b61013f6101c836600461140f565b60009081526007602052604090205490565b6101396101e836600461143f565b6103fd565b60035461013f565b6008546001600160a01b03166101a2565b61013961021436600461143f565b610770565b61013f7f000000000000000000000000000000000000000000000000000000000000000081565b610139610bf5565b610139610256366004611335565b610cf8565b6101a27f000000000000000000000000000000000000000000000000000000000000000081565b61013f640312e312e360dc1b81565b6000546001600160a01b036101009091041633146102ca5760405162461bcd60e51b81526004016102c190611581565b60405180910390fd5b6001600160a01b03811661032f5760405162461bcd60e51b815260206004820152602660248201527f41697264726f703a20706f7274666f6c696f20697320746865207a65726f206160448201526564647265737360d01b60648201526084016102c1565b600880546001600160a01b0319166001600160a01b0392909216919091179055565b6000546001600160a01b036101009091041633146103815760405162461bcd60e51b81526004016102c190611581565b610389610d96565b565b6000546001600160a01b036101009091041633146103bb5760405162461bcd60e51b81526004016102c190611581565b6103896000610e29565b6000546001600160a01b036101009091041633146103f55760405162461bcd60e51b81526004016102c190611581565b610389610e82565b60005460ff16156104205760405162461bcd60e51b81526004016102c190611557565b600260015414156104735760405162461bcd60e51b815260206004820152601f60248201527f5265656e7472616e637947756172643a207265656e7472616e742063616c6c0060448201526064016102c1565b60026001556040516370a0823160e01b815230600482015283907f00000000000000000000000000000000000000000000000000000000000000006001600160a01b0316906370a082319060240160206040518083038186803b1580156104d957600080fd5b505afa1580156104ed573d6000803e3d6000fd5b505050506040513d601f19601f820116820180604052508101906105119190611427565b1161052e5760405162461bcd60e51b81526004016102c19061150c565b60035442116105745760405162461bcd60e51b815260206004820152601260248201527141697264726f703a20746f6f206561726c7960701b60448201526064016102c1565b60408051602081018690526bffffffffffffffffffffffff193360601b16918101919091526054810184905260009060740160405160208183030381529060405280519060200120905061061e8383808060200260200160405190810160405280939291908181526020018383602002808284376000920191909152507f00000000000000000000000000000000000000000000000000000000000000009250859150610eda9050565b61063a5760405162461bcd60e51b81526004016102c1906115b6565b600061064585610ef2565b3360009081526006602052604090205490915061066f573360009081526006602052604090208190555b600061067b8787610f0f565b9050600081116106cd5760405162461bcd60e51b815260206004820152601a60248201527f41697264726f703a206e6f20746f6b656e73206172652064756500000000000060448201526064016102c1565b600087815260076020526040812080548392906106eb9084906115f8565b90915550506040805133815260208101839052428183015290517f987d620f307ff6b94d58743cb7a7509f24071586a77759b77c2d4e29f75a2f9a9181900360600190a16107636001600160a01b037f0000000000000000000000000000000000000000000000000000000000000000163383610f44565b5050600180555050505050565b60005460ff16156107935760405162461bcd60e51b81526004016102c190611557565b600260015414156107e65760405162461bcd60e51b815260206004820152601f60248201527f5265656e7472616e637947756172643a207265656e7472616e742063616c6c0060448201526064016102c1565b60026001556040516370a0823160e01b815230600482015283907f00000000000000000000000000000000000000000000000000000000000000006001600160a01b0316906370a082319060240160206040518083038186803b15801561084c57600080fd5b505afa158015610860573d6000803e3d6000fd5b505050506040513d601f19601f820116820180604052508101906108849190611427565b116108a15760405162461bcd60e51b81526004016102c19061150c565b60035442116108e75760405162461bcd60e51b815260206004820152601260248201527141697264726f703a20746f6f206561726c7960701b60448201526064016102c1565b60408051602081018690526bffffffffffffffffffffffff193360601b1691810191909152605481018490526000906074016040516020818303038152906040528051906020012090506109918383808060200260200160405190810160405280939291908181526020018383602002808284376000920191909152507f00000000000000000000000000000000000000000000000000000000000000009250859150610eda9050565b6109ad5760405162461bcd60e51b81526004016102c1906115b6565b60006109b885610ef2565b336000908152600660205260409020549091506109e2573360009081526006602052604090208190555b60006109ee8787610f0f565b905060008111610a405760405162461bcd60e51b815260206004820152601a60248201527f41697264726f703a206e6f20746f6b656e73206172652064756500000000000060448201526064016102c1565b60008781526007602052604081208054839290610a5e9084906115f8565b90915550506040805133815260208101839052428183015290517f987d620f307ff6b94d58743cb7a7509f24071586a77759b77c2d4e29f75a2f9a9181900360600190a1610ad66001600160a01b037f0000000000000000000000000000000000000000000000000000000000000000163383610f44565b60007f00000000000000000000000000000000000000000000000000000000000000006001600160a01b03166395d89b416040518163ffffffff1660e01b815260040160006040518083038186803b158015610b3157600080fd5b505afa158015610b45573d6000803e3d6000fd5b505050506040513d6000823e601f3d908101601f19168201604052610b6d9190810190611371565b90506000610b7a82610f9b565b60085460405163565d3f5b60e01b815233600482015260248101839052604481018690529192506001600160a01b03169063565d3f5b90606401600060405180830381600087803b158015610bce57600080fd5b505af1158015610be2573d6000803e3d6000fd5b5050600180555050505050505050505050565b6000546001600160a01b03610100909104163314610c255760405162461bcd60e51b81526004016102c190611581565b6040516370a0823160e01b81523060048201526000907f00000000000000000000000000000000000000000000000000000000000000006001600160a01b0316906370a082319060240160206040518083038186803b158015610c8757600080fd5b505afa158015610c9b573d6000803e3d6000fd5b505050506040513d601f19601f82011682018060405250810190610cbf9190611427565b9050610cf56001600160a01b037f0000000000000000000000000000000000000000000000000000000000000000163383610f44565b50565b6000546001600160a01b03610100909104163314610d285760405162461bcd60e51b81526004016102c190611581565b6001600160a01b038116610d8d5760405162461bcd60e51b815260206004820152602660248201527f4f776e61626c653a206e6577206f776e657220697320746865207a65726f206160448201526564647265737360d01b60648201526084016102c1565b610cf581610e29565b60005460ff16610ddf5760405162461bcd60e51b815260206004820152601460248201527314185d5cd8589b194e881b9bdd081c185d5cd95960621b60448201526064016102c1565b6000805460ff191690557f5db9ee0a495bf2e6ff9c91a7834c1ba4fdd244a5e8aa4e537bd38aeae4b073aa335b6040516001600160a01b03909116815260200160405180910390a1565b600080546001600160a01b03838116610100818102610100600160a81b0319851617855560405193049190911692909183917f8be0079c531659141344cd1fd0a4f28419497f9722a3daafe3b4186f6b6457e091a35050565b60005460ff1615610ea55760405162461bcd60e51b81526004016102c190611557565b6000805460ff191660011790557f62e78cea01bee320cd4e420270b5ea74000d11b0c9f74754ebdbfc544b05a258610e0c3390565b600082610ee78584610fac565b1490505b9392505050565b600080606460055484610f059190611630565b610eeb9190611610565b600082815260076020526040812054610f2783610ef2565b610f308461102e565b610f3a91906115f8565b610eeb919061164f565b604080516001600160a01b038416602482015260448082018490528251808303909101815260649091019091526020810180516001600160e01b031663a9059cbb60e01b179052610f969084906110d5565b505050565b6000610fa6826111a7565b92915050565b600081815b8451811015611026576000858281518110610fdc57634e487b7160e01b600052603260045260246000fd5b602002602001015190508083116110025760008381526020829052604090209250611013565b600081815260208490526040902092505b508061101e81611696565b915050610fb1565b509392505050565b33600090815260066020526040812054819061104a908461164f565b905060025442101561105f5750600092915050565b60045460035461106f91906115f8565b421061107b5792915050565b60006002544261108b919061164f565b9050600060035460025461109f919061164f565b90506000816004546110b1919061164f565b90506000816110c08587611630565b6110ca9190611610565b979650505050505050565b600061112a826040518060400160405280602081526020017f5361666545524332303a206c6f772d6c6576656c2063616c6c206661696c6564815250856001600160a01b03166111c49092919063ffffffff16565b805190915015610f9657808060200190518101906111489190611351565b610f965760405162461bcd60e51b815260206004820152602a60248201527f5361666545524332303a204552433230206f7065726174696f6e20646964206e6044820152691bdd081cdd58d8d9595960b21b60648201526084016102c1565b805160009082906111bb5750600092915050565b50506020015190565b60606111d384846000856111db565b949350505050565b60608247101561123c5760405162461bcd60e51b815260206004820152602660248201527f416464726573733a20696e73756666696369656e742062616c616e636520666f6044820152651c8818d85b1b60d21b60648201526084016102c1565b6001600160a01b0385163b6112935760405162461bcd60e51b815260206004820152601d60248201527f416464726573733a2063616c6c20746f206e6f6e2d636f6e747261637400000060448201526064016102c1565b600080866001600160a01b031685876040516112af91906114bd565b60006040518083038185875af1925050503d80600081146112ec576040519150601f19603f3d011682016040523d82523d6000602084013e6112f1565b606091505b50915091506110ca8282866060831561130b575081610eeb565b82511561131b5782518084602001fd5b8160405162461bcd60e51b81526004016102c191906114d9565b600060208284031215611346578081fd5b8135610eeb816116dd565b600060208284031215611362578081fd5b81518015158114610eeb578182fd5b600060208284031215611382578081fd5b815167ffffffffffffffff80821115611399578283fd5b818401915084601f8301126113ac578283fd5b8151818111156113be576113be6116c7565b604051601f8201601f19908116603f011681019083821181831017156113e6576113e66116c7565b816040528281528760208487010111156113fe578586fd5b6110ca836020830160208801611666565b600060208284031215611420578081fd5b5035919050565b600060208284031215611438578081fd5b5051919050565b60008060008060608587031215611454578283fd5b8435935060208501359250604085013567ffffffffffffffff80821115611479578384fd5b818701915087601f83011261148c578384fd5b81358181111561149a578485fd5b8860208260051b85010111156114ae578485fd5b95989497505060200194505050565b600082516114cf818460208701611666565b9190910192915050565b60208152600082518060208401526114f8816040850160208701611666565b601f01601f19169190910160400192915050565b6020808252602b908201527f41697264726f703a20436f6e747261637420646f65736e74206861766520656e60408201526a6f75676820746f6b656e7360a81b606082015260800190565b60208082526010908201526f14185d5cd8589b194e881c185d5cd95960821b604082015260600190565b6020808252818101527f4f776e61626c653a2063616c6c6572206973206e6f7420746865206f776e6572604082015260600190565b60208082526022908201527f41697264726f703a204d65726b6c652050726f6f66206973206e6f742076616c6040820152611a5960f21b606082015260800190565b6000821982111561160b5761160b6116b1565b500190565b60008261162b57634e487b7160e01b81526012600452602481fd5b500490565b600081600019048311821515161561164a5761164a6116b1565b500290565b600082821015611661576116616116b1565b500390565b60005b83811015611681578181015183820152602001611669565b83811115611690576000848401525b50505050565b60006000198214156116aa576116aa6116b1565b5060010190565b634e487b7160e01b600052601160045260246000fd5b634e487b7160e01b600052604160045260246000fd5b6001600160a01b0381168114610cf557600080fdfea26469706673582212208b9a4a41e6a14853e050b45f97b3e0a4e54c46111eaa8b31e6621f394005b1ef64736f6c63430008040033",
  "linkReferences": {},
  "deployedLinkReferences": {}
}