{
  "_format": "hh-sol-artifact-1",
  "contractName": "TestRBTLibrary",
  "sourceName": "contracts/test/TestRBTLibrary.sol",
  "abi": [
    {
      "inputs": [],
      "stateMutability": "nonpayable",
      "type": "constructor"
    },
    {
      "anonymous": false,
      "inputs": [
        {
          "indexed": false,
          "internalType": "string",
          "name": "where",
          "type": "string"
        },
        {
          "indexed": false,
          "internalType": "uint256",
          "name": "key",
          "type": "uint256"
        },
        {
          "indexed": false,
          "internalType": "uint256",
          "name": "value",
          "type": "uint256"
        }
      ],
      "name": "Log",
      "type": "event"
    },
    {
      "inputs": [
        {
          "internalType": "uint256",
          "name": "key",
          "type": "uint256"
        }
      ],
      "name": "exists",
      "outputs": [
        {
          "internalType": "bool",
          "name": "_exists",
          "type": "bool"
        }
      ],
      "stateMutability": "view",
      "type": "function"
    },
    {
      "inputs": [],
      "name": "first",
      "outputs": [
        {
          "internalType": "uint256",
          "name": "_key",
          "type": "uint256"
        }
      ],
      "stateMutability": "view",
      "type": "function"
    },
    {
      "inputs": [],
      "name": "getEmpty",
      "outputs": [
        {
          "internalType": "uint256",
          "name": "",
          "type": "uint256"
        }
      ],
      "stateMutability": "pure",
      "type": "function"
    },
    {
      "inputs": [
        {
          "internalType": "uint256",
          "name": "_key",
          "type": "uint256"
        }
      ],
      "name": "getNode",
      "outputs": [
        {
          "internalType": "uint256",
          "name": "key",
          "type": "uint256"
        },
        {
          "internalType": "uint256",
          "name": "parent",
          "type": "uint256"
        },
        {
          "internalType": "uint256",
          "name": "left",
          "type": "uint256"
        },
        {
          "internalType": "uint256",
          "name": "right",
          "type": "uint256"
        },
        {
          "internalType": "bool",
          "name": "red",
          "type": "bool"
        },
        {
          "internalType": "uint256",
          "name": "value",
          "type": "uint256"
        }
      ],
      "stateMutability": "view",
      "type": "function"
    },
    {
      "inputs": [
        {
          "internalType": "uint256",
          "name": "_key",
          "type": "uint256"
        },
        {
          "internalType": "uint256",
          "name": "_value",
          "type": "uint256"
        }
      ],
      "name": "insert",
      "outputs": [],
      "stateMutability": "nonpayable",
      "type": "function"
    },
    {
      "inputs": [
        {
          "internalType": "uint256",
          "name": "key",
          "type": "uint256"
        }
      ],
      "name": "isEmpty",
      "outputs": [
        {
          "internalType": "bool",
          "name": "",
          "type": "bool"
        }
      ],
      "stateMutability": "pure",
      "type": "function"
    },
    {
      "inputs": [],
      "name": "last",
      "outputs": [
        {
          "internalType": "uint256",
          "name": "_key",
          "type": "uint256"
        }
      ],
      "stateMutability": "view",
      "type": "function"
    },
    {
      "inputs": [
        {
          "internalType": "uint256",
          "name": "key",
          "type": "uint256"
        }
      ],
      "name": "next",
      "outputs": [
        {
          "internalType": "uint256",
          "name": "_key",
          "type": "uint256"
        }
      ],
      "stateMutability": "view",
      "type": "function"
    },
    {
      "inputs": [
        {
          "internalType": "uint256",
          "name": "key",
          "type": "uint256"
        }
      ],
      "name": "prev",
      "outputs": [
        {
          "internalType": "uint256",
          "name": "_key",
          "type": "uint256"
        }
      ],
      "stateMutability": "view",
      "type": "function"
    },
    {
      "inputs": [
        {
          "internalType": "uint256",
          "name": "_key",
          "type": "uint256"
        }
      ],
      "name": "remove",
      "outputs": [],
      "stateMutability": "nonpayable",
      "type": "function"
    },
    {
      "inputs": [],
      "name": "root",
      "outputs": [
        {
          "internalType": "uint256",
          "name": "_key",
          "type": "uint256"
        }
      ],
      "stateMutability": "view",
      "type": "function"
    }
  ],
  "bytecode": "0x608060405234801561001057600080fd5b50611374806100206000396000f3fe608060405234801561001057600080fd5b50600436106100a95760003560e01c80634cc82215116100715780634cc82215146101005780634f0f4aa9146101135780634f558e7914610155578063ebf0c71714610178578063edd004e514610180578063f90cfeef1461019357600080fd5b80631d834a1b146100ae57806335671214146100c35780633df4ddf4146100e957806344733ae1146100f157806347799da8146100f8575b600080fd5b6100c16100bc36600461131d565b6101a6565b005b6100d66100d1366004611305565b61021f565b6040519081526020015b60405180910390f35b6100d6610231565b60006100d6565b6100d6610242565b6100c161010e366004611305565b61024e565b610126610121366004611305565b6102cf565b6040805196875260208701959095529385019290925260608401521515608083015260a082015260c0016100e0565b610168610163366004611305565b610303565b60405190151581526020016100e0565b6000546100d6565b6100d661018e366004611305565b61030f565b6101686101a1366004611305565b61031b565b6101b1600083610324565b60008281526002602090815260409182902083905581516060808252600690820152651a5b9cd95c9d60d21b60808201529081018490529081018290527fc72c11333761a47423f2cbe54eda92b59b0b5977a444194492fe47f41b3c0ab49060a00160405180910390a15050565b600061022b81836104a0565b92915050565b600061023d600061056c565b905090565b600061023d60006105ac565b6102596000826105e7565b60008181526002602090815260409182902054825160608082526006908201526572656d6f766560d01b60808201529182018490528183015290517fc72c11333761a47423f2cbe54eda92b59b0b5977a444194492fe47f41b3c0ab49181900360a00190a1600090815260026020526040812055565b600080808080806102e08188610872565b60009b8c5260026020526040909b2054939b929a91995097509550909350915050565b600061022b81836108f1565b600061022b8183610922565b6000811561022b565b806103625760405162461bcd60e51b8152602060048201526009602482015268522d4b49454d2d303160b81b60448201526064015b60405180910390fd5b61036c82826108f1565b156103a55760405162461bcd60e51b8152602060048201526009602482015268522d4b4558492d303160b81b6044820152606401610359565b81546000905b80156103ee57809150808310156103d55760009081526001808501602052604090912001546103ab565b60009081526001840160205260409020600201546103ab565b60408051608081018252838152600060208083018281528385018381526001606086018181528a86528b82019094529590932093518455519383019390935551600282015590516003909101805460ff19169115159190911790558161045657828455610490565b818310156104795760008281526001808601602052604090912001839055610490565b600082815260018501602052604090206002018390555b61049a84846109e7565b50505050565b6000816104db5760405162461bcd60e51b81526020600482015260096024820152682916aa24a2a696981960b91b6044820152606401610359565b60008281526001808501602052604090912001541561051a576000828152600180850160205260409091200154610513908490610c52565b905061022b565b5060008181526001830160205260409020545b801580159061054e5750600081815260018085016020526040909120015482145b1561022b57600081815260018401602052604090205490915061052d565b805480156105a7575b6000818152600180840160205260409091200154156105a7576000908152600180830160205260409091200154610575565b919050565b805480156105a7575b6000818152600183016020526040902060020154156105a75760009081526001820160205260409020600201546105b5565b806106205760405162461bcd60e51b81526020600482015260096024820152682916a5a4a2a696981960b91b6044820152606401610359565b61062a82826108f1565b6106625760405162461bcd60e51b81526020600482015260096024820152682916a5a2272296981960b91b6044820152606401610359565b600081815260018084016020526040822001548190158061069457506000838152600185016020526040902060020154155b156106a05750816106e8565b5060008281526001840160205260409020600201545b6000818152600180860160205260409091200154156106e85760009081526001808501602052604090912001546106b6565b60008181526001808601602052604090912001541561071c5760008181526001808601602052604090912001549150610733565b600081815260018501602052604090206002015491505b600081815260018501602052604080822054848352912081905580156107a457600081815260018087016020526040909120015482141561078957600081815260018087016020526040909120018390556107a8565b600081815260018601602052604090206002018390556107a8565b8285555b600082815260018601602052604090206003015460ff1615848314610832576107d2868487610c8f565b60008581526001878101602052604080832080830154878552828520938401819055845281842087905560028082015490840181905584529083208690556003908101549286905201805460ff191660ff90921615159190911790559193915b8015610842576108428685610d06565b5050600090815260019384016020526040812081815593840181905560028401555050600301805460ff19169055565b600080600080600061088487876108f1565b6108bc5760405162461bcd60e51b8152602060048201526009602482015268522d4b444e452d303160b81b6044820152606401610359565b505050600083815260019485016020526040902080549481015460028201546003909201549496909491935060ff9091169150565b6000811580159061091b5750825482148061091b5750600082815260018401602052604090205415155b9392505050565b60008161095d5760405162461bcd60e51b8152602060048201526009602482015268522d5449454d2d303160b81b6044820152606401610359565b600082815260018401602052604090206002015415610995576000828152600184016020526040902060020154610513908490611120565b5060008181526001830160205260409020545b80158015906109c95750600081815260018401602052604090206002015482145b1561022b5760008181526001840160205260409020549091506109a8565b60005b82548214801590610a145750600082815260018401602052604080822054825290206003015460ff165b15610c30576000828152600180850160205260408083205480845281842054845292200154811415610b375760008181526001850160205260408082205482528082206002015480835291206003015490925060ff1615610abd576000818152600180860160205260408083206003808201805460ff19908116909155878652838620820180548216905582548652928520018054909216909217905590829052549250610c2a565b6000818152600185016020526040902060020154831415610ae557809250610ae58484611158565b50600082815260018085016020526040808320548084528184206003808201805460ff19908116909155825487529386200180549093169093179091559182905254610b32908590611230565b610c2a565b6000818152600180860160205260408083205483528083209091015480835291206003015490925060ff1615610bb5576000818152600180860160205260408083206003808201805460ff19908116909155878652838620820180548216905582548652928520018054909216909217905590829052549250610c2a565b6000818152600180860160205260409091200154831415610bdd57809250610bdd8484611230565b50600082815260018085016020526040808320548084528184206003808201805460ff19908116909155825487529386200180549093169093179091559182905254610c2a908590611158565b506109ea565b505080546000908152600190910160205260409020600301805460ff19169055565b60005b600082815260018401602052604090206002015415610c895760009182526001830160205260409091206002015490610c55565b50919050565b600081815260018401602052604080822054848352912081905580610cb65782845561049a565b6000818152600180860160205260409091200154821415610cec576000818152600180860160205260409091200183905561049a565b600090815260019390930160205250604090912060020155565b60005b82548214801590610d2e5750600082815260018401602052604090206003015460ff16155b15611101576000828152600180850160205260408083205480845292200154831415610f2a5760008181526001850160205260408082206002015480835291206003015490925060ff1615610dd2576000828152600180860160205260408083206003908101805460ff19908116909155858552919093209092018054909216179055610dbb8482611158565b600081815260018501602052604090206002015491505b60008281526001808601602052604080832090910154825290206003015460ff16158015610e1d5750600082815260018501602052604080822060020154825290206003015460ff16155b15610e4a57600082815260018581016020526040909120600301805460ff191690911790559150816110fb565b600082815260018501602052604080822060020154825290206003015460ff16610ec7576000828152600180860160205260408083208083015484529083206003908101805460ff1990811690915593869052018054909216179055610eb08483611230565b600081815260018501602052604090206002015491505b600081815260018501602052604080822060039081018054868552838520808401805460ff909316151560ff199384161790558254821690925560029091015484529190922090910180549091169055610f218482611158565b835492506110fb565b6000818152600180860160205260408083209091015480835291206003015490925060ff1615610fa9576000828152600180860160205260408083206003908101805460ff19908116909155858552919093209092018054909216179055610f928482611230565b600081815260018086016020526040909120015491505b600082815260018501602052604080822060020154825290206003015460ff16158015610ff4575060008281526001808601602052604080832090910154825290206003015460ff16155b1561102157600082815260018581016020526040909120600301805460ff191690911790559150816110fb565b60008281526001808601602052604080832090910154825290206003015460ff166110a057600082815260018086016020526040808320600281015484529083206003908101805460ff19908116909155938690520180549092161790556110898483611158565b600081815260018086016020526040909120015491505b60008181526001808601602052604080832060039081018054878652838620808401805460ff909316151560ff199384161790558254821690925593015484529220909101805490911690556110f68482611230565b835492505b50610d09565b506000908152600190910160205260409020600301805460ff19169055565b60005b600082815260018085016020526040909120015415610c89576000918252600180840160205260409092209091015490611123565b6000818152600180840160205260408083206002810180549154828652928520909301549385905291839055909180156111a057600081815260018601602052604090208490555b60008381526001860160205260409020829055816111c05782855561120d565b60008281526001808701602052604090912001548414156111f6576000828152600180870160205260409091200183905561120d565b600082815260018601602052604090206002018390555b505060008181526001938401602052604080822090940183905591825291902055565b6000818152600180840160205260408083209182018054925483855291842060020154938590528390559091801561127657600081815260018601602052604090208490555b6000838152600186016020526040902082905581611296578285556112e3565b60008281526001860160205260409020600201548414156112cc57600082815260018601602052604090206002018390556112e3565b600082815260018087016020526040909120018390555b5050600081815260019093016020526040808420600201839055918352912055565b600060208284031215611316578081fd5b5035919050565b6000806040838503121561132f578081fd5b5050803592602090910135915056fea26469706673582212205c3f9669a20a99eaf426bb56eb2f67d4f198e54dbdf4a66f64b962cb79f4175264736f6c63430008040033",
  "linkReferences": {},
  "deployedLinkReferences": {}
}