{
  "_format": "hh-sol-artifact-1",
  "contractName": "TestBytes32LinkedListLibrary",
  "sourceName": "contracts/test/TestBytes32LinkedListLibrary.sol",
  "abi": [
    {
      "inputs": [],
      "stateMutability": "nonpayable",
      "type": "constructor"
    },
    {
      "inputs": [
        {
          "internalType": "bytes32",
          "name": "_node",
          "type": "bytes32"
        },
        {
          "internalType": "bool",
          "name": "_direction",
          "type": "bool"
        }
      ],
      "name": "getAdjacent",
      "outputs": [
        {
          "internalType": "bool",
          "name": "",
          "type": "bool"
        },
        {
          "internalType": "bytes32",
          "name": "",
          "type": "bytes32"
        }
      ],
      "stateMutability": "view",
      "type": "function"
    },
    {
      "inputs": [
        {
          "internalType": "bytes32",
          "name": "_node",
          "type": "bytes32"
        }
      ],
      "name": "getNode",
      "outputs": [
        {
          "internalType": "bool",
          "name": "",
          "type": "bool"
        },
        {
          "internalType": "bytes32",
          "name": "",
          "type": "bytes32"
        },
        {
          "internalType": "bytes32",
          "name": "",
          "type": "bytes32"
        }
      ],
      "stateMutability": "view",
      "type": "function"
    },
    {
      "inputs": [
        {
          "internalType": "bytes32",
          "name": "_node",
          "type": "bytes32"
        },
        {
          "internalType": "bytes32",
          "name": "_new",
          "type": "bytes32"
        },
        {
          "internalType": "bool",
          "name": "_direction",
          "type": "bool"
        }
      ],
      "name": "insert",
      "outputs": [
        {
          "internalType": "bool",
          "name": "",
          "type": "bool"
        }
      ],
      "stateMutability": "nonpayable",
      "type": "function"
    },
    {
      "inputs": [],
      "name": "listExists",
      "outputs": [
        {
          "internalType": "bool",
          "name": "",
          "type": "bool"
        }
      ],
      "stateMutability": "view",
      "type": "function"
    },
    {
      "inputs": [
        {
          "internalType": "bytes32",
          "name": "_node",
          "type": "bytes32"
        }
      ],
      "name": "nodeExists",
      "outputs": [
        {
          "internalType": "bool",
          "name": "",
          "type": "bool"
        }
      ],
      "stateMutability": "view",
      "type": "function"
    },
    {
      "inputs": [
        {
          "internalType": "bool",
          "name": "_direction",
          "type": "bool"
        }
      ],
      "name": "pop",
      "outputs": [
        {
          "internalType": "bytes32",
          "name": "",
          "type": "bytes32"
        }
      ],
      "stateMutability": "nonpayable",
      "type": "function"
    },
    {
      "inputs": [
        {
          "internalType": "bytes32",
          "name": "_node",
          "type": "bytes32"
        },
        {
          "internalType": "bool",
          "name": "_direction",
          "type": "bool"
        }
      ],
      "name": "push",
      "outputs": [],
      "stateMutability": "nonpayable",
      "type": "function"
    },
    {
      "inputs": [
        {
          "internalType": "bytes32",
          "name": "_node",
          "type": "bytes32"
        }
      ],
      "name": "remove",
      "outputs": [
        {
          "internalType": "bytes32",
          "name": "",
          "type": "bytes32"
        }
      ],
      "stateMutability": "nonpayable",
      "type": "function"
    },
    {
      "inputs": [],
      "name": "sizeOf",
      "outputs": [
        {
          "internalType": "uint256",
          "name": "",
          "type": "uint256"
        }
      ],
      "stateMutability": "view",
      "type": "function"
    }
  ],
  "bytecode": "0x608060405234801561001057600080fd5b50610617806100206000396000f3fe608060405234801561001057600080fd5b50600436106100935760003560e01c806350c946fe1161006657806350c946fe14610108578063607de6a714610138578063875d9c001461014d57806395bc267314610160578063fc3581971461017357600080fd5b80630e15dc89146100985780632c64bf58146100b357806330cb14d2146100cb5780634fe46e1d146100de575b600080fd5b6100a0610186565b6040519081526020015b60405180910390f35b6100bb610197565b60405190151581526020016100aa565b6100a06100d9366004610522565b6101a3565b6100f16100ec36600461055b565b6101b5565b6040805192151583526020830191909152016100aa565b61011b610116366004610543565b6101ce565b6040805193151584526020840192909252908201526060016100aa565b61014b61014636600461055b565b6101e9565b005b6100bb61015b366004610586565b6101f9565b6100a061016e366004610543565b61020f565b6100bb610181366004610543565b61021b565b60006101926000610227565b905090565b6000610192600061026f565b60006101af81836102c2565b92915050565b6000806101c38185856102eb565b915091509250929050565b600080806101dc818561032f565b9250925092509193909250565b6101f560008383610380565b5050565b600061020781858585610393565b949350505050565b60006101af818361041e565b60006101af818361049a565b600080600061023984600060016102eb565b90925090505b801561026857610251848260016102eb565b909250905082610260816105ba565b93505061023f565b5050919050565b6000808052602082815260408083209091528120541515806102a857506000808052602083815260408083206001845290915290205415155b156102b557506001919050565b506000919050565b919050565b60008060006102d3856000866102eb565b90925090506102e2858261041e565b95945050505050565b6000806102f8858561049a565b61030757506000905080610327565b505060008281526020848152604080832084151584529091529020546001905b935093915050565b600080600061033e858561049a565b61035057506000915081905080610379565b505050600081815260208381526040808320838052808352818420546001808652919093529220545b9250925092565b61038d8360008484610393565b50505050565b600061039f858461049a565b1580156103b157506103b1858561049a565b1561041357506000838152602085815260408083208415801580865291845282852080548887528a86528487208388528087528588208b9055918990558087528a86528487209287529185528386208890559185529252909120556001610207565b506000949350505050565b60008115806104345750610432838361049a565b155b15610441575060006101af565b506000818152602083815260408083208380528083528184208054600180875284872080548089528a88528689208980528852868920849055928852988652848720818852865293862055925290829055815290915590565b6000818152602083815260408083208380529091528120541580156104d5575060008281526020848152604080832060018452909152902054155b1561050a5760008080526020848152604080832060018452909152902054821415610502575060016101af565b5060006101af565b5060016101af565b803580151581146102bd57600080fd5b600060208284031215610533578081fd5b61053c82610512565b9392505050565b600060208284031215610554578081fd5b5035919050565b6000806040838503121561056d578081fd5b8235915061057d60208401610512565b90509250929050565b60008060006060848603121561059a578081fd5b83359250602084013591506105b160408501610512565b90509250925092565b60006000198214156105da57634e487b7160e01b81526011600452602481fd5b506001019056fea26469706673582212204a976d11dbf05bc2067c53cb9515f1637f25353d070bba3242c595ba2bbc5a1d64736f6c63430008040033",
  "linkReferences": {},
  "deployedLinkReferences": {}
}