{
  "_format": "hh-sol-artifact-1",
  "contractName": "TradePairs",
  "sourceName": "contracts/TradePairs.sol",
  "abi": [
    {
      "anonymous": false,
      "inputs": [
        {
          "indexed": true,
          "internalType": "bytes32",
          "name": "pair",
          "type": "bytes32"
        },
        {
          "indexed": false,
          "internalType": "uint256",
          "name": "price",
          "type": "uint256"
        },
        {
          "indexed": false,
          "internalType": "uint256",
          "name": "quantity",
          "type": "uint256"
        },
        {
          "indexed": false,
          "internalType": "bytes32",
          "name": "maker",
          "type": "bytes32"
        },
        {
          "indexed": false,
          "internalType": "bytes32",
          "name": "taker",
          "type": "bytes32"
        },
        {
          "indexed": false,
          "internalType": "uint256",
          "name": "feeMaker",
          "type": "uint256"
        },
        {
          "indexed": false,
          "internalType": "uint256",
          "name": "feeTaker",
          "type": "uint256"
        },
        {
          "indexed": false,
          "internalType": "bool",
          "name": "feeMakerBase",
          "type": "bool"
        },
        {
          "indexed": false,
          "internalType": "uint256",
          "name": "execId",
          "type": "uint256"
        }
      ],
      "name": "Executed",
      "type": "event"
    },
    {
      "anonymous": false,
      "inputs": [
        {
          "indexed": false,
          "internalType": "bytes32",
          "name": "pair",
          "type": "bytes32"
        },
        {
          "indexed": false,
          "internalType": "uint8",
          "name": "basedisplaydecimals",
          "type": "uint8"
        },
        {
          "indexed": false,
          "internalType": "uint8",
          "name": "quotedisplaydecimals",
          "type": "uint8"
        },
        {
          "indexed": false,
          "internalType": "uint256",
          "name": "mintradeamount",
          "type": "uint256"
        },
        {
          "indexed": false,
          "internalType": "uint256",
          "name": "maxtradeamount",
          "type": "uint256"
        }
      ],
      "name": "NewTradePair",
      "type": "event"
    },
    {
      "anonymous": false,
      "inputs": [
        {
          "indexed": true,
          "internalType": "address",
          "name": "traderaddress",
          "type": "address"
        },
        {
          "indexed": true,
          "internalType": "bytes32",
          "name": "pair",
          "type": "bytes32"
        },
        {
          "indexed": false,
          "internalType": "bytes32",
          "name": "id",
          "type": "bytes32"
        },
        {
          "indexed": false,
          "internalType": "uint256",
          "name": "price",
          "type": "uint256"
        },
        {
          "indexed": false,
          "internalType": "uint256",
          "name": "totalamount",
          "type": "uint256"
        },
        {
          "indexed": false,
          "internalType": "uint256",
          "name": "quantity",
          "type": "uint256"
        },
        {
          "indexed": false,
          "internalType": "enum ITradePairs.Side",
          "name": "side",
          "type": "uint8"
        },
        {
          "indexed": false,
          "internalType": "enum ITradePairs.Type1",
          "name": "type1",
          "type": "uint8"
        },
        {
          "indexed": false,
          "internalType": "enum ITradePairs.Status",
          "name": "status",
          "type": "uint8"
        },
        {
          "indexed": false,
          "internalType": "uint256",
          "name": "quantityfilled",
          "type": "uint256"
        },
        {
          "indexed": false,
          "internalType": "uint256",
          "name": "totalfee",
          "type": "uint256"
        }
      ],
      "name": "OrderStatusChanged",
      "type": "event"
    },
    {
      "anonymous": false,
      "inputs": [
        {
          "indexed": true,
          "internalType": "address",
          "name": "previousOwner",
          "type": "address"
        },
        {
          "indexed": true,
          "internalType": "address",
          "name": "newOwner",
          "type": "address"
        }
      ],
      "name": "OwnershipTransferred",
      "type": "event"
    },
    {
      "anonymous": false,
      "inputs": [
        {
          "indexed": true,
          "internalType": "bytes32",
          "name": "pair",
          "type": "bytes32"
        },
        {
          "indexed": false,
          "internalType": "string",
          "name": "param",
          "type": "string"
        },
        {
          "indexed": false,
          "internalType": "uint256",
          "name": "oldValue",
          "type": "uint256"
        },
        {
          "indexed": false,
          "internalType": "uint256",
          "name": "newValue",
          "type": "uint256"
        }
      ],
      "name": "ParameterUpdated",
      "type": "event"
    },
    {
      "anonymous": false,
      "inputs": [
        {
          "indexed": false,
          "internalType": "address",
          "name": "account",
          "type": "address"
        }
      ],
      "name": "Paused",
      "type": "event"
    },
    {
      "anonymous": false,
      "inputs": [
        {
          "indexed": false,
          "internalType": "address",
          "name": "account",
          "type": "address"
        }
      ],
      "name": "Unpaused",
      "type": "event"
    },
    {
      "stateMutability": "nonpayable",
      "type": "fallback"
    },
    {
      "inputs": [],
      "name": "TENK",
      "outputs": [
        {
          "internalType": "uint256",
          "name": "",
          "type": "uint256"
        }
      ],
      "stateMutability": "view",
      "type": "function"
    },
    {
      "inputs": [],
      "name": "VERSION",
      "outputs": [
        {
          "internalType": "bytes32",
          "name": "",
          "type": "bytes32"
        }
      ],
      "stateMutability": "view",
      "type": "function"
    },
    {
      "inputs": [
        {
          "internalType": "bytes32",
          "name": "_tradePairId",
          "type": "bytes32"
        },
        {
          "internalType": "uint256",
          "name": "_price",
          "type": "uint256"
        },
        {
          "internalType": "uint256",
          "name": "_quantity",
          "type": "uint256"
        },
        {
          "internalType": "enum ITradePairs.Side",
          "name": "_side",
          "type": "uint8"
        },
        {
          "internalType": "enum ITradePairs.Type1",
          "name": "_type1",
          "type": "uint8"
        }
      ],
      "name": "addOrder",
      "outputs": [],
      "stateMutability": "nonpayable",
      "type": "function"
    },
    {
      "inputs": [
        {
          "internalType": "bytes32",
          "name": "_tradePairId",
          "type": "bytes32"
        },
        {
          "internalType": "enum ITradePairs.Type1",
          "name": "_type",
          "type": "uint8"
        }
      ],
      "name": "addOrderType",
      "outputs": [],
      "stateMutability": "nonpayable",
      "type": "function"
    },
    {
      "inputs": [
        {
          "internalType": "bytes32",
          "name": "_tradePairId",
          "type": "bytes32"
        },
        {
          "internalType": "bytes32",
          "name": "_baseSymbol",
          "type": "bytes32"
        },
        {
          "internalType": "uint8",
          "name": "_baseDecimals",
          "type": "uint8"
        },
        {
          "internalType": "uint8",
          "name": "_baseDisplayDecimals",
          "type": "uint8"
        },
        {
          "internalType": "bytes32",
          "name": "_quoteSymbol",
          "type": "bytes32"
        },
        {
          "internalType": "uint8",
          "name": "_quoteDecimals",
          "type": "uint8"
        },
        {
          "internalType": "uint8",
          "name": "_quoteDisplayDecimals",
          "type": "uint8"
        },
        {
          "internalType": "uint256",
          "name": "_minTradeAmount",
          "type": "uint256"
        },
        {
          "internalType": "uint256",
          "name": "_maxTradeAmount",
          "type": "uint256"
        },
        {
          "internalType": "enum ITradePairs.AuctionMode",
          "name": "_mode",
          "type": "uint8"
        }
      ],
      "name": "addTradePair",
      "outputs": [],
      "stateMutability": "nonpayable",
      "type": "function"
    },
    {
      "inputs": [
        {
          "internalType": "bytes32",
          "name": "_tradePairId",
          "type": "bytes32"
        },
        {
          "internalType": "bytes32[]",
          "name": "_orderIds",
          "type": "bytes32[]"
        }
      ],
      "name": "cancelAllOrders",
      "outputs": [],
      "stateMutability": "nonpayable",
      "type": "function"
    },
    {
      "inputs": [
        {
          "internalType": "bytes32",
          "name": "_tradePairId",
          "type": "bytes32"
        },
        {
          "internalType": "bytes32",
          "name": "_orderId",
          "type": "bytes32"
        }
      ],
      "name": "cancelOrder",
      "outputs": [],
      "stateMutability": "nonpayable",
      "type": "function"
    },
    {
      "inputs": [
        {
          "internalType": "bytes32",
          "name": "_tradePairId",
          "type": "bytes32"
        },
        {
          "internalType": "bytes32",
          "name": "_orderId",
          "type": "bytes32"
        },
        {
          "internalType": "uint256",
          "name": "_price",
          "type": "uint256"
        },
        {
          "internalType": "uint256",
          "name": "_quantity",
          "type": "uint256"
        }
      ],
      "name": "cancelReplaceOrder",
      "outputs": [],
      "stateMutability": "nonpayable",
      "type": "function"
    },
    {
      "inputs": [
        {
          "internalType": "uint256",
          "name": "a",
          "type": "uint256"
        },
        {
          "internalType": "uint256",
          "name": "m",
          "type": "uint256"
        }
      ],
      "name": "ceil",
      "outputs": [
        {
          "internalType": "uint256",
          "name": "",
          "type": "uint256"
        }
      ],
      "stateMutability": "pure",
      "type": "function"
    },
    {
      "inputs": [
        {
          "internalType": "uint256",
          "name": "a",
          "type": "uint256"
        },
        {
          "internalType": "uint256",
          "name": "m",
          "type": "uint256"
        }
      ],
      "name": "floor",
      "outputs": [
        {
          "internalType": "uint256",
          "name": "",
          "type": "uint256"
        }
      ],
      "stateMutability": "pure",
      "type": "function"
    },
    {
      "inputs": [
        {
          "internalType": "bytes32",
          "name": "_tradePairId",
          "type": "bytes32"
        }
      ],
      "name": "getAllowedOrderTypes",
      "outputs": [
        {
          "internalType": "uint256[]",
          "name": "",
          "type": "uint256[]"
        }
      ],
      "stateMutability": "view",
      "type": "function"
    },
    {
      "inputs": [
        {
          "internalType": "bytes32",
          "name": "_tradePairId",
          "type": "bytes32"
        }
      ],
      "name": "getAllowedSlippagePercent",
      "outputs": [
        {
          "internalType": "uint8",
          "name": "",
          "type": "uint8"
        }
      ],
      "stateMutability": "view",
      "type": "function"
    },
    {
      "inputs": [
        {
          "internalType": "bytes32",
          "name": "_tradePairId",
          "type": "bytes32"
        }
      ],
      "name": "getAuctionData",
      "outputs": [
        {
          "internalType": "uint8",
          "name": "mode",
          "type": "uint8"
        },
        {
          "internalType": "uint256",
          "name": "price",
          "type": "uint256"
        },
        {
          "internalType": "uint256",
          "name": "percent",
          "type": "uint256"
        },
        {
          "internalType": "uint256",
          "name": "lower",
          "type": "uint256"
        },
        {
          "internalType": "uint256",
          "name": "upper",
          "type": "uint256"
        }
      ],
      "stateMutability": "view",
      "type": "function"
    },
    {
      "inputs": [
        {
          "internalType": "bytes32",
          "name": "_tradePairId",
          "type": "bytes32"
        },
        {
          "internalType": "bool",
          "name": "_isBase",
          "type": "bool"
        }
      ],
      "name": "getDecimals",
      "outputs": [
        {
          "internalType": "uint8",
          "name": "",
          "type": "uint8"
        }
      ],
      "stateMutability": "view",
      "type": "function"
    },
    {
      "inputs": [
        {
          "internalType": "bytes32",
          "name": "_tradePairId",
          "type": "bytes32"
        },
        {
          "internalType": "bool",
          "name": "_isBase",
          "type": "bool"
        }
      ],
      "name": "getDisplayDecimals",
      "outputs": [
        {
          "internalType": "uint8",
          "name": "",
          "type": "uint8"
        }
      ],
      "stateMutability": "view",
      "type": "function"
    },
    {
      "inputs": [
        {
          "internalType": "bytes32",
          "name": "_tradePairId",
          "type": "bytes32"
        }
      ],
      "name": "getMakerRate",
      "outputs": [
        {
          "internalType": "uint256",
          "name": "",
          "type": "uint256"
        }
      ],
      "stateMutability": "view",
      "type": "function"
    },
    {
      "inputs": [
        {
          "internalType": "bytes32",
          "name": "_tradePairId",
          "type": "bytes32"
        }
      ],
      "name": "getMaxTradeAmount",
      "outputs": [
        {
          "internalType": "uint256",
          "name": "",
          "type": "uint256"
        }
      ],
      "stateMutability": "view",
      "type": "function"
    },
    {
      "inputs": [
        {
          "internalType": "bytes32",
          "name": "_tradePairId",
          "type": "bytes32"
        }
      ],
      "name": "getMinTradeAmount",
      "outputs": [
        {
          "internalType": "uint256",
          "name": "",
          "type": "uint256"
        }
      ],
      "stateMutability": "view",
      "type": "function"
    },
    {
      "inputs": [
        {
          "internalType": "bytes32",
          "name": "_tradePairId",
          "type": "bytes32"
        },
        {
          "internalType": "uint256",
          "name": "nPrice",
          "type": "uint256"
        },
        {
          "internalType": "uint256",
          "name": "nOrder",
          "type": "uint256"
        },
        {
          "internalType": "uint256",
          "name": "lastPrice",
          "type": "uint256"
        },
        {
          "internalType": "bytes32",
          "name": "lastOrder",
          "type": "bytes32"
        }
      ],
      "name": "getNBuyBook",
      "outputs": [
        {
          "internalType": "uint256[]",
          "name": "",
          "type": "uint256[]"
        },
        {
          "internalType": "uint256[]",
          "name": "",
          "type": "uint256[]"
        },
        {
          "internalType": "uint256",
          "name": "",
          "type": "uint256"
        },
        {
          "internalType": "bytes32",
          "name": "",
          "type": "bytes32"
        }
      ],
      "stateMutability": "view",
      "type": "function"
    },
    {
      "inputs": [
        {
          "internalType": "bytes32",
          "name": "_tradePairId",
          "type": "bytes32"
        },
        {
          "internalType": "uint256",
          "name": "nPrice",
          "type": "uint256"
        },
        {
          "internalType": "uint256",
          "name": "nOrder",
          "type": "uint256"
        },
        {
          "internalType": "uint256",
          "name": "lastPrice",
          "type": "uint256"
        },
        {
          "internalType": "bytes32",
          "name": "lastOrder",
          "type": "bytes32"
        }
      ],
      "name": "getNSellBook",
      "outputs": [
        {
          "internalType": "uint256[]",
          "name": "",
          "type": "uint256[]"
        },
        {
          "internalType": "uint256[]",
          "name": "",
          "type": "uint256[]"
        },
        {
          "internalType": "uint256",
          "name": "",
          "type": "uint256"
        },
        {
          "internalType": "bytes32",
          "name": "",
          "type": "bytes32"
        }
      ],
      "stateMutability": "view",
      "type": "function"
    },
    {
      "inputs": [
        {
          "internalType": "bytes32",
          "name": "_orderId",
          "type": "bytes32"
        }
      ],
      "name": "getOrder",
      "outputs": [
        {
          "components": [
            {
              "internalType": "bytes32",
              "name": "id",
              "type": "bytes32"
            },
            {
              "internalType": "uint256",
              "name": "price",
              "type": "uint256"
            },
            {
              "internalType": "uint256",
              "name": "totalAmount",
              "type": "uint256"
            },
            {
              "internalType": "uint256",
              "name": "quantity",
              "type": "uint256"
            },
            {
              "internalType": "uint256",
              "name": "quantityFilled",
              "type": "uint256"
            },
            {
              "internalType": "uint256",
              "name": "totalFee",
              "type": "uint256"
            },
            {
              "internalType": "address",
              "name": "traderaddress",
              "type": "address"
            },
            {
              "internalType": "enum ITradePairs.Side",
              "name": "side",
              "type": "uint8"
            },
            {
              "internalType": "enum ITradePairs.Type1",
              "name": "type1",
              "type": "uint8"
            },
            {
              "internalType": "enum ITradePairs.Status",
              "name": "status",
              "type": "uint8"
            }
          ],
          "internalType": "struct ITradePairs.Order",
          "name": "",
          "type": "tuple"
        }
      ],
      "stateMutability": "view",
      "type": "function"
    },
    {
      "inputs": [
        {
          "internalType": "bytes32",
          "name": "_tradePairId",
          "type": "bytes32"
        },
        {
          "internalType": "bool",
          "name": "_isBase",
          "type": "bool"
        }
      ],
      "name": "getSymbol",
      "outputs": [
        {
          "internalType": "bytes32",
          "name": "",
          "type": "bytes32"
        }
      ],
      "stateMutability": "view",
      "type": "function"
    },
    {
      "inputs": [
        {
          "internalType": "bytes32",
          "name": "_tradePairId",
          "type": "bytes32"
        }
      ],
      "name": "getTakerRate",
      "outputs": [
        {
          "internalType": "uint256",
          "name": "",
          "type": "uint256"
        }
      ],
      "stateMutability": "view",
      "type": "function"
    },
    {
      "inputs": [],
      "name": "getTradePairs",
      "outputs": [
        {
          "internalType": "bytes32[]",
          "name": "",
          "type": "bytes32[]"
        }
      ],
      "stateMutability": "view",
      "type": "function"
    },
    {
      "inputs": [
        {
          "internalType": "address",
          "name": "_orderbooks",
          "type": "address"
        },
        {
          "internalType": "address",
          "name": "_portfolio",
          "type": "address"
        }
      ],
      "name": "initialize",
      "outputs": [],
      "stateMutability": "nonpayable",
      "type": "function"
    },
    {
      "inputs": [
        {
          "internalType": "bytes32",
          "name": "_tradePairId",
          "type": "bytes32"
        },
        {
          "internalType": "uint8",
          "name": "_maxCount",
          "type": "uint8"
        }
      ],
      "name": "matchAuctionOrders",
      "outputs": [],
      "stateMutability": "nonpayable",
      "type": "function"
    },
    {
      "inputs": [],
      "name": "owner",
      "outputs": [
        {
          "internalType": "address",
          "name": "",
          "type": "address"
        }
      ],
      "stateMutability": "view",
      "type": "function"
    },
    {
      "inputs": [],
      "name": "pause",
      "outputs": [],
      "stateMutability": "nonpayable",
      "type": "function"
    },
    {
      "inputs": [
        {
          "internalType": "bytes32",
          "name": "_tradePairId",
          "type": "bytes32"
        },
        {
          "internalType": "bool",
          "name": "_addOrderPaused",
          "type": "bool"
        }
      ],
      "name": "pauseAddOrder",
      "outputs": [],
      "stateMutability": "nonpayable",
      "type": "function"
    },
    {
      "inputs": [
        {
          "internalType": "bytes32",
          "name": "_tradePairId",
          "type": "bytes32"
        },
        {
          "internalType": "bool",
          "name": "_pairPaused",
          "type": "bool"
        }
      ],
      "name": "pauseTradePair",
      "outputs": [],
      "stateMutability": "nonpayable",
      "type": "function"
    },
    {
      "inputs": [],
      "name": "paused",
      "outputs": [
        {
          "internalType": "bool",
          "name": "",
          "type": "bool"
        }
      ],
      "stateMutability": "view",
      "type": "function"
    },
    {
      "inputs": [
        {
          "internalType": "bytes32",
          "name": "_tradePairId",
          "type": "bytes32"
        },
        {
          "internalType": "enum ITradePairs.Type1",
          "name": "_type",
          "type": "uint8"
        }
      ],
      "name": "removeOrderType",
      "outputs": [],
      "stateMutability": "nonpayable",
      "type": "function"
    },
    {
      "inputs": [],
      "name": "renounceOwnership",
      "outputs": [],
      "stateMutability": "nonpayable",
      "type": "function"
    },
    {
      "inputs": [
        {
          "internalType": "bytes32",
          "name": "_tradePairId",
          "type": "bytes32"
        },
        {
          "internalType": "uint8",
          "name": "_allowedSlippagePercent",
          "type": "uint8"
        }
      ],
      "name": "setAllowedSlippagePercent",
      "outputs": [],
      "stateMutability": "nonpayable",
      "type": "function"
    },
    {
      "inputs": [
        {
          "internalType": "bytes32",
          "name": "_tradePairId",
          "type": "bytes32"
        },
        {
          "internalType": "enum ITradePairs.AuctionMode",
          "name": "_mode",
          "type": "uint8"
        }
      ],
      "name": "setAuctionMode",
      "outputs": [],
      "stateMutability": "nonpayable",
      "type": "function"
    },
    {
      "inputs": [
        {
          "internalType": "bytes32",
          "name": "_tradePairId",
          "type": "bytes32"
        },
        {
          "internalType": "uint256",
          "name": "_price",
          "type": "uint256"
        },
        {
          "internalType": "uint256",
          "name": "_pct",
          "type": "uint256"
        }
      ],
      "name": "setAuctionPrice",
      "outputs": [],
      "stateMutability": "nonpayable",
      "type": "function"
    },
    {
      "inputs": [
        {
          "internalType": "bytes32",
          "name": "_tradePairId",
          "type": "bytes32"
        },
        {
          "internalType": "uint8",
          "name": "_displayDecimals",
          "type": "uint8"
        },
        {
          "internalType": "bool",
          "name": "_isBase",
          "type": "bool"
        }
      ],
      "name": "setDisplayDecimals",
      "outputs": [],
      "stateMutability": "nonpayable",
      "type": "function"
    },
    {
      "inputs": [
        {
          "internalType": "bytes32",
          "name": "_tradePairId",
          "type": "bytes32"
        },
        {
          "internalType": "uint256",
          "name": "_maxTradeAmount",
          "type": "uint256"
        }
      ],
      "name": "setMaxTradeAmount",
      "outputs": [],
      "stateMutability": "nonpayable",
      "type": "function"
    },
    {
      "inputs": [
        {
          "internalType": "bytes32",
          "name": "_tradePairId",
          "type": "bytes32"
        },
        {
          "internalType": "uint256",
          "name": "_minTradeAmount",
          "type": "uint256"
        }
      ],
      "name": "setMinTradeAmount",
      "outputs": [],
      "stateMutability": "nonpayable",
      "type": "function"
    },
    {
      "inputs": [
        {
          "internalType": "bytes32",
          "name": "_tradePairId",
          "type": "bytes32"
        }
      ],
      "name": "tradePairExists",
      "outputs": [
        {
          "internalType": "bool",
          "name": "",
          "type": "bool"
        }
      ],
      "stateMutability": "view",
      "type": "function"
    },
    {
      "inputs": [
        {
          "internalType": "address",
          "name": "newOwner",
          "type": "address"
        }
      ],
      "name": "transferOwnership",
      "outputs": [],
      "stateMutability": "nonpayable",
      "type": "function"
    },
    {
      "inputs": [],
      "name": "unpause",
      "outputs": [],
      "stateMutability": "nonpayable",
      "type": "function"
    },
    {
      "inputs": [
        {
          "internalType": "bytes32",
          "name": "_tradePairId",
          "type": "bytes32"
        },
        {
          "internalType": "uint256",
          "name": "_rate",
          "type": "uint256"
        },
        {
          "internalType": "enum ITradePairs.RateType",
          "name": "_rateType",
          "type": "uint8"
        }
      ],
      "name": "updateRate",
      "outputs": [],
      "stateMutability": "nonpayable",
      "type": "function"
    }
  ],
  "bytecode": "0x608060405234801561001057600080fd5b50615e2e80620000216000396000f3fe608060405234801561001057600080fd5b50600436106102545760003560e01c806384261ef311610145578063c11c862e116100bd578063d5f44b5d11610084578063d5f44b5d1461059c578063e1f3e8f9146105a5578063f1f0a833146105c8578063f2fde38b14610607578063fe9181521461061a578063ffa1ad741461062d57005b8063c11c862e1461053d578063c461560b14610550578063c52dc84314610563578063cd9ff84614610576578063cfee2bee1461058957005b80639a08884a1161010c5780639a08884a146104bb578063a47d9d33146104ce578063a9e34c27146104e1578063b46fb3a7146104f4578063be379d5b14610517578063bffc38ff1461052a57005b806384261ef31461043f5780638456cb59146104625780638587be6e1461046a57806386ce50bf1461047d5780638da5cb5b146104a057005b80635717f475116101d85780636b84b1731161019f5780636b84b173146103bb5780636b97239e146103d0578063715018a6146103f15780637eda3588146103f9578063800bbde11461040c57806382dddfc61461041f57005b80635717f4751461034b5780635778472a1461035e5780635c975abb1461037e5780635d51ffbf1461039557806367bd22f5146103a857005b80633c4b0a6f1161021c5780633c4b0a6f146102f75780633f4ba83a1461030a57806340a893821461031257806345cd989b14610325578063485cc9551461033857005b80631009f7f9146102565780631bfa0ee3146102695780632ac73988146102ae578063302dc8a0146102c15780633b88d0ce146102d4575b005b6102546102643660046154c4565b61063c565b610297610277366004615374565b600090815260cb6020526040902060080154640100000000900460ff1690565b60405160ff90911681526020015b60405180910390f35b6102546102bc36600461568c565b6109cf565b6102546102cf3660046153a4565b610a81565b6102e76102e2366004615652565b610c71565b6040516102a594939291906158ae565b6102546103053660046156ae565b610d41565b610254610e41565b610297610320366004615443565b610e75565b610254610333366004615601565b610ebb565b6102546103463660046152b5565b61110d565b61025461035936600461557c565b611204565b61037161036c366004615374565b611330565b6040516102a59190615a8c565b60975460ff165b60405190151581526020016102a5565b6102546103a3366004615472565b6114a3565b6102546103b6366004615443565b61152e565b6103c3611589565b6040516102a59190615857565b6103e36103de366004615443565b6115e1565b6040519081526020016102a5565b610254611616565b610297610407366004615443565b61164a565b61025461041a36600461555a565b611694565b61043261042d366004615374565b611a4e565b6040516102a5919061589b565b6103e361044d366004615374565b600090815260cb602052604090206005015490565b610254611b28565b6103e3610478366004615472565b611b5a565b6103e361048b366004615374565b600090815260cb602052604090206004015490565b6033546040516001600160a01b0390911681526020016102a5565b6102546104c936600461557c565b611b8f565b6102546104dc366004615472565b611c57565b6102546104ef3660046155d6565b611e49565b6103e3610502366004615374565b600090815260cb602052604090206007015490565b6103e3610525366004615472565b612048565b610254610538366004615443565b61206a565b6102e761054b366004615652565b6120c6565b61025461055e36600461568c565b612133565b610254610571366004615493565b612452565b610254610584366004615472565b6126d9565b610385610597366004615374565b612764565b6103e361271081565b6103e36105b3366004615374565b600090815260cb602052604090206006015490565b6105db6105d6366004615374565b612783565b6040805160ff90961686526020860194909452928401919091526060830152608082015260a0016102a5565b61025461061536600461529b565b61283a565b61025461062836600461559e565b6128d5565b6103e364312e322e3960d81b81565b6033546001600160a01b0316331461066f5760405162461bcd60e51b8152600401610666906159d5565b60405180910390fd5b60008a815260cb60205260409020546109c35760008a815260cc6020526040902061069b816001612a30565b5060006106ce6106aa8d612a3c565b6040516020016106ba919061580e565b604051602081830303815290604052612bb2565b905060006106ee6106de8e612a3c565b6040516020016106ba9190615832565b90508b60cb60008f8152602001908152602001600020600001819055508a60cb60008f815260200190815260200160002060080160006101000a81548160ff021916908360ff1602179055508960cb60008f815260200190815260200160002060080160016101000a81548160ff021916908360ff1602179055508860cb60008f8152602001908152602001600020600101819055508760cb60008f815260200190815260200160002060080160026101000a81548160ff021916908360ff1602179055508660cb60008f815260200190815260200160002060080160036101000a81548160ff021916908360ff1602179055508560cb60008f8152602001908152602001600020600401819055508460cb60008f8152602001908152602001600020600501819055508160cb60008f8152602001908152602001600020600201819055508060cb60008f815260200190815260200160002060030181905550600a60cb60008f815260200190815260200160002060060181905550601460cb60008f815260200190815260200160002060070181905550601460cb60008f815260200190815260200160002060080160046101000a81548160ff021916908360ff1602179055506103e860cb60008f8152602001908152602001600020600a01819055508360cb60008f815260200190815260200160002060080160076101000a81548160ff0219169083600781111561091957634e487b7160e01b600052602160045260246000fd5b021790555061092784612bcf565b1561093957610937836004612a30565b505b60ca80546001810182556000919091527f42d72674974f694b5f5159593243114d38a5c39c89d6b62fee061ff523240ee1018d9055604080518e815260ff8c81166020830152891681830152606081018890526080810187905290517fffdd37751a6fcdb2f4d6fc113325dc8070b48f816c363300a7f2aa28bae7bcc99181900360a00190a15050505b50505050505050505050565b6033546001600160a01b031633146109f95760405162461bcd60e51b8152600401610666906159d5565b600082815260cb6020908152604091829020600801805464ff0000000019811664010000000060ff8781168281029390931790945585516060808252600a9082015269542d534c49505041474560b01b6080820152920490921692810183905292830152908390600080516020615dd98339815191529060a0015b60405180910390a2505050565b60026065541415610aa45760405162461bcd60e51b815260040161066690615a55565b600260655560975460ff1615610acc5760405162461bcd60e51b8152600401610666906159ab565b600082815260cb602052604090206008810154600160301b900460ff1615610b225760405162461bcd60e51b8152602060048201526009602482015268542d505041552d303360b81b6044820152606401610666565b60005b8251811015610c6657600060cd6000858481518110610b5457634e487b7160e01b600052603260045260246000fd5b602090810291909101810151825281019190915260400160002060068101549091506001600160a01b03163314610bb95760405162461bcd60e51b81526020600482015260096024820152682a16a7a7a1a196981960b91b6044820152606401610666565b805415801590610bd0575080600301548160040154105b8015610c4057506002600682810154600160b01b900460ff1690811115610c0757634e487b7160e01b600052602160045260246000fd5b1480610c4057506000600682810154600160b01b900460ff1690811115610c3e57634e487b7160e01b600052602160045260246000fd5b145b15610c5357610c53858260000154612c23565b5080610c5e81615d06565b915050610b25565b505060016065555050565b60ce54600086815260cb6020526040808220600301549051635d508da960e11b815260048101919091526024810187905260448101869052606481018590526084810184905260a4810182905260609283929182916001600160a01b03169063baa11b529060c4015b60006040518083038186803b158015610cf257600080fd5b505afa158015610d06573d6000803e3d6000fd5b505050506040513d6000823e601f3d908101601f19168201604052610d2e91908101906152e7565b929c919b50995090975095505050505050565b6033546001600160a01b03163314610d6b5760405162461bcd60e51b8152600401610666906159d5565b600083815260cb6020526040902060080154610100900460ff168115610db357600084815260cb60205260409020600801805461ff00191661010060ff861602179055610de5565b50600083815260cb60205260409020600801805460ff848116630100000090810263ff00000019841617909355919004165b83600080516020615dd98339815191528285604051610e33929190606080825260099082015268542d4449535044454360b81b6080820152602081019290925260ff16604082015260a00190565b60405180910390a250505050565b6033546001600160a01b03163314610e6b5760405162461bcd60e51b8152600401610666906159d5565b610e7361304c565b565b60008115610e985750600082815260cb602052604090206008015460ff16610eb5565b50600082815260cb602052604090206008015462010000900460ff165b92915050565b60026065541415610ede5760405162461bcd60e51b815260040161066690615a55565b600260655560975460ff1615610f065760405162461bcd60e51b8152600401610666906159ab565b600085815260cb602052604090206008810154600160301b900460ff1615610f5c5760405162461bcd60e51b8152602060048201526009602482015268542d505041552d303160b81b6044820152606401610666565b600881015465010000000000900460ff1615610fa65760405162461bcd60e51b8152602060048201526009602482015268542d414f50412d303160b81b6044820152606401610666565b610fdd826004811115610fc957634e487b7160e01b600052602160045260246000fd5b600088815260cc60205260409020906130df565b6110155760405162461bcd60e51b8152602060048201526009602482015268542d49564f542d303160b81b6044820152606401610666565b600881015461103190859060ff808216916101009004166130f7565b6110695760405162461bcd60e51b8152602060048201526009602482015268542d544d44512d303160b81b6044820152606401610666565b600182600481111561108b57634e487b7160e01b600052602160045260246000fd5b14806110b6575060048260048111156110b457634e487b7160e01b600052602160045260246000fd5b145b156110cd576110c8868686868661314a565b611100565b60008260048111156110ef57634e487b7160e01b600052602160045260246000fd5b1415611100576111008685856138fb565b5050600160655550505050565b600054610100900460ff166111285760005460ff161561112c565b303b155b61118f5760405162461bcd60e51b815260206004820152602e60248201527f496e697469616c697a61626c653a20636f6e747261637420697320616c72656160448201526d191e481a5b9a5d1a585b1a5e995960921b6064820152608401610666565b600054610100900460ff161580156111b1576000805461ffff19166101011790555b6111b9613e60565b4260c95560ce80546001600160a01b038086166001600160a01b03199283161790925560cf80549285169290911691909117905580156111ff576000805461ff00191690555b505050565b6033546001600160a01b0316331461122e5760405162461bcd60e51b8152600401610666906159d5565b600181600481111561125057634e487b7160e01b600052602160045260246000fd5b141561128a5760405162461bcd60e51b8152602060048201526009602482015268542d4c4f4e522d303160b81b6044820152606401610666565b6112c18160048111156112ad57634e487b7160e01b600052602160045260246000fd5b600084815260cc6020526040902090613e8f565b5081600080516020615dd983398151915260008360048111156112f457634e487b7160e01b600052602160045260246000fd5b60408051606080825260099082015268542d4f54595052454d60b81b6080820152602081019390935282015260a0015b60405180910390a25050565b611338615164565b600082815260cd602090815260409182902082516101408101845281548152600180830154938201939093526002820154938101939093526003810154606084015260048101546080840152600581015460a084015260068101546001600160a01b03811660c0850152909160e0840191600160a01b900460ff16908111156113d157634e487b7160e01b600052602160045260246000fd5b60018111156113f057634e487b7160e01b600052602160045260246000fd5b81526020016006820160159054906101000a900460ff16600481111561142657634e487b7160e01b600052602160045260246000fd5b600481111561144557634e487b7160e01b600052602160045260246000fd5b81526020016006820160169054906101000a900460ff16600681111561147b57634e487b7160e01b600052602160045260246000fd5b600681111561149a57634e487b7160e01b600052602160045260246000fd5b90525092915050565b6033546001600160a01b031633146114cd5760405162461bcd60e51b8152600401610666906159d5565b600082815260cb602090815260409182902060040180549084905582516060808252600a9082015269150b535253951490535560b21b60808201529182018190529181018390528390600080516020615dd98339815191529060a001610a74565b6033546001600160a01b031633146115585760405162461bcd60e51b8152600401610666906159d5565b600091825260cb60205260409091206008018054911515600160301b0266ff00000000000019909216919091179055565b606060ca8054806020026020016040519081016040528092919081815260200182805480156115d757602002820191906000526020600020905b8154815260200190600101908083116115c3575b5050505050905090565b600081156115fe5750600082815260cb6020526040902054610eb5565b50600082815260cb6020526040902060010154610eb5565b6033546001600160a01b031633146116405760405162461bcd60e51b8152600401610666906159d5565b610e736000613e9b565b600081156116725750600082815260cb6020526040902060080154610100900460ff16610eb5565b50600082815260cb60205260409020600801546301000000900460ff16610eb5565b6033546001600160a01b031633146116be5760405162461bcd60e51b8152600401610666906159d5565b600082815260cb602052604081206008810154909190600160381b900460ff1660078111156116fd57634e487b7160e01b600052602160045260246000fd5b600883018054919250849167ff000000000000001916600160381b83600781111561173857634e487b7160e01b600052602160045260246000fd5b021790555061174683612bcf565b1561193c5760ce54600383015460405163a8160e7960e01b81526001600160a01b039092169163a8160e79916117829160040190815260200190565b60206040518083038186803b15801561179a57600080fd5b505afa1580156117ae573d6000803e3d6000fd5b505050506040513d601f19601f820116820180604052508101906117d2919061538c565b15806118e9575060ce54600283015460405163cf1250f560e01b81526001600160a01b039092169163cf1250f5916118109160040190815260200190565b60206040518083038186803b15801561182857600080fd5b505afa15801561183c573d6000803e3d6000fd5b505050506040513d601f19601f82011682018060405250810190611860919061538c565b60ce54600384015460405163a8160e7960e01b81526001600160a01b039092169163a8160e79916118979160040190815260200190565b60206040518083038186803b1580156118af57600080fd5b505afa1580156118c3573d6000803e3d6000fd5b505050506040513d601f19601f820116820180604052508101906118e7919061538c565b115b6119215760405162461bcd60e51b8152602060048201526009602482015268542d415543542d313160b81b6044820152606401610666565b61192c846004611b8f565b61193784600061152e565b6119e5565b600283600781111561195e57634e487b7160e01b600052602160045260246000fd5b141561196f5761192c846004611204565b600583600781111561199157634e487b7160e01b600052602160045260246000fd5b14806119bc575060048360078111156119ba57634e487b7160e01b600052602160045260246000fd5b145b156119cc5761193784600161152e565b6119d583613eed565b156119e5576119e584600061152e565b83600080516020615dd983398151915282856007811115611a1657634e487b7160e01b600052602160045260246000fd5b604080516060808252600d908201526c542d41554354494f4e4d4f444560981b6080820152602081019390935282015260a001610e33565b600081815260cc6020526040812060609190611a6990613f1f565b905060008167ffffffffffffffff811115611a9457634e487b7160e01b600052604160045260246000fd5b604051908082528060200260200182016040528015611abd578160200160208202803683370190505b50905060005b82811015611b2057600085815260cc60205260409020611ae39082613f29565b828281518110611b0357634e487b7160e01b600052603260045260246000fd5b602090810291909101015280611b1881615d06565b915050611ac3565b509392505050565b6033546001600160a01b03163314611b525760405162461bcd60e51b8152600401610666906159d5565b610e73613f35565b600081806001611b6a8287615b44565b611b749190615caf565b611b7e9190615b81565b611b889190615c90565b9392505050565b6033546001600160a01b03163314611bb95760405162461bcd60e51b8152600401610666906159d5565b611bf0816004811115611bdc57634e487b7160e01b600052602160045260246000fd5b600084815260cc6020526040902090612a30565b5081600080516020615dd98339815191526000836004811115611c2357634e487b7160e01b600052602160045260246000fd5b60408051606080825260099082015268150b53d5165410511160ba1b6080820152602081019390935282015260a001611324565b60026065541415611c7a5760405162461bcd60e51b815260040161066690615a55565b600260655560975460ff1615611ca25760405162461bcd60e51b8152600401610666906159ab565b600081815260cd602052604090208054611cea5760405162461bcd60e51b8152602060048201526009602482015268542d454f49442d303160b81b6044820152606401610666565b60068101546001600160a01b03163314611d325760405162461bcd60e51b8152602060048201526009602482015268542d4f4f43432d303160b81b6044820152606401610666565b80600301548160040154108015611dad57506002600682810154600160b01b900460ff1690811115611d7457634e487b7160e01b600052602160045260246000fd5b1480611dad57506000600682810154600160b01b900460ff1690811115611dab57634e487b7160e01b600052602160045260246000fd5b145b611de55760405162461bcd60e51b8152602060048201526009602482015268542d4f4145582d303160b81b6044820152606401610666565b600083815260cb602052604090206008810154600160301b900460ff1615611e3b5760405162461bcd60e51b81526020600482015260096024820152682a16a82820aa96981960b91b6044820152606401610666565b610c66848360000154612c23565b6033546001600160a01b03163314611e735760405162461bcd60e51b8152600401610666906159d5565b600083815260cb602052604090206008810154611ea490849060ff62010000820481169163010000009004166130f7565b611edc5760405162461bcd60e51b81526020600482015260096024820152682a16a0aaa1aa16981960b91b6044820152606401610666565b60056008820154600160381b900460ff166007811115611f0c57634e487b7160e01b600052602160045260246000fd5b14611f4d5760008211611f4d5760405162461bcd60e51b81526020600482015260096024820152682a16a0aaa1aa16989960b91b6044820152606401610666565b600981018054600a830154918590559060056008840154600160381b900460ff166007811115611f8d57634e487b7160e01b600052602160045260246000fd5b1415611f9857600093505b600a8301849055604080516060808252600e908201526d542d41554354494f4e505249434560901b6080820152602081018490529081018690528690600080516020615dd98339815191529060a00160405180910390a2604080516060808252600f908201526e150b505550d51253d39253951410d5608a1b6080820152602081018390529081018590528690600080516020615dd98339815191529060a00160405180910390a2505050505050565b600061205582600a615bd8565b61206083600a615bd8565b611b7e9085615b81565b6033546001600160a01b031633146120945760405162461bcd60e51b8152600401610666906159d5565b600091825260cb60205260409091206008018054911515650100000000000265ff000000000019909216919091179055565b60ce54600086815260cb6020526040808220600201549051635d508da960e11b8152600481019190915260248101879052604481018690526064810185905260848101849052600160a482015260609283929182916001600160a01b03169063baa11b529060c401610cda565b6033546001600160a01b0316331461215d5760405162461bcd60e51b8152600401610666906159d5565b600082815260cb6020526040902060056008820154600160381b900460ff16600781111561219b57634e487b7160e01b600052602160045260246000fd5b146121d45760405162461bcd60e51b8152602060048201526009602482015268542d415543542d303160b81b6044820152606401610666565b600081600901541180156121ea5750600a810154155b6122225760405162461bcd60e51b8152602060048201526009602482015268542d415543542d303360b81b6044820152606401610666565b61222a615164565b600382015460ce5460405163a8160e7960e01b8152600481018390526000929183916001600160a01b039091169063a8160e799060240160206040518083038186803b15801561227957600080fd5b505afa15801561228d573d6000803e3d6000fd5b505050506040513d601f19601f820116820180604052508101906122b1919061538c565b60ce54604051637ed06acb60e11b815260048101859052602481018390529192506000916001600160a01b039091169063fda0d5969060440160206040518083038186803b15801561230257600080fd5b505afa158015612316573d6000803e3d6000fd5b505050506040513d601f19601f8201168201806040525081019061233a919061538c565b9050801561241d5761234b81611330565b9450600061235886613f8d565b905061236589878a613fa3565b9450846123d25760ce5460405163428a52cb60e01b815260048101869052602481018590526001600160a01b039091169063428a52cb90604401600060405180830381600087803b1580156123b957600080fd5b505af11580156123cd573d6000803e3d6000fd5b505050505b848114156124095788600080516020615dd9833981519152600160006040516123fc929190615978565b60405180910390a2612417565b61241789876000015161442e565b50612448565b87600080516020615dd98339815191526001600060405161243f929190615978565b60405180910390a25b5050505050505050565b600260655414156124755760405162461bcd60e51b815260040161066690615a55565b600260655560975460ff161561249d5760405162461bcd60e51b8152600401610666906159ab565b600084815260cb602052604090206008810154600190600160381b900460ff1660078111156124dc57634e487b7160e01b600052602160045260246000fd5b60ff16116125185760405162461bcd60e51b8152602060048201526009602482015268542d415543542d313360b81b6044820152606401610666565b600084815260cd6020526040902080546125605760405162461bcd60e51b8152602060048201526009602482015268542d454f49442d303160b81b6044820152606401610666565b60068101546001600160a01b031633146125a85760405162461bcd60e51b8152602060048201526009602482015268542d4f4f43432d303160b81b6044820152606401610666565b8060030154816004015410801561262357506002600682810154600160b01b900460ff16908111156125ea57634e487b7160e01b600052602160045260246000fd5b148061262357506000600682810154600160b01b900460ff169081111561262157634e487b7160e01b600052602160045260246000fd5b145b61265b5760405162461bcd60e51b8152602060048201526009602482015268542d4f4145582d303160b81b6044820152606401610666565b6008820154600160301b900460ff16156126a35760405162461bcd60e51b8152602060048201526009602482015268150b541410554b4c0d60ba1b6044820152606401610666565b6126b1868260000154612c23565b60068101546111009087908690869060ff600160a01b8204811691600160a81b90041661314a565b6033546001600160a01b031633146127035760405162461bcd60e51b8152600401610666906159d5565b600082815260cb602090815260409182902060050180549084905582516060808252600a9082015269150b535056151490535560b21b60808201529182018190529181018390528390600080516020615dd98339815191529060a001610a74565b600081815260cb6020526040812054819015610eb55750600192915050565b600081815260cb6020526040812060088101548291829182918291600160381b900460ff1660078111156127c757634e487b7160e01b600052602160045260246000fd5b6009820154600a830154919750955093506127106127e58582615caf565b82600901546127f49190615c90565b6127fe9190615b81565b925061271081600a01546127106128159190615b44565b82600901546128249190615c90565b61282e9190615b81565b91505091939590929450565b6033546001600160a01b031633146128645760405162461bcd60e51b8152600401610666906159d5565b6001600160a01b0381166128c95760405162461bcd60e51b815260206004820152602660248201527f4f776e61626c653a206e6577206f776e657220697320746865207a65726f206160448201526564647265737360d01b6064820152608401610666565b6128d281613e9b565b50565b6033546001600160a01b031633146128ff5760405162461bcd60e51b8152600401610666906159d5565b600083815260cb60205260408120600601549082600181111561293257634e487b7160e01b600052602160045260246000fd5b141561299f57600084815260cb602090815260409182902060060185905581516060808252600b908201526a542d4d414b45525241544560a81b60808201529081018390529081018490528490600080516020615dd98339815191529060a00160405180910390a2612a2a565b60018260018111156129c157634e487b7160e01b600052602160045260246000fd5b1415612a2a5750600083815260cb602090815260409182902060070180549085905582516060808252600b908201526a542d54414b45525241544560a81b60808201529182018190529181018490528490600080516020615dd98339815191529060a001610e33565b50505050565b6000611b8883836144d2565b606060005b60208160ff16108015612a835750828160ff1660208110612a7257634e487b7160e01b600052603260045260246000fd5b1a60f81b6001600160f81b03191615155b15612a9a5780612a9281615d21565b915050612a41565b60008160ff1667ffffffffffffffff811115612ac657634e487b7160e01b600052604160045260246000fd5b6040519080825280601f01601f191660200182016040528015612af0576020820181803683370190505b509050600091505b60208260ff16108015612b3a5750838260ff1660208110612b2957634e487b7160e01b600052603260045260246000fd5b1a60f81b6001600160f81b03191615155b15611b8857838260ff1660208110612b6257634e487b7160e01b600052603260045260246000fd5b1a60f81b818360ff1681518110612b8957634e487b7160e01b600052603260045260246000fd5b60200101906001600160f81b031916908160001a90535081612baa81615d21565b925050612af8565b80516000908290612bc65750600092915050565b50506020015190565b600080826007811115612bf257634e487b7160e01b600052602160045260246000fd5b1480610eb5575060015b826007811115612c1c57634e487b7160e01b600052602160045260246000fd5b1492915050565b600082815260cb6020908152604080832084845260cd909252822060068101805460ff60b01b1916600160b21b179081905591929091600160a01b900460ff166001811115612c8257634e487b7160e01b600052602160045260246000fd5b1415612ed75760ce546002830154600183015460405163525422cd60e01b815260048101929092526024820186905260448201526001600160a01b039091169063525422cd90606401600060405180830381600087803b158015612ce557600080fd5b505af1158015612cf9573d6000803e3d6000fd5b505060cf546006840154600186810154818701546040805161014081018252895481526020810183905260028a0154918101919091526003808a0154606083015260048a0154608083015260058a015460a08301526001600160a01b0380871660c0840181905297169850635a8c6596975095949293612e81938d9392612e7c9290918c9160e0840191600160a01b900460ff1690811115612dab57634e487b7160e01b600052602160045260246000fd5b6001811115612dca57634e487b7160e01b600052602160045260246000fd5b81526020016006820160159054906101000a900460ff166004811115612e0057634e487b7160e01b600052602160045260246000fd5b6004811115612e1f57634e487b7160e01b600052602160045260246000fd5b81526020016006820160169054906101000a900460ff166006811115612e5557634e487b7160e01b600052602160045260246000fd5b6006811115612e7457634e487b7160e01b600052602160045260246000fd5b905250613f8d565b614521565b6040518563ffffffff1660e01b8152600401612ea09493929190615946565b600060405180830381600087803b158015612eba57600080fd5b505af1158015612ece573d6000803e3d6000fd5b5050505061303e565b60ce546003830154600183015460405163525422cd60e01b815260048101929092526024820186905260448201526001600160a01b039091169063525422cd90606401600060405180830381600087803b158015612f3457600080fd5b505af1158015612f48573d6000803e3d6000fd5b505060cf54600684015485546040805161014081018252875481526001808901546020830152600289015492820192909252600380890154606083015260048901546080830152600589015460a08301526001600160a01b0380861660c0840181905296169750635a8c659696509493612fec92899160e0840191600160a01b90910460ff1690811115612dab57634e487b7160e01b600052602160045260246000fd5b6040518563ffffffff1660e01b815260040161300b9493929190615946565b600060405180830381600087803b15801561302557600080fd5b505af1158015613039573d6000803e3d6000fd5b505050505b612a2a84826000015461442e565b60975460ff166130955760405162461bcd60e51b815260206004820152601460248201527314185d5cd8589b194e881b9bdd081c185d5cd95960621b6044820152606401610666565b6097805460ff191690557f5db9ee0a495bf2e6ff9c91a7834c1ba4fdd244a5e8aa4e537bd38aeae4b073aa335b6040516001600160a01b03909116815260200160405180910390a1565b60008181526001830160205260408120541515611b88565b60006131038284615cc6565b61310e90600a615be4565b61311984600a615be4565b6131239086615d41565b61312d9190615d41565b6131379085615caf565b6131419085615caf565b15949350505050565b600085815260cb60205260409020600881015461317b90869060ff62010000820481169163010000009004166130f7565b6131b35760405162461bcd60e51b8152602060048201526009602482015268542d544d44502d303160b81b6044820152606401610666565b60088101546000906131c99060ff16600a615be4565b6131d38688615c90565b6131dd9190615b81565b9050816004015481101561321f5760405162461bcd60e51b81526020600482015260096024820152682a16a62a26aa16981960b91b6044820152606401610666565b816005015481111561325f5760405162461bcd60e51b81526020600482015260096024820152682a16a6aa26aa16981960b91b6044820152606401610666565b600061326961455d565b600081815260cd602052604090208181556006810180546001600160a01b0319811633908117835560018085018d9055600385018c90559495509293899360ff60a01b19166001600160a81b03199092169190911790600160a01b9084908111156132e457634e487b7160e01b600052602160045260246000fd5b021790555060068101805486919060ff60a81b1916600160a81b83600481111561331e57634e487b7160e01b600052602160045260246000fd5b0217905550600086600181111561334557634e487b7160e01b600052602160045260246000fd5b14156135fe57600884015461336390600160381b900460ff16612bcf565b156134ca5760408051610140810182528254815260018084015460208301526002840154928201929092526003830154606082015260048301546080820152600583015460a082015260068301546001600160a01b03811660c08301526134c7928c9291859160e0840191600160a01b900460ff16908111156133f657634e487b7160e01b600052602160045260246000fd5b600181111561341557634e487b7160e01b600052602160045260246000fd5b81526020016006820160159054906101000a900460ff16600481111561344b57634e487b7160e01b600052602160045260246000fd5b600481111561346a57634e487b7160e01b600052602160045260246000fd5b81526020016006820160169054906101000a900460ff1660068111156134a057634e487b7160e01b600052602160045260246000fd5b60068111156134bf57634e487b7160e01b600052602160045260246000fd5b90525061459f565b96505b6000871180156134f9575060018560048111156134f757634e487b7160e01b600052602160045260246000fd5b145b156135f95760ce54600285015482546001840154604051635a57c0bf60e11b81526004810193909352602483019190915260448201526001600160a01b039091169063b4af817e90606401600060405180830381600087803b15801561355e57600080fd5b505af1158015613572573d6000803e3d6000fd5b505060cf54600684015460018801546001600160a01b039283169450635a8c65969350600492909116906135a78e8e8e614521565b6040518563ffffffff1660e01b81526004016135c69493929190615946565b600060405180830381600087803b1580156135e057600080fd5b505af11580156135f4573d6000803e3d6000fd5b505050505b613898565b600884015461361690600160381b900460ff16612bcf565b1561377d5760408051610140810182528254815260018084015460208301526002840154928201929092526003830154606082015260048301546080820152600583015460a082015260068301546001600160a01b03811660c083015261377a928c9291859160e0840191600160a01b900460ff16908111156136a957634e487b7160e01b600052602160045260246000fd5b60018111156136c857634e487b7160e01b600052602160045260246000fd5b81526020016006820160159054906101000a900460ff1660048111156136fe57634e487b7160e01b600052602160045260246000fd5b600481111561371d57634e487b7160e01b600052602160045260246000fd5b81526020016006820160169054906101000a900460ff16600681111561375357634e487b7160e01b600052602160045260246000fd5b600681111561377257634e487b7160e01b600052602160045260246000fd5b9052506148e7565b96505b6000871180156137ac575060018560048111156137aa57634e487b7160e01b600052602160045260246000fd5b145b156138985760ce54600385015482546001840154604051635a57c0bf60e11b81526004810193909352602483019190915260448201526001600160a01b039091169063b4af817e90606401600060405180830381600087803b15801561381157600080fd5b505af1158015613825573d6000803e3d6000fd5b505060cf5460068401548754604051632d4632cb60e11b81526001600160a01b039384169550635a8c65969450613865936004931691908d908401615946565b600060405180830381600087803b15801561387f57600080fd5b505af1158015613893573d6000803e3d6000fd5b505050505b60048560048111156138ba57634e487b7160e01b600052602160045260246000fd5b1480156138c75750600087115b156138e25760068101805460ff60b01b1916600360b11b1790555b6138f089826000015461442e565b505050505050505050565b600083815260cb60205260409020600881015461392190600160381b900460ff16612bcf565b6139595760405162461bcd60e51b8152602060048201526009602482015268150b505550d50b4c0d60ba1b6044820152606401610666565b600080808085600181111561397e57634e487b7160e01b600052602160045260246000fd5b1415613a445750600383015460ce5460405163a8160e7960e01b8152600481018390526001600160a01b039091169063a8160e799060240160206040518083038186803b1580156139ce57600080fd5b505afa1580156139e2573d6000803e3d6000fd5b505050506040513d601f19601f82011682018060405250810190613a06919061538c565b6008850154909350606490613a2690640100000000900460ff1682615b5c565b613a339060ff1685615c90565b613a3d9190615b81565b9150613b00565b50600283015460ce5460405163cf1250f560e01b8152600481018390526001600160a01b039091169063cf1250f59060240160206040518083038186803b158015613a8e57600080fd5b505afa158015613aa2573d6000803e3d6000fd5b505050506040513d601f19601f82011682018060405250810190613ac6919061538c565b6008850154909350606490613ae690640100000000900460ff1682615cc6565b613af39060ff1685615c90565b613afd9190615b81565b91505b6008840154600090613b169060ff16600a615be4565b613b208886615c90565b613b2a9190615b81565b90508460040154811015613b6c5760405162461bcd60e51b8152602060048201526009602482015268542d4c544d542d303160b81b6044820152606401610666565b8460050154811115613bac5760405162461bcd60e51b8152602060048201526009602482015268542d4d544d542d303160b81b6044820152606401610666565b6000613bb661455d565b600081815260cd602052604090208181556006810180546001600160a01b0319811633908117835560018085018a9055600385018e905594955092938b9360ff60a01b19166001600160a81b03199092169190911790600160a01b908490811115613c3157634e487b7160e01b600052602160045260246000fd5b0217905550600080896001811115613c5957634e487b7160e01b600052602160045260246000fd5b1415613cf45760408051610140810182528354815260018085015460208301526002850154928201929092526003840154606082015260048401546080820152600584015460a082015260068401546001600160a01b03811660c0830152613ced928e9291869160e0840191600160a01b900460ff16908111156133f657634e487b7160e01b600052602160045260246000fd5b9050613d85565b60408051610140810182528354815260018085015460208301526002850154928201929092526003840154606082015260048401546080820152600584015460a082015260068401546001600160a01b03811660c0830152613d82928e9291869160e0840191600160a01b900460ff16908111156136a957634e487b7160e01b600052602160045260246000fd5b90505b60ce54604051635b6e613960e11b815260048101879052602481018890526001600160a01b039091169063b6dcc2729060440160206040518083038186803b158015613dd057600080fd5b505afa158015613de4573d6000803e3d6000fd5b505050506040513d601f19601f82011682018060405250810190613e089190615358565b158015613e155750600081115b15613e3f578154600090815260cd60205260409020600601805460ff60b01b1916600360b11b1790555b600060018301558154613e53908c9061442e565b5050505050505050505050565b600054610100900460ff16613e875760405162461bcd60e51b815260040161066690615a0a565b610e73614c1a565b6000611b888383614c4a565b603380546001600160a01b038381166001600160a01b0319831681179093556040519116919082907f8be0079c531659141344cd1fd0a4f28419497f9722a3daafe3b4186f6b6457e090600090a35050565b60006007826007811115613f1157634e487b7160e01b600052602160045260246000fd5b1480610eb557506003612bfc565b6000610eb5825490565b6000611b888383614d67565b60975460ff1615613f585760405162461bcd60e51b8152600401610666906159ab565b6097805460ff191660011790557f62e78cea01bee320cd4e420270b5ea74000d11b0c9f74754ebdbfc544b05a2586130c23390565b600081608001518260600151610eb59190615caf565b600083815260cb6020526040808220600281015460ce54925163cf1250f560e01b8152600481018290529192909184916001600160a01b03169063cf1250f59060240160206040518083038186803b158015613ffe57600080fd5b505afa158015614012573d6000803e3d6000fd5b505050506040513d601f19601f82011682018060405250810190614036919061538c565b60ce54604051637ed06acb60e11b815260048101859052602481018390529192506000916001600160a01b039091169063fda0d5969060440160206040518083038186803b15801561408757600080fd5b505afa15801561409b573d6000803e3d6000fd5b505050506040513d601f19601f820116820180604052508101906140bf919061538c565b90506140c9615164565b60005b60006140d78a613f8d565b1180156140e357508215155b80156140f3575083896020015111155b8015614102575060008860ff16115b156144175761411083611330565b60ce549092506001600160a01b031663dec5d8fb868661412f8d613f8d565b61413887613f8d565b6040516001600160e01b031960e087901b1681526004810194909452602484019290925260448301526064820152608401602060405180830381600087803b15801561418357600080fd5b505af1158015614197573d6000803e3d6000fd5b505050506040513d601f19601f820116820180604052508101906141bb919061538c565b60cf5460c08b01518854604051632d4632cb60e11b81529394506001600160a01b0390921692635a8c6596926141fb926003929091908790600401615946565b600060405180830381600087803b15801561421557600080fd5b505af1158015614229573d6000803e3d6000fd5b5050505061423e8a838b896009015485614d9f565b8560090154826020015111156142ee5760cf60009054906101000a90046001600160a01b03166001600160a01b0316635a8c659660038460c00151896001015461429c8f8c6009015489602001516142969190615caf565b88614521565b6040518563ffffffff1660e01b81526004016142bb9493929190615946565b600060405180830381600087803b1580156142d557600080fd5b505af11580156142e9573d6000803e3d6000fd5b505050505b80896080018181516143009190615b44565b90525060ce5460405163cf1250f560e01b8152600481018790526001600160a01b039091169063cf1250f59060240160206040518083038186803b15801561434757600080fd5b505afa15801561435b573d6000803e3d6000fd5b505050506040513d601f19601f8201168201806040525081019061437f919061538c565b60ce54604051637ed06acb60e11b815260048101889052602481018390529195506001600160a01b03169063fda0d5969060440160206040518083038186803b1580156143cb57600080fd5b505afa1580156143df573d6000803e3d6000fd5b505050506040513d601f19601f82011682018060405250810190614403919061538c565b92508761440f81615ce9565b9850506140cc565b61442089613f8d565b9a9950505050505050505050565b600081815260cd6020526040908190206006810154815460018301546002840154600385015460048601546005870154975196978a976001600160a01b038816977f098b853911e7f3bfdabd518ff0da24d239da72c14ee657d87495765eade250d6976144c597909690959094909360ff600160a01b8404811694600160a81b8504821694600160b01b90049091169291906158e7565b60405180910390a3505050565b600081815260018301602052604081205461451957508154600181810184556000848152602080822090930184905584548482528286019093526040902091909155610eb5565b506000610eb5565b600083815260cb60205260408120600801546145419060ff16600a615be4565b61454b8385615c90565b6145559190615b81565b949350505050565b60c980546000918261456e83615d06565b9190505560405160200161458491815260200190565b60405160208183030381529060405280519060200120905090565b600082815260cb60205260408082206003015460ce54915163a8160e7960e01b815260048101829052909183916001600160a01b039091169063a8160e799060240160206040518083038186803b1580156145f957600080fd5b505afa15801561460d573d6000803e3d6000fd5b505050506040513d601f19601f82011682018060405250810190614631919061538c565b60ce54604051637ed06acb60e11b815260048101859052602481018390529192506000916001600160a01b039091169063fda0d5969060440160206040518083038186803b15801561468257600080fd5b505afa158015614696573d6000803e3d6000fd5b505050506040513d601f19601f820116820180604052508101906146ba919061538c565b90506146c4615164565b60005b60006146d288613f8d565b1180156146de57508215155b80156146ee575083876020015110155b156148d2576146fc83611330565b60ce549092506001600160a01b031663dec5d8fb868661471b8b613f8d565b61472487613f8d565b6040516001600160e01b031960e087901b1681526004810194909452602484019290925260448301526064820152608401602060405180830381600087803b15801561476f57600080fd5b505af1158015614783573d6000803e3d6000fd5b505050506040513d601f19601f820116820180604052508101906147a7919061538c565b90506147b68883898785614d9f565b80876080018181516147c89190615b44565b90525060ce5460405163a8160e7960e01b8152600481018790526001600160a01b039091169063a8160e799060240160206040518083038186803b15801561480f57600080fd5b505afa158015614823573d6000803e3d6000fd5b505050506040513d601f19601f82011682018060405250810190614847919061538c565b60ce54604051637ed06acb60e11b815260048101889052602481018390529195506001600160a01b03169063fda0d5969060440160206040518083038186803b15801561489357600080fd5b505afa1580156148a7573d6000803e3d6000fd5b505050506040513d601f19601f820116820180604052508101906148cb919061538c565b92506146c7565b6148db87613f8d565b98975050505050505050565b600082815260cb60205260408082206002015460ce54915163cf1250f560e01b815260048101829052909183916001600160a01b039091169063cf1250f59060240160206040518083038186803b15801561494157600080fd5b505afa158015614955573d6000803e3d6000fd5b505050506040513d601f19601f82011682018060405250810190614979919061538c565b60ce54604051637ed06acb60e11b815260048101859052602481018390529192506000916001600160a01b039091169063fda0d5969060440160206040518083038186803b1580156149ca57600080fd5b505afa1580156149de573d6000803e3d6000fd5b505050506040513d601f19601f82011682018060405250810190614a02919061538c565b9050614a0c615164565b60005b6000614a1a88613f8d565b118015614a2657508215155b8015614a36575083876020015111155b156148d257614a4483611330565b60ce549092506001600160a01b031663dec5d8fb8686614a638b613f8d565b614a6c87613f8d565b6040516001600160e01b031960e087901b1681526004810194909452602484019290925260448301526064820152608401602060405180830381600087803b158015614ab757600080fd5b505af1158015614acb573d6000803e3d6000fd5b505050506040513d601f19601f82011682018060405250810190614aef919061538c565b9050614afe8883898785614d9f565b8087608001818151614b109190615b44565b90525060ce5460405163cf1250f560e01b8152600481018790526001600160a01b039091169063cf1250f59060240160206040518083038186803b158015614b5757600080fd5b505afa158015614b6b573d6000803e3d6000fd5b505050506040513d601f19601f82011682018060405250810190614b8f919061538c565b60ce54604051637ed06acb60e11b815260048101889052602481018390529195506001600160a01b03169063fda0d5969060440160206040518083038186803b158015614bdb57600080fd5b505afa158015614bef573d6000803e3d6000fd5b505050506040513d601f19601f82011682018060405250810190614c13919061538c565b9250614a0f565b600054610100900460ff16614c415760405162461bcd60e51b815260040161066690615a0a565b610e7333613e9b565b60008181526001830160205260408120548015614d5d576000614c6e600183615caf565b8554909150600090614c8290600190615caf565b9050818114614d03576000866000018281548110614cb057634e487b7160e01b600052603260045260246000fd5b9060005260206000200154905080876000018481548110614ce157634e487b7160e01b600052603260045260246000fd5b6000918252602080832090910192909255918252600188019052604090208390555b8554869080614d2257634e487b7160e01b600052603160045260246000fd5b600190038181906000526020600020016000905590558560010160008681526020019081526020016000206000905560019350505050610eb5565b6000915050610eb5565b6000826000018281548110614d8c57634e487b7160e01b600052603260045260246000fd5b9060005260206000200154905092915050565b600085815260cb6020526040812085516006820154919291614dc691899187908790614f2e565b90506000614ddf88876000015187878760070154614f2e565b60cf5460c0880151855460018701549394506001600160a01b03909216926320764d9e928b929189614e128f8d83614521565b89896040518963ffffffff1660e01b8152600401614e37989796959493929190615a9b565b600060405180830381600087803b158015614e5157600080fd5b505af1158015614e65573d6000803e3d6000fd5b5050885188518b93507fd81b43a97d815f132743aedcecc658f0e853bba91d0109f8fc82fe469bc2b0ae925088918891878760008f60e001516001811115614ebd57634e487b7160e01b600052602160045260246000fd5b14614ec9576000614ecc565b60015b60c98054906000614edc83615d06565b90915550604080519889526020890197909752958701949094526060860192909252608085015260a0840152151560c083015260e08201526101000160405180910390a261244888886000015161442e565b600085815260cb6020908152604080832087845260cd90925282206004600682810154600160b01b900460ff1690811115614f7957634e487b7160e01b600052602160045260246000fd5b1415614fb35760405162461bcd60e51b8152602060048201526009602482015268542d4f4143412d303160b81b6044820152606401610666565b84816004016000828254614fc79190615b44565b90915550506003810154600482015411156150105760405162461bcd60e51b8152602060048201526009602482015268542d435146412d303160b81b6044820152606401610666565b8060040154816003015414615026576002615029565b60035b8160060160166101000a81548160ff0219169083600681111561505c57634e487b7160e01b600052602160045260246000fd5b0217905550600061506e898888614521565b9050808260020160008282546150849190615b44565b9091555060009050806006840154600160a01b900460ff1660018111156150bb57634e487b7160e01b600052602160045260246000fd5b14615108576151036127106150d08885615c90565b6150da9190615b81565b60088601546150fb9060ff6301000000820481169162010000900416615cc6565b60ff16612048565b61513b565b61513b612710615118888a615c90565b6151229190615b81565b60088601546150fb9060ff610100820481169116615cc6565b9050808360050160008282546151519190615b44565b90915550909a9950505050505050505050565b60405180610140016040528060008019168152602001600081526020016000815260200160008152602001600081526020016000815260200160006001600160a01b03168152602001600060018111156151ce57634e487b7160e01b600052602160045260246000fd5b8152602001600081526020016000905290565b80356001600160a01b03811681146151f857600080fd5b919050565b600082601f83011261520d578081fd5b8151602061522261521d83615b20565b615aef565b80838252828201915082860187848660051b8901011115615241578586fd5b855b8581101561525f57815184529284019290840190600101615243565b5090979650505050505050565b8035600881106151f857600080fd5b8035600581106151f857600080fd5b803560ff811681146151f857600080fd5b6000602082840312156152ac578081fd5b611b88826151e1565b600080604083850312156152c7578081fd5b6152d0836151e1565b91506152de602084016151e1565b90509250929050565b600080600080608085870312156152fc578182fd5b845167ffffffffffffffff80821115615313578384fd5b61531f888389016151fd565b95506020870151915080821115615334578384fd5b50615341878288016151fd565b604087015160609097015195989097509350505050565b600060208284031215615369578081fd5b8151611b8881615dbd565b600060208284031215615385578081fd5b5035919050565b60006020828403121561539d578081fd5b5051919050565b600080604083850312156153b6578182fd5b8235915060208084013567ffffffffffffffff8111156153d4578283fd5b8401601f810186136153e4578283fd5b80356153f261521d82615b20565b80828252848201915084840189868560051b8701011115615411578687fd5b8694505b83851015615433578035835260019490940193918501918501615415565b5080955050505050509250929050565b60008060408385031215615455578182fd5b82359150602083013561546781615dbd565b809150509250929050565b60008060408385031215615484578182fd5b50508035926020909101359150565b600080600080608085870312156154a8578182fd5b5050823594602084013594506040840135936060013592509050565b6000806000806000806000806000806101408b8d0312156154e3578788fd5b8a35995060208b013598506154fa60408c0161528a565b975061550860608c0161528a565b965060808b0135955061551d60a08c0161528a565b945061552b60c08c0161528a565b935060e08b013592506101008b013591506155496101208c0161526c565b90509295989b9194979a5092959850565b6000806040838503121561556c578182fd5b823591506152de6020840161526c565b6000806040838503121561558e578182fd5b823591506152de6020840161527b565b6000806000606084860312156155b2578081fd5b833592506020840135915060408401356155cb81615dcb565b809150509250925092565b6000806000606084860312156155ea578081fd5b505081359360208301359350604090920135919050565b600080600080600060a08688031215615618578283fd5b853594506020860135935060408601359250606086013561563881615dcb565b91506156466080870161527b565b90509295509295909350565b600080600080600060a08688031215615669578283fd5b505083359560208501359550604085013594606081013594506080013592509050565b6000806040838503121561569e578182fd5b823591506152de6020840161528a565b6000806000606084860312156156c2578081fd5b833592506156d26020850161528a565b915060408401356155cb81615dbd565b6000815180845260208085019450808401835b83811015615711578151875295820195908201906001016156f5565b509495945050505050565b6002811061572c5761572c615d81565b9052565b6007811061572c5761572c615d81565b61572c81615dad565b60008151815b81811015615769576020818501810151868301520161574f565b818111156157775782828601525b509290920192915050565b805182526020810151602083015260408101516040830152606081015160608301526080810151608083015260a081015160a083015260c08101516157d260c08401826001600160a01b03169052565b5060e08101516157e560e084018261571c565b50610100808201516157f982850182615740565b505061012080820151612a2a82850182615730565b600061581a8284615749565b672d425559424f4f4b60c01b81526008019392505050565b600061583e8284615749565b682d53454c4c424f4f4b60b81b81526009019392505050565b6020808252825182820181905260009190848201906040850190845b8181101561588f57835183529284019291840191600101615873565b50909695505050505050565b602081526000611b8860208301846156e2565b6080815260006158c160808301876156e2565b82810360208401526158d381876156e2565b604084019590955250506060015292915050565b6000610120820190508a8252896020830152886040830152876060830152615912608083018861571c565b61591b86615dad565b8560a083015261592e60c0830186615730565b60e08201939093526101000152979650505050505050565b6080810161595386615dad565b9481526001600160a01b03939093166020840152604083019190915260609091015290565b6060808252600c908201526b0a85a82aa86a85a9a82a886960a31b60808201526020810192909252604082015260a00190565b60208082526010908201526f14185d5cd8589b194e881c185d5cd95960821b604082015260600190565b6020808252818101527f4f776e61626c653a2063616c6c6572206973206e6f7420746865206f776e6572604082015260600190565b6020808252602b908201527f496e697469616c697a61626c653a20636f6e7472616374206973206e6f74206960408201526a6e697469616c697a696e6760a81b606082015260800190565b6020808252601f908201527f5265656e7472616e637947756172643a207265656e7472616e742063616c6c00604082015260600190565b6101408101610eb58284615782565b6102208101615aaa828b615782565b6001600160a01b03989098166101408201526101608101969096526101808601949094526101a08501929092526101c08401526101e083015261020090910152919050565b604051601f8201601f1916810167ffffffffffffffff81118282101715615b1857615b18615d97565b604052919050565b600067ffffffffffffffff821115615b3a57615b3a615d97565b5060051b60200190565b60008219821115615b5757615b57615d55565b500190565b600060ff821660ff84168060ff03821115615b7957615b79615d55565b019392505050565b600082615b9057615b90615d6b565b500490565b600181815b80851115615bd0578160001904821115615bb657615bb6615d55565b80851615615bc357918102915b93841c9390800290615b9a565b509250929050565b6000611b888383615bef565b6000611b8860ff8416835b600082615bfe57506001610eb5565b81615c0b57506000610eb5565b8160018114615c215760028114615c2b57615c47565b6001915050610eb5565b60ff841115615c3c57615c3c615d55565b50506001821b610eb5565b5060208310610133831016604e8410600b8410161715615c6a575081810a610eb5565b615c748383615b95565b8060001904821115615c8857615c88615d55565b029392505050565b6000816000190483118215151615615caa57615caa615d55565b500290565b600082821015615cc157615cc1615d55565b500390565b600060ff821660ff841680821015615ce057615ce0615d55565b90039392505050565b600060ff821680615cfc57615cfc615d55565b6000190192915050565b6000600019821415615d1a57615d1a615d55565b5060010190565b600060ff821660ff811415615d3857615d38615d55565b60010192915050565b600082615d5057615d50615d6b565b500690565b634e487b7160e01b600052601160045260246000fd5b634e487b7160e01b600052601260045260246000fd5b634e487b7160e01b600052602160045260246000fd5b634e487b7160e01b600052604160045260246000fd5b600581106128d2576128d2615d81565b80151581146128d257600080fd5b600281106128d257600080fdfed7954b5cb5051e6b217917cfdaa6866799f3e396a36fcb401b65f59f74caed27a264697066735822122085c685752149fc6d2e866c5c2b25250699b49920b0e8677ada2014aaaa77296e64736f6c63430008040033",
  "linkReferences": {},
  "deployedLinkReferences": {}
}