{
  "_format": "hh-sol-artifact-1",
  "contractName": "DexalotMM",
  "sourceName": "contracts/DexalotMM.sol",
  "abi": [
    {
      "inputs": [
        {
          "internalType": "address",
          "name": "_joetroller",
          "type": "address"
        }
      ],
      "stateMutability": "nonpayable",
      "type": "constructor"
    },
    {
      "inputs": [],
      "name": "greet",
      "outputs": [
        {
          "internalType": "string",
          "name": "",
          "type": "string"
        }
      ],
      "stateMutability": "view",
      "type": "function"
    },
    {
      "inputs": [],
      "name": "joetroller",
      "outputs": [
        {
          "internalType": "address",
          "name": "",
          "type": "address"
        }
      ],
      "stateMutability": "view",
      "type": "function"
    },
    {
      "inputs": [
        {
          "internalType": "string",
          "name": "_greeting",
          "type": "string"
        }
      ],
      "name": "setGreeting",
      "outputs": [],
      "stateMutability": "nonpayable",
      "type": "function"
    }
  ],
  "bytecode": "0x608060405234801561001057600080fd5b5060405161058938038061058983398101604081905261002f91610054565b600080546001600160a01b0319166001600160a01b0392909216919091179055610082565b600060208284031215610065578081fd5b81516001600160a01b038116811461007b578182fd5b9392505050565b6104f8806100916000396000f3fe608060405234801561001057600080fd5b50600436106100415760003560e01c80636330533c14610046578063a413686214610076578063cfae32171461008b575b600080fd5b600054610059906001600160a01b031681565b6040516001600160a01b0390911681526020015b60405180910390f35b6100896100843660046102fc565b6100a0565b005b610093610164565b60405161006d91906103f1565b61014d6040518060600160405280602381526020016104a060239139600180546100c99061044e565b80601f01602080910402602001604051908101604052809291908181526020018280546100f59061044e565b80156101425780601f1061011757610100808354040283529160200191610142565b820191906000526020600020905b81548152906001019060200180831161012557829003601f168201915b5050505050836101f6565b8051610160906001906020840190610263565b5050565b6060600180546101739061044e565b80601f016020809104026020016040519081016040528092919081815260200182805461019f9061044e565b80156101ec5780601f106101c1576101008083540402835291602001916101ec565b820191906000526020600020905b8154815290600101906020018083116101cf57829003601f168201915b5050505050905090565b61023d83838360405160240161020e9392919061040b565b60408051601f198184030181529190526020810180516001600160e01b0316632ced7cef60e01b179052610242565b505050565b80516a636f6e736f6c652e6c6f67602083016000808483855afa5050505050565b82805461026f9061044e565b90600052602060002090601f01602090048101928261029157600085556102d7565b82601f106102aa57805160ff19168380011785556102d7565b828001600101855582156102d7579182015b828111156102d75782518255916020019190600101906102bc565b506102e39291506102e7565b5090565b5b808211156102e357600081556001016102e8565b60006020828403121561030d578081fd5b813567ffffffffffffffff80821115610324578283fd5b818401915084601f830112610337578283fd5b81358181111561034957610349610489565b604051601f8201601f19908116603f0116810190838211818310171561037157610371610489565b81604052828152876020848701011115610389578586fd5b826020860160208301379182016020019490945295945050505050565b60008151808452815b818110156103cb576020818501810151868301820152016103af565b818111156103dc5782602083870101525b50601f01601f19169290920160200192915050565b60208152600061040460208301846103a6565b9392505050565b60608152600061041e60608301866103a6565b828103602084015261043081866103a6565b9050828103604084015261044481856103a6565b9695505050505050565b600181811c9082168061046257607f821691505b6020821081141561048357634e487b7160e01b600052602260045260246000fd5b50919050565b634e487b7160e01b600052604160045260246000fdfe4368616e67696e67206772656574696e672066726f6d202725732720746f2027257327a26469706673582212202858825b301e0ed2f1927040d05b0da092fd65af668590a904721328d0a851f864736f6c63430008040033",
  "linkReferences": {},
  "deployedLinkReferences": {}
}