{
  "_format": "hh-sol-artifact-1",
  "contractName": "TokenVesting",
  "sourceName": "contracts/token/TokenVesting.sol",
  "abi": [
    {
      "inputs": [
        {
          "internalType": "address",
          "name": "__beneficiary",
          "type": "address"
        },
        {
          "internalType": "uint256",
          "name": "__start",
          "type": "uint256"
        },
        {
          "internalType": "uint256",
          "name": "__cliffDuration",
          "type": "uint256"
        },
        {
          "internalType": "uint256",
          "name": "__duration",
          "type": "uint256"
        },
        {
          "internalType": "uint256",
          "name": "__startPortfolioDeposits",
          "type": "uint256"
        },
        {
          "internalType": "bool",
          "name": "__revocable",
          "type": "bool"
        },
        {
          "internalType": "uint256",
          "name": "__firstReleasePercentage",
          "type": "uint256"
        },
        {
          "internalType": "contract IPortfolio",
          "name": "__portfolio",
          "type": "address"
        }
      ],
      "stateMutability": "nonpayable",
      "type": "constructor"
    },
    {
      "anonymous": false,
      "inputs": [
        {
          "indexed": true,
          "internalType": "address",
          "name": "previousOwner",
          "type": "address"
        },
        {
          "indexed": true,
          "internalType": "address",
          "name": "newOwner",
          "type": "address"
        }
      ],
      "name": "OwnershipTransferred",
      "type": "event"
    },
    {
      "anonymous": false,
      "inputs": [
        {
          "indexed": false,
          "internalType": "address",
          "name": "token",
          "type": "address"
        }
      ],
      "name": "TokenVestingRevoked",
      "type": "event"
    },
    {
      "anonymous": false,
      "inputs": [
        {
          "indexed": false,
          "internalType": "address",
          "name": "token",
          "type": "address"
        },
        {
          "indexed": false,
          "internalType": "uint256",
          "name": "amount",
          "type": "uint256"
        }
      ],
      "name": "TokensReleased",
      "type": "event"
    },
    {
      "inputs": [],
      "name": "VERSION",
      "outputs": [
        {
          "internalType": "bytes32",
          "name": "",
          "type": "bytes32"
        }
      ],
      "stateMutability": "view",
      "type": "function"
    },
    {
      "inputs": [],
      "name": "beneficiary",
      "outputs": [
        {
          "internalType": "address",
          "name": "",
          "type": "address"
        }
      ],
      "stateMutability": "view",
      "type": "function"
    },
    {
      "inputs": [
        {
          "internalType": "address",
          "name": "__beneficiary",
          "type": "address"
        }
      ],
      "name": "canFundPortfolio",
      "outputs": [
        {
          "internalType": "bool",
          "name": "",
          "type": "bool"
        }
      ],
      "stateMutability": "view",
      "type": "function"
    },
    {
      "inputs": [
        {
          "internalType": "contract IERC20Metadata",
          "name": "token",
          "type": "address"
        },
        {
          "internalType": "address",
          "name": "__beneficiary",
          "type": "address"
        }
      ],
      "name": "canFundWallet",
      "outputs": [
        {
          "internalType": "bool",
          "name": "",
          "type": "bool"
        }
      ],
      "stateMutability": "view",
      "type": "function"
    },
    {
      "inputs": [],
      "name": "cliff",
      "outputs": [
        {
          "internalType": "uint256",
          "name": "",
          "type": "uint256"
        }
      ],
      "stateMutability": "view",
      "type": "function"
    },
    {
      "inputs": [],
      "name": "duration",
      "outputs": [
        {
          "internalType": "uint256",
          "name": "",
          "type": "uint256"
        }
      ],
      "stateMutability": "view",
      "type": "function"
    },
    {
      "inputs": [],
      "name": "getPercentage",
      "outputs": [
        {
          "internalType": "uint256",
          "name": "",
          "type": "uint256"
        }
      ],
      "stateMutability": "view",
      "type": "function"
    },
    {
      "inputs": [],
      "name": "getPortfolio",
      "outputs": [
        {
          "internalType": "address",
          "name": "",
          "type": "address"
        }
      ],
      "stateMutability": "view",
      "type": "function"
    },
    {
      "inputs": [],
      "name": "owner",
      "outputs": [
        {
          "internalType": "address",
          "name": "",
          "type": "address"
        }
      ],
      "stateMutability": "view",
      "type": "function"
    },
    {
      "inputs": [
        {
          "internalType": "contract IERC20Metadata",
          "name": "token",
          "type": "address"
        }
      ],
      "name": "release",
      "outputs": [],
      "stateMutability": "nonpayable",
      "type": "function"
    },
    {
      "inputs": [
        {
          "internalType": "contract IERC20Metadata",
          "name": "token",
          "type": "address"
        }
      ],
      "name": "releaseToPortfolio",
      "outputs": [],
      "stateMutability": "nonpayable",
      "type": "function"
    },
    {
      "inputs": [
        {
          "internalType": "address",
          "name": "token",
          "type": "address"
        }
      ],
      "name": "released",
      "outputs": [
        {
          "internalType": "uint256",
          "name": "",
          "type": "uint256"
        }
      ],
      "stateMutability": "view",
      "type": "function"
    },
    {
      "inputs": [
        {
          "internalType": "contract IERC20Metadata",
          "name": "token",
          "type": "address"
        }
      ],
      "name": "releasedPercentageAmount",
      "outputs": [
        {
          "internalType": "uint256",
          "name": "",
          "type": "uint256"
        }
      ],
      "stateMutability": "view",
      "type": "function"
    },
    {
      "inputs": [],
      "name": "renounceOwnership",
      "outputs": [],
      "stateMutability": "nonpayable",
      "type": "function"
    },
    {
      "inputs": [],
      "name": "revocable",
      "outputs": [
        {
          "internalType": "bool",
          "name": "",
          "type": "bool"
        }
      ],
      "stateMutability": "view",
      "type": "function"
    },
    {
      "inputs": [
        {
          "internalType": "contract IERC20Metadata",
          "name": "token",
          "type": "address"
        }
      ],
      "name": "revoke",
      "outputs": [],
      "stateMutability": "nonpayable",
      "type": "function"
    },
    {
      "inputs": [
        {
          "internalType": "address",
          "name": "token",
          "type": "address"
        }
      ],
      "name": "revoked",
      "outputs": [
        {
          "internalType": "bool",
          "name": "",
          "type": "bool"
        }
      ],
      "stateMutability": "view",
      "type": "function"
    },
    {
      "inputs": [
        {
          "internalType": "uint256",
          "name": "percentage",
          "type": "uint256"
        }
      ],
      "name": "setPercentage",
      "outputs": [],
      "stateMutability": "nonpayable",
      "type": "function"
    },
    {
      "inputs": [
        {
          "internalType": "contract IPortfolio",
          "name": "portfolio",
          "type": "address"
        }
      ],
      "name": "setPortfolio",
      "outputs": [],
      "stateMutability": "nonpayable",
      "type": "function"
    },
    {
      "inputs": [
        {
          "internalType": "uint256",
          "name": "time",
          "type": "uint256"
        }
      ],
      "name": "setStartPortfolioDeposits",
      "outputs": [],
      "stateMutability": "nonpayable",
      "type": "function"
    },
    {
      "inputs": [],
      "name": "start",
      "outputs": [
        {
          "internalType": "uint256",
          "name": "",
          "type": "uint256"
        }
      ],
      "stateMutability": "view",
      "type": "function"
    },
    {
      "inputs": [],
      "name": "startPortfolioDeposits",
      "outputs": [
        {
          "internalType": "uint256",
          "name": "",
          "type": "uint256"
        }
      ],
      "stateMutability": "view",
      "type": "function"
    },
    {
      "inputs": [
        {
          "internalType": "string",
          "name": "_string",
          "type": "string"
        }
      ],
      "name": "stringToBytes32",
      "outputs": [
        {
          "internalType": "bytes32",
          "name": "result",
          "type": "bytes32"
        }
      ],
      "stateMutability": "pure",
      "type": "function"
    },
    {
      "inputs": [
        {
          "internalType": "address",
          "name": "newOwner",
          "type": "address"
        }
      ],
      "name": "transferOwnership",
      "outputs": [],
      "stateMutability": "nonpayable",
      "type": "function"
    },
    {
      "inputs": [
        {
          "internalType": "contract IERC20Metadata",
          "name": "token",
          "type": "address"
        }
      ],
      "name": "vestedAmount",
      "outputs": [
        {
          "internalType": "uint256",
          "name": "",
          "type": "uint256"
        }
      ],
      "stateMutability": "view",
      "type": "function"
    },
    {
      "inputs": [
        {
          "internalType": "contract IERC20Metadata",
          "name": "token",
          "type": "address"
        }
      ],
      "name": "vestedPercentageAmount",
      "outputs": [
        {
          "internalType": "uint256",
          "name": "",
          "type": "uint256"
        }
      ],
      "stateMutability": "view",
      "type": "function"
    }
  ],
  "bytecode": "0x60806040523480156200001157600080fd5b5060405162001c2938038062001c298339810160408190526200003491620003e2565b6200003f3362000392565b600180556001600160a01b038816620000b55760405162461bcd60e51b815260206004820152602d60248201527f546f6b656e56657374696e673a2062656e65666963696172792069732074686560448201526c207a65726f206164647265737360981b60648201526084015b60405180910390fd5b848611156200011b5760405162461bcd60e51b815260206004820152602b60248201527f546f6b656e56657374696e673a20636c696666206973206c6f6e67657220746860448201526a30b710323ab930ba34b7b760a91b6064820152608401620000ac565b600085116200016d5760405162461bcd60e51b815260206004820152601b60248201527f546f6b656e56657374696e673a206475726174696f6e206973203000000000006044820152606401620000ac565b426200017a86896200046a565b11620001e15760405162461bcd60e51b815260206004820152602f60248201527f546f6b656e56657374696e673a2066696e616c2074696d65206973206265666f60448201526e72652063757272656e742074696d6560881b6064820152608401620000ac565b868410620002585760405162461bcd60e51b815260206004820152603360248201527f546f6b656e56657374696e673a20706f7274666f6c696f206465706f7369747360448201527f20626567696e73206166746572207374617274000000000000000000000000006064820152608401620000ac565b60008211620002aa5760405162461bcd60e51b815260206004820152601d60248201527f546f6b656e56657374696e673a2070657263656e7461676520697320300000006044820152606401620000ac565b6001600160a01b038116620003165760405162461bcd60e51b815260206004820152602b60248201527f546f6b656e56657374696e673a20706f7274666f6c696f20697320746865207a60448201526a65726f206164647265737360a81b6064820152608401620000ac565b600280546001600160a01b0319166001600160a01b038a161790556007805460ff191684151517905560058590556200035086886200046a565b600355600496909655600692909255506009555050600780546001600160a01b0390921661010002610100600160a81b031990921691909117905550620004a8565b600080546001600160a01b038381166001600160a01b0319831681178455604051919092169283917f8be0079c531659141344cd1fd0a4f28419497f9722a3daafe3b4186f6b6457e09190a35050565b600080600080600080600080610100898b031215620003ff578384fd5b88516200040c816200048f565b809850506020890151965060408901519550606089015194506080890151935060a089015180151581146200043f578384fd5b60c08a015160e08b0151919450925062000459816200048f565b809150509295985092959890939650565b600082198211156200048a57634e487b7160e01b81526011600452602481fd5b500190565b6001600160a01b0381168114620004a557600080fd5b50565b61177180620004b86000396000f3fe608060405234801561001057600080fd5b506004361061018e5760003560e01c806373091f77116100de578063be9a655511610097578063da10c75c11610071578063da10c75c14610356578063f2fde38b1461035e578063fa01dc0614610371578063ffa1ad741461039d57600080fd5b8063be9a655514610325578063cfb519281461032d578063d3d034581461034057600080fd5b806373091f77146102a757806374a8f103146102ba57806386f3b157146102cd578063872a7810146102e05780638da5cb5b146102eb5780639852595c146102fc57600080fd5b8063384711cc1161014b57806359abb5ad1161012557806359abb5ad146102565780635c7f3436146102795780635da4a1d31461028c578063715018a61461029f57600080fd5b8063384711cc146101f557806338af3eed14610208578063553fd9071461022d57600080fd5b8063044337ca146101935780630b2accb2146101a85780630fb5a6b4146101bf57806313d033c0146101c757806319165587146101cf57806325dc2e66146101e2575b600080fd5b6101a66101a13660046113fc565b6103ac565b005b6009545b6040519081526020015b60405180910390f35b6005546101ac565b6003546101ac565b6101a66101dd3660046113fc565b610471565b6101a66101f0366004611553565b61072b565b6101ac6102033660046113fc565b61075a565b6002546001600160a01b03165b6040516001600160a01b0390911681526020016101b6565b6101ac61023b3660046113fc565b6001600160a01b03166000908152600a602052604090205490565b6102696102643660046113fc565b61076b565b60405190151581526020016101b6565b610269610287366004611438565b61079e565b6101a661029a366004611553565b6107fc565b6101a661082b565b6101ac6102b53660046113fc565b610861565b6101a66102c83660046113fc565b61086c565b6101a66102db3660046113fc565b610a9f565b60075460ff16610269565b6000546001600160a01b0316610215565b6101ac61030a3660046113fc565b6001600160a01b03166000908152600b602052604090205490565b6004546101ac565b6101ac61033b366004611470565b610d92565b60075461010090046001600160a01b0316610215565b6006546101ac565b6101a661036c3660046113fc565b610d9d565b61026961037f3660046113fc565b6001600160a01b03166000908152600c602052604090205460ff1690565b6101ac64312e302e3160d81b81565b6000546001600160a01b031633146103df5760405162461bcd60e51b81526004016103d6906115d2565b60405180910390fd5b6001600160a01b0381166104495760405162461bcd60e51b815260206004820152602b60248201527f546f6b656e56657374696e673a20706f7274666f6c696f20697320746865207a60448201526a65726f206164647265737360a81b60648201526084016103d6565b600780546001600160a01b0390921661010002610100600160a81b0319909216919091179055565b600260015414156104c45760405162461bcd60e51b815260206004820152601f60248201527f5265656e7472616e637947756172643a207265656e7472616e742063616c6c0060448201526064016103d6565b60026001556040516370a0823160e01b81523060048201526000906001600160a01b038316906370a082319060240160206040518083038186803b15801561050b57600080fd5b505afa15801561051f573d6000803e3d6000fd5b505050506040513d601f19601f82011682018060405250810190610543919061156b565b116105a15760405162461bcd60e51b815260206004820152602860248201527f546f6b656e56657374696e673a206e6f2062616c616e6365206f6e207468652060448201526718dbdb9d1c9858dd60c21b60648201526084016103d6565b60045442116105f25760405162461bcd60e51b815260206004820152601760248201527f546f6b656e56657374696e673a20746f6f206561726c7900000000000000000060448201526064016103d6565b60006105fd82610e38565b90506000811161064f5760405162461bcd60e51b815260206004820152601f60248201527f546f6b656e56657374696e673a206e6f20746f6b656e7320617265206475650060448201526064016103d6565b6001600160a01b0382166000908152600a602052604090205461068f5761067582610e77565b6001600160a01b0383166000908152600a60205260409020555b6001600160a01b0382166000908152600b60205260409020546106b3908290611660565b6001600160a01b0383166000818152600b60209081526040918290209390935580519182529181018390527fc7798891864187665ac6dd119286e44ec13f014527aeeb2b8eb3fd413df93179910160405180910390a1600254610723906001600160a01b03848116911683610f7c565b505060018055565b6000546001600160a01b031633146107555760405162461bcd60e51b81526004016103d6906115d2565b600655565b600061076582610fd3565b92915050565b6002546000906001600160a01b03838116911614801561078c575060065442115b80156107655750600454421092915050565b6002546000906001600160a01b0383811691161480156107bf575060045442115b80156107f557506001600160a01b0383166000908152600a60205260409020546107e884610e77565b11806107f5575060035442115b9392505050565b6000546001600160a01b031633146108265760405162461bcd60e51b81526004016103d6906115d2565b600955565b6000546001600160a01b031633146108555760405162461bcd60e51b81526004016103d6906115d2565b61085f600061113c565b565b600061076582610e77565b6000546001600160a01b031633146108965760405162461bcd60e51b81526004016103d6906115d2565b60075460ff166108e85760405162461bcd60e51b815260206004820152601b60248201527f546f6b656e56657374696e673a2063616e6e6f74207265766f6b65000000000060448201526064016103d6565b6001600160a01b0381166000908152600c602052604090205460ff161561095d5760405162461bcd60e51b815260206004820152602360248201527f546f6b656e56657374696e673a20746f6b656e20616c7265616479207265766f6044820152621ad95960ea1b60648201526084016103d6565b6040516370a0823160e01b81523060048201526000906001600160a01b038316906370a082319060240160206040518083038186803b15801561099f57600080fd5b505afa1580156109b3573d6000803e3d6000fd5b505050506040513d601f19601f820116820180604052508101906109d7919061156b565b6001600160a01b0383166000908152600b60205260409020549091506109fd9082611660565b6008556000610a0b83610e38565b90506000610a1982846116b7565b6001600160a01b0385166000818152600c6020908152604091829020805460ff1916600117905590519182529192507f39983c6d4d174a7aee564f449d4a5c3c7ac9649d72b7793c56901183996f8af6910160405180910390a1610a99610a886000546001600160a01b031690565b6001600160a01b0386169083610f7c565b50505050565b60026001541415610af25760405162461bcd60e51b815260206004820152601f60248201527f5265656e7472616e637947756172643a207265656e7472616e742063616c6c0060448201526064016103d6565b6002600181905554610b0c906001600160a01b031661076b565b610b6b5760405162461bcd60e51b815260206004820152602a60248201527f546f6b656e56657374696e673a206f6e6c7920706f737369626c65206475726960448201526937339030bab1ba34b7b760b11b60648201526084016103d6565b6000610b7682610e38565b905060008111610bc85760405162461bcd60e51b815260206004820152601f60248201527f546f6b656e56657374696e673a206e6f20746f6b656e7320617265206475650060448201526064016103d6565b6001600160a01b0382166000908152600a6020526040902054610723576000826001600160a01b03166395d89b416040518163ffffffff1660e01b815260040160006040518083038186803b158015610c2057600080fd5b505afa158015610c34573d6000803e3d6000fd5b505050506040513d6000823e601f3d908101601f19168201604052610c5c91908101906114e9565b90506000610c6982610d92565b9050610c7484610e77565b6001600160a01b0385166000908152600a6020908152604080832093909355600b90522054610ca4908490611660565b6001600160a01b0385166000818152600b60209081526040918290209390935580519182529181018590527fc7798891864187665ac6dd119286e44ec13f014527aeeb2b8eb3fd413df93179910160405180910390a1600254610d14906001600160a01b03868116911685610f7c565b60075460025460405163565d3f5b60e01b81526001600160a01b0391821660048201526024810184905260448101869052610100909204169063565d3f5b90606401600060405180830381600087803b158015610d7057600080fd5b505af1158015610d84573d6000803e3d6000fd5b505050505050505060018055565b60006107658261118c565b6000546001600160a01b03163314610dc75760405162461bcd60e51b81526004016103d6906115d2565b6001600160a01b038116610e2c5760405162461bcd60e51b815260206004820152602660248201527f4f776e61626c653a206e6577206f776e657220697320746865207a65726f206160448201526564647265737360d01b60648201526084016103d6565b610e358161113c565b50565b6001600160a01b0381166000908152600b6020526040812054610e5a83610e77565b610e6384610fd3565b610e6d9190611660565b61076591906116b7565b6000600654421015610e8b57506000919050565b6040516370a0823160e01b81523060048201526000906001600160a01b038416906370a082319060240160206040518083038186803b158015610ecd57600080fd5b505afa158015610ee1573d6000803e3d6000fd5b505050506040513d601f19601f82011682018060405250810190610f05919061156b565b6001600160a01b0384166000908152600c60205260408120549192509060ff16610f51576001600160a01b0384166000908152600b6020526040902054610f4c9083611660565b610f55565b6008545b90506000606460095483610f699190611698565b610f739190611678565b95945050505050565b604080516001600160a01b038416602482015260448082018490528251808303909101815260649091019091526020810180516001600160e01b031663a9059cbb60e01b179052610fce9084906111a9565b505050565b6040516370a0823160e01b815230600482015260009081906001600160a01b038416906370a082319060240160206040518083038186803b15801561101757600080fd5b505afa15801561102b573d6000803e3d6000fd5b505050506040513d601f19601f8201168201806040525081019061104f919061156b565b9050600061105c84610e77565b6001600160a01b0385166000908152600b602052604090205461107f9084611660565b61108991906116b7565b905060035442101561109f575060009392505050565b6005546004546110af9190611660565b421015806110d557506001600160a01b0384166000908152600c602052604090205460ff165b156110e1579392505050565b6000600354426110f191906116b7565b9050600060045460035461110591906116b7565b905060008160055461111791906116b7565b90506000816111268587611698565b6111309190611678565b98975050505050505050565b600080546001600160a01b038381166001600160a01b0319831681178455604051919092169283917f8be0079c531659141344cd1fd0a4f28419497f9722a3daafe3b4186f6b6457e09190a35050565b805160009082906111a05750600092915050565b50506020015190565b60006111fe826040518060400160405280602081526020017f5361666545524332303a206c6f772d6c6576656c2063616c6c206661696c6564815250856001600160a01b031661127b9092919063ffffffff16565b805190915015610fce578080602001905181019061121c9190611418565b610fce5760405162461bcd60e51b815260206004820152602a60248201527f5361666545524332303a204552433230206f7065726174696f6e20646964206e6044820152691bdd081cdd58d8d9595960b21b60648201526084016103d6565b606061128a8484600085611292565b949350505050565b6060824710156112f35760405162461bcd60e51b815260206004820152602660248201527f416464726573733a20696e73756666696369656e742062616c616e636520666f6044820152651c8818d85b1b60d21b60648201526084016103d6565b6001600160a01b0385163b61134a5760405162461bcd60e51b815260206004820152601d60248201527f416464726573733a2063616c6c20746f206e6f6e2d636f6e747261637400000060448201526064016103d6565b600080866001600160a01b031685876040516113669190611583565b60006040518083038185875af1925050503d80600081146113a3576040519150601f19603f3d011682016040523d82523d6000602084013e6113a8565b606091505b50915091506113b88282866113c3565b979650505050505050565b606083156113d25750816107f5565b8251156113e25782518084602001fd5b8160405162461bcd60e51b81526004016103d6919061159f565b60006020828403121561140d578081fd5b81356107f581611726565b600060208284031215611429578081fd5b815180151581146107f5578182fd5b6000806040838503121561144a578081fd5b823561145581611726565b9150602083013561146581611726565b809150509250929050565b600060208284031215611481578081fd5b813567ffffffffffffffff811115611497578182fd5b8201601f810184136114a7578182fd5b80356114ba6114b582611638565b611607565b8181528560208385010111156114ce578384fd5b81602084016020830137908101602001929092525092915050565b6000602082840312156114fa578081fd5b815167ffffffffffffffff811115611510578182fd5b8201601f81018413611520578182fd5b805161152e6114b582611638565b818152856020838501011115611542578384fd5b610f738260208301602086016116ce565b600060208284031215611564578081fd5b5035919050565b60006020828403121561157c578081fd5b5051919050565b600082516115958184602087016116ce565b9190910192915050565b60208152600082518060208401526115be8160408501602087016116ce565b601f01601f19169190910160400192915050565b6020808252818101527f4f776e61626c653a2063616c6c6572206973206e6f7420746865206f776e6572604082015260600190565b604051601f8201601f1916810167ffffffffffffffff8111828210171561163057611630611710565b604052919050565b600067ffffffffffffffff82111561165257611652611710565b50601f01601f191660200190565b60008219821115611673576116736116fa565b500190565b60008261169357634e487b7160e01b81526012600452602481fd5b500490565b60008160001904831182151516156116b2576116b26116fa565b500290565b6000828210156116c9576116c96116fa565b500390565b60005b838110156116e95781810151838201526020016116d1565b83811115610a995750506000910152565b634e487b7160e01b600052601160045260246000fd5b634e487b7160e01b600052604160045260246000fd5b6001600160a01b0381168114610e3557600080fdfea26469706673582212205cb1e507f6fb3807fe24203bad17064235d2240a3998583c28f2b91ccdda2bd764736f6c63430008040033",
  "linkReferences": {},
  "deployedLinkReferences": {}
}