{
  "_format": "hh-sol-artifact-1",
  "contractName": "OrderBooks",
  "sourceName": "contracts/OrderBooks.sol",
  "abi": [
    {
      "anonymous": false,
      "inputs": [
        {
          "indexed": true,
          "internalType": "address",
          "name": "previousOwner",
          "type": "address"
        },
        {
          "indexed": true,
          "internalType": "address",
          "name": "newOwner",
          "type": "address"
        }
      ],
      "name": "OwnershipTransferred",
      "type": "event"
    },
    {
      "inputs": [],
      "name": "VERSION",
      "outputs": [
        {
          "internalType": "bytes32",
          "name": "",
          "type": "bytes32"
        }
      ],
      "stateMutability": "view",
      "type": "function"
    },
    {
      "inputs": [
        {
          "internalType": "bytes32",
          "name": "_orderBookID",
          "type": "bytes32"
        },
        {
          "internalType": "bytes32",
          "name": "_orderUid",
          "type": "bytes32"
        },
        {
          "internalType": "uint256",
          "name": "_price",
          "type": "uint256"
        }
      ],
      "name": "addOrder",
      "outputs": [],
      "stateMutability": "nonpayable",
      "type": "function"
    },
    {
      "inputs": [
        {
          "internalType": "bytes32",
          "name": "_orderBookID",
          "type": "bytes32"
        },
        {
          "internalType": "bytes32",
          "name": "_orderUid",
          "type": "bytes32"
        },
        {
          "internalType": "uint256",
          "name": "_price",
          "type": "uint256"
        }
      ],
      "name": "cancelOrder",
      "outputs": [],
      "stateMutability": "nonpayable",
      "type": "function"
    },
    {
      "inputs": [
        {
          "internalType": "bytes32",
          "name": "_orderBookID",
          "type": "bytes32"
        },
        {
          "internalType": "uint256",
          "name": "price",
          "type": "uint256"
        }
      ],
      "name": "exists",
      "outputs": [
        {
          "internalType": "bool",
          "name": "_exists",
          "type": "bool"
        }
      ],
      "stateMutability": "view",
      "type": "function"
    },
    {
      "inputs": [
        {
          "internalType": "bytes32",
          "name": "_orderBookID",
          "type": "bytes32"
        }
      ],
      "name": "first",
      "outputs": [
        {
          "internalType": "uint256",
          "name": "_price",
          "type": "uint256"
        }
      ],
      "stateMutability": "view",
      "type": "function"
    },
    {
      "inputs": [
        {
          "internalType": "bytes32",
          "name": "_orderBookID",
          "type": "bytes32"
        }
      ],
      "name": "getBookSize",
      "outputs": [
        {
          "internalType": "uint256",
          "name": "",
          "type": "uint256"
        }
      ],
      "stateMutability": "view",
      "type": "function"
    },
    {
      "inputs": [
        {
          "internalType": "bytes32",
          "name": "_orderBookID",
          "type": "bytes32"
        },
        {
          "internalType": "uint256",
          "name": "price",
          "type": "uint256"
        }
      ],
      "name": "getHead",
      "outputs": [
        {
          "internalType": "bytes32",
          "name": "head",
          "type": "bytes32"
        }
      ],
      "stateMutability": "view",
      "type": "function"
    },
    {
      "inputs": [
        {
          "internalType": "bytes32",
          "name": "_orderBookID",
          "type": "bytes32"
        },
        {
          "internalType": "uint256",
          "name": "nPrice",
          "type": "uint256"
        },
        {
          "internalType": "uint256",
          "name": "nOrder",
          "type": "uint256"
        },
        {
          "internalType": "uint256",
          "name": "lastPrice",
          "type": "uint256"
        },
        {
          "internalType": "bytes32",
          "name": "lastOrder",
          "type": "bytes32"
        },
        {
          "internalType": "uint256",
          "name": "_type",
          "type": "uint256"
        }
      ],
      "name": "getNOrders",
      "outputs": [
        {
          "internalType": "uint256[]",
          "name": "prices",
          "type": "uint256[]"
        },
        {
          "internalType": "uint256[]",
          "name": "quantities",
          "type": "uint256[]"
        },
        {
          "internalType": "uint256",
          "name": "",
          "type": "uint256"
        },
        {
          "internalType": "bytes32",
          "name": "",
          "type": "bytes32"
        }
      ],
      "stateMutability": "view",
      "type": "function"
    },
    {
      "inputs": [
        {
          "internalType": "bytes32",
          "name": "_orderBookID",
          "type": "bytes32"
        },
        {
          "internalType": "uint256",
          "name": "n",
          "type": "uint256"
        },
        {
          "internalType": "uint256",
          "name": "_type",
          "type": "uint256"
        }
      ],
      "name": "getNOrdersOld",
      "outputs": [
        {
          "internalType": "uint256[]",
          "name": "",
          "type": "uint256[]"
        },
        {
          "internalType": "uint256[]",
          "name": "",
          "type": "uint256[]"
        }
      ],
      "stateMutability": "view",
      "type": "function"
    },
    {
      "inputs": [
        {
          "internalType": "bytes32",
          "name": "_orderBookID",
          "type": "bytes32"
        },
        {
          "internalType": "uint256",
          "name": "_price",
          "type": "uint256"
        }
      ],
      "name": "getNode",
      "outputs": [
        {
          "internalType": "uint256",
          "name": "price",
          "type": "uint256"
        },
        {
          "internalType": "uint256",
          "name": "parent",
          "type": "uint256"
        },
        {
          "internalType": "uint256",
          "name": "left",
          "type": "uint256"
        },
        {
          "internalType": "uint256",
          "name": "right",
          "type": "uint256"
        },
        {
          "internalType": "bool",
          "name": "red",
          "type": "bool"
        },
        {
          "internalType": "bytes32",
          "name": "head",
          "type": "bytes32"
        },
        {
          "internalType": "uint256",
          "name": "size",
          "type": "uint256"
        }
      ],
      "stateMutability": "view",
      "type": "function"
    },
    {
      "inputs": [
        {
          "internalType": "bytes32",
          "name": "_orderBookID",
          "type": "bytes32"
        },
        {
          "internalType": "uint256",
          "name": "_price",
          "type": "uint256"
        }
      ],
      "name": "getQuantitiesAtPrice",
      "outputs": [
        {
          "internalType": "uint256[]",
          "name": "",
          "type": "uint256[]"
        }
      ],
      "stateMutability": "view",
      "type": "function"
    },
    {
      "inputs": [],
      "name": "initialize",
      "outputs": [],
      "stateMutability": "nonpayable",
      "type": "function"
    },
    {
      "inputs": [
        {
          "internalType": "bytes32",
          "name": "_orderBookID",
          "type": "bytes32"
        }
      ],
      "name": "last",
      "outputs": [
        {
          "internalType": "uint256",
          "name": "_price",
          "type": "uint256"
        }
      ],
      "stateMutability": "view",
      "type": "function"
    },
    {
      "inputs": [
        {
          "internalType": "bytes32",
          "name": "_orderBookID",
          "type": "bytes32"
        },
        {
          "internalType": "uint256",
          "name": "price",
          "type": "uint256"
        },
        {
          "internalType": "uint256",
          "name": "takerOrderRemainingQuantity",
          "type": "uint256"
        },
        {
          "internalType": "uint256",
          "name": "makerOrderRemainingQuantity",
          "type": "uint256"
        }
      ],
      "name": "matchTrade",
      "outputs": [
        {
          "internalType": "uint256",
          "name": "",
          "type": "uint256"
        }
      ],
      "stateMutability": "nonpayable",
      "type": "function"
    },
    {
      "inputs": [
        {
          "internalType": "bytes32",
          "name": "_orderBookID",
          "type": "bytes32"
        },
        {
          "internalType": "uint256",
          "name": "price",
          "type": "uint256"
        }
      ],
      "name": "next",
      "outputs": [
        {
          "internalType": "uint256",
          "name": "_price",
          "type": "uint256"
        }
      ],
      "stateMutability": "view",
      "type": "function"
    },
    {
      "inputs": [
        {
          "internalType": "bytes32",
          "name": "_orderBookID",
          "type": "bytes32"
        },
        {
          "internalType": "uint256",
          "name": "_price",
          "type": "uint256"
        },
        {
          "internalType": "bytes32",
          "name": "_orderId",
          "type": "bytes32"
        }
      ],
      "name": "nextOrder",
      "outputs": [
        {
          "internalType": "bytes32",
          "name": "nextId",
          "type": "bytes32"
        }
      ],
      "stateMutability": "view",
      "type": "function"
    },
    {
      "inputs": [
        {
          "internalType": "bytes32",
          "name": "_orderBookID",
          "type": "bytes32"
        },
        {
          "internalType": "enum ITradePairs.Side",
          "name": "_side",
          "type": "uint8"
        },
        {
          "internalType": "uint256",
          "name": "_price",
          "type": "uint256"
        }
      ],
      "name": "nextPrice",
      "outputs": [
        {
          "internalType": "uint256",
          "name": "price",
          "type": "uint256"
        }
      ],
      "stateMutability": "view",
      "type": "function"
    },
    {
      "inputs": [
        {
          "internalType": "bytes32",
          "name": "_orderBookID",
          "type": "bytes32"
        },
        {
          "internalType": "uint256",
          "name": "_price",
          "type": "uint256"
        }
      ],
      "name": "orderListExists",
      "outputs": [
        {
          "internalType": "bool",
          "name": "",
          "type": "bool"
        }
      ],
      "stateMutability": "view",
      "type": "function"
    },
    {
      "inputs": [],
      "name": "owner",
      "outputs": [
        {
          "internalType": "address",
          "name": "",
          "type": "address"
        }
      ],
      "stateMutability": "view",
      "type": "function"
    },
    {
      "inputs": [
        {
          "internalType": "bytes32",
          "name": "_orderBookID",
          "type": "bytes32"
        },
        {
          "internalType": "uint256",
          "name": "price",
          "type": "uint256"
        }
      ],
      "name": "prev",
      "outputs": [
        {
          "internalType": "uint256",
          "name": "_price",
          "type": "uint256"
        }
      ],
      "stateMutability": "view",
      "type": "function"
    },
    {
      "inputs": [
        {
          "internalType": "bytes32",
          "name": "_orderBookID",
          "type": "bytes32"
        },
        {
          "internalType": "uint256",
          "name": "_price",
          "type": "uint256"
        }
      ],
      "name": "removeFirstOrder",
      "outputs": [],
      "stateMutability": "nonpayable",
      "type": "function"
    },
    {
      "inputs": [],
      "name": "renounceOwnership",
      "outputs": [],
      "stateMutability": "nonpayable",
      "type": "function"
    },
    {
      "inputs": [
        {
          "internalType": "bytes32",
          "name": "_orderBookID",
          "type": "bytes32"
        }
      ],
      "name": "root",
      "outputs": [
        {
          "internalType": "uint256",
          "name": "_price",
          "type": "uint256"
        }
      ],
      "stateMutability": "view",
      "type": "function"
    },
    {
      "inputs": [
        {
          "internalType": "address",
          "name": "newOwner",
          "type": "address"
        }
      ],
      "name": "transferOwnership",
      "outputs": [],
      "stateMutability": "nonpayable",
      "type": "function"
    }
  ],
  "bytecode": "0x608060405234801561001057600080fd5b506129a5806100206000396000f3fe608060405234801561001057600080fd5b50600436106101585760003560e01c8063b3277759116100c3578063cf1250f51161007c578063cf1250f514610340578063dec5d8fb14610353578063f09abd1114610366578063f2fde38b14610379578063fda0d5961461038c578063ffa1ad741461039f57600080fd5b8063b327775914610287578063b4af817e1461029a578063b6dcc272146102ad578063b89698d0146102c0578063baa11b521461030a578063be7cb68d1461032d57600080fd5b80635cb31635116101155780635cb31635146102055780636646123114610228578063715018a6146102495780638129fc1c146102515780638da5cb5b14610259578063a8160e791461027457600080fd5b80630b9843b01461015d578063111b95c5146101865780632fb48e01146101a7578063307d3b5b146101ba578063428a52cb146101dd578063525422cd146101f2575b600080fd5b61017061016b36600461262e565b6103ae565b60405161017d91906127ad565b60405180910390f35b6101996101943660046125f7565b61053d565b60405190815260200161017d565b6101996101b53660046125b4565b6105d3565b6101996101c83660046125b4565b60009081526065602052604090206001015490565b6101f06101eb36600461262e565b610608565b005b6101f06102003660046125cc565b6106cb565b61021861021336600461262e565b61075f565b604051901515815260200161017d565b61023b61023636600461264f565b61077a565b60405161017d9291906127c0565b6101f0610a6a565b6101f0610aa0565b6033546040516001600160a01b03909116815260200161017d565b6101996102823660046125b4565b610b61565b61019961029536600461262e565b610b7b565b6101f06102a83660046125cc565b610b96565b6102186102bb36600461262e565b610c0e565b6102d36102ce36600461262e565b610c5d565b6040805197885260208801969096529486019390935260608501919091521515608084015260a083015260c082015260e00161017d565b61031d610318366004612694565b610ced565b60405161017d94939291906127e5565b61019961033b36600461264f565b611058565b61019961034e3660046125b4565b611085565b610199610361366004612663565b61109f565b61019961037436600461262e565b6110fd565b6101f0610387366004612598565b611118565b61019961039a36600461262e565b6111b0565b61019964312e322e3160d81b81565b60606000806103bd8585610c5d565b96509650505050505060008167ffffffffffffffff8111156103ef57634e487b7160e01b600052604160045260246000fd5b604051908082528060200260200182016040528015610418578160200160208202803683370190505b5060008781526065602052604081209192505b8381101561052f5760006104476033546001600160a01b031690565b6001600160a01b0316635778472a876040518263ffffffff1660e01b815260040161047491815260200190565b6101406040518083038186803b15801561048d57600080fd5b505afa1580156104a1573d6000803e3d6000fd5b505050506040513d601f19601f820116820180604052508101906104c591906126d6565b90506104d0816111dc565b8483815181106104f057634e487b7160e01b600052603260045260246000fd5b602090810291909101810191909152600089815290849052604081206105179188906111f2565b965082915061052790508161291c565b91505061042b565b509093505050505b92915050565b60008161058957600083600181111561056657634e487b7160e01b600052602160045260246000fd5b146105795761057484610b61565b610582565b61058284611085565b90506105cc565b60008360018111156105ab57634e487b7160e01b600052602160045260246000fd5b146105bf576105ba84836110fd565b6105c9565b6105c98483610b7b565b90505b9392505050565b6000806105df83610b61565b905060005b81156105cc57806105f48161291c565b91505061060184836110fd565b91506105e4565b6033546001600160a01b0316331461063b5760405162461bcd60e51b81526004016106329061281e565b60405180910390fd5b6000828152606560209081526040808320848452909152902061065d90611232565b15610686576000828152606560209081526040808320848452909152812061068491611285565b505b600082815260656020908152604080832084845290915290206106a890611232565b6106c75760008281526065602052604090206106c790600101826112a5565b5050565b6033546001600160a01b031633146106f55760405162461bcd60e51b81526004016106329061281e565b600083815260656020908152604080832084845290915290206107189083611530565b506000838152606560209081526040808320848452909152902061073b90611232565b61075a57600083815260656020526040902061075a90600101826112a5565b505050565b60008281526065602052604081206105cc90600101836115ac565b6060808315806107995750600085815260656020526040902060010154155b156107e257604080516001808252818301909252906020808301908036833750506040805160018082528183019092529150602080830190803683370190505091509150610a62565b60008467ffffffffffffffff81111561080b57634e487b7160e01b600052604160045260246000fd5b604051908082528060200260200182016040528015610834578160200160208202803683370190505b50905060008567ffffffffffffffff81111561086057634e487b7160e01b600052604160045260246000fd5b604051908082528060200260200182016040528015610889578160200160208202803683370190505b50600088815260656020526040812091925086156108af576108aa89611085565b6108b8565b6108b889610b61565b905060005b6000821180156108cc57508881105b15610a5857818582815181106108f257634e487b7160e01b600052603260045260246000fd5b60209081029190910181019190915260008381529084905260408120819061091c908260016111f2565b915091505b8015610a2357600061093b6033546001600160a01b031690565b604051632bbc239560e11b8152600481018490529091506000906001600160a01b03831690635778472a906024016101406040518083038186803b15801561098257600080fd5b505afa158015610996573d6000803e3d6000fd5b505050506040513d601f19601f820116820180604052508101906109ba91906126d6565b90506109c5816111dc565b8886815181106109e557634e487b7160e01b600052603260045260246000fd5b602002602001018181516109f991906128d6565b9052506000868152602088905260409020610a16908460016111f2565b9094509250610921915050565b82610a2d8161291c565b9350508915610a4557610a408c85610b7b565b610a4f565b610a4f8c856110fd565b935050506108bd565b5092945090925050505b935093915050565b6033546001600160a01b03163314610a945760405162461bcd60e51b81526004016106329061281e565b610a9e60006115db565b565b600054610100900460ff16610abb5760005460ff1615610abf565b303b155b610b225760405162461bcd60e51b815260206004820152602e60248201527f496e697469616c697a61626c653a20636f6e747261637420697320616c72656160448201526d191e481a5b9a5d1a585b1a5e995960921b6064820152608401610632565b600054610100900460ff16158015610b44576000805461ffff19166101011790555b610b4c61162d565b8015610b5e576000805461ff00191690555b50565b60008181526065602052604081206105379060010161165c565b60008281526065602052604081206105cc9060010183611697565b6033546001600160a01b03163314610bc05760405162461bcd60e51b81526004016106329061281e565b610bca838261075f565b610be9576000838152606560205260409020610be99060010182611763565b6000838152606560209081526040808320848452909152902061075a908360016118da565b6033546000906001600160a01b03163314610c3b5760405162461bcd60e51b81526004016106329061281e565b600083815260656020908152604080832085845290915290206105cc90611232565b6000828152606560205260408120819081908190819081908190610c84600182018a6115ac565b15610cdf57610c96600182018a6118e7565b60008e8152602087905260408120959d50939b5091995097509550610cbb9190611966565b5060008b8152602084905260409020909450610cd791506119b7565b915050610ce1565b505b92959891949750929550565b606080600080881580610d0f575060008a815260656020526040902060010154155b80610d2c5750600087118015610d2c5750610d2a8a8861075f565b155b15610d7b5760408051600180825281830190925290602080830190803683375050604080516001808252818301909252915060208083019080368337019050508888935093509350935061104b565b86610da0578415610d9457610d8f8a611085565b610d9d565b610d9d8a610b61565b96505b8867ffffffffffffffff811115610dc757634e487b7160e01b600052604160045260246000fd5b604051908082528060200260200182016040528015610df0578160200160208202803683370190505b5093508867ffffffffffffffff811115610e1a57634e487b7160e01b600052604160045260246000fd5b604051908082528060200260200182016040528015610e43578160200160208202803683370190505b5060008b815260656020526040812091945080610e686033546001600160a01b031690565b90505b60008a118015610e7a57508b82105b8015610e86575060008b115b156110415789878381518110610eac57634e487b7160e01b600052603260045260246000fd5b60209081029190910181019190915260008b81529084905260408120610ed3918b906111f2565b9950505b8815801590610ee6575060008b115b15610fd957604051632bbc239560e11b8152600481018a90526000906001600160a01b03831690635778472a906024016101406040518083038186803b158015610f2f57600080fd5b505afa158015610f43573d6000803e3d6000fd5b505050506040513d601f19601f82011682018060405250810190610f6791906126d6565b9050610f72816111dc565b878481518110610f9257634e487b7160e01b600052603260045260246000fd5b60200260200101818151610fa691906128d6565b90525060008b8152602085905260408120610fc2918c906111f2565b9a508c9050610fd081612905565b9c505050610ed7565b8a158015610fe657508815155b1561100e5760008a8152602084905260409020611005908a60016111f2565b99506110419050565b87156110235761101e8d8b610b7b565b61102d565b61102d8d8b6110fd565b9950816110398161291c565b925050610e6b565b5088935087925050505b9650965096509692505050565b6000838152606560209081526040808320858452909152812061107c9083836111f2565b95945050505050565b6000818152606560205260408120610537906001016119ff565b6033546000906001600160a01b031633146110cc5760405162461bcd60e51b81526004016106329061281e565b60006110d88484611a3a565b90506110e481846128ee565b6110f2576110f28686610608565b90505b949350505050565b60008281526065602052604081206105cc9060010183611a51565b6033546001600160a01b031633146111425760405162461bcd60e51b81526004016106329061281e565b6001600160a01b0381166111a75760405162461bcd60e51b815260206004820152602660248201527f4f776e61626c653a206e6577206f776e657220697320746865207a65726f206160448201526564647265737360d01b6064820152608401610632565b610b5e816115db565b600082815260656020908152604080832084845290915281206111d39082611966565b50949350505050565b60008160800151826060015161053791906128ee565b6000806111ff8585611b16565b61120e57506000905080610a62565b50506000828152602084815260408083208415158452909152902054600190610a62565b60008080526020828152604080832090915281205415158061126b57506000808052602083815260408083206001845290915290205415155b1561127857506001919050565b506000919050565b919050565b6000806000611296856000866111f2565b909250905061107c8582611530565b806112de5760405162461bcd60e51b81526020600482015260096024820152682916a5a4a2a696981960b91b6044820152606401610632565b6112e882826115ac565b6113205760405162461bcd60e51b81526020600482015260096024820152682916a5a2272296981960b91b6044820152606401610632565b600081815260018084016020526040822001548190158061135257506000838152600185016020526040902060020154155b1561135e5750816113a6565b5060008281526001840160205260409020600201545b6000818152600180860160205260409091200154156113a6576000908152600180850160205260409091200154611374565b6000818152600180860160205260409091200154156113da57600081815260018086016020526040909120015491506113f1565b600081815260018501602052604090206002015491505b600081815260018501602052604080822054848352912081905580156114625760008181526001808701602052604090912001548214156114475760008181526001808701602052604090912001839055611466565b60008181526001860160205260409020600201839055611466565b8285555b600082815260018601602052604090206003015460ff16158483146114f057611490868487611b8e565b60008581526001878101602052604080832080830154878552828520938401819055845281842087905560028082015490840181905584529083208690556003908101549286905201805460ff191660ff90921615159190911790559193915b8015611500576115008685611c05565b5050600090815260019384016020526040812081815593840181905560028401555050600301805460ff19169055565b600081158061154657506115448383611b16565b155b1561155357506000610537565b506000818152602083815260408083208380528083528184208054600180875284872080548089528a88528689208980528852868920849055928852988652848720818852865293862055925290829055815290915590565b600081158015906105cc575082548214806105cc57505060009081526001919091016020526040902054151590565b603380546001600160a01b038381166001600160a01b0319831681179093556040519116919082907f8be0079c531659141344cd1fd0a4f28419497f9722a3daafe3b4186f6b6457e090600090a35050565b600054610100900460ff166116545760405162461bcd60e51b815260040161063290612853565b610a9e61201f565b80548015611280575b600081815260018084016020526040909120015415611280576000908152600180830160205260409091200154611665565b6000816116d25760405162461bcd60e51b81526020600482015260096024820152682916aa24a2a696981960b91b6044820152606401610632565b60008281526001808501602052604090912001541561171157600082815260018085016020526040909120015461170a90849061204f565b9050610537565b5060008181526001830160205260409020545b80158015906117455750600081815260018085016020526040909120015482145b15610537576000818152600184016020526040902054909150611724565b8061179c5760405162461bcd60e51b8152602060048201526009602482015268522d4b49454d2d303160b81b6044820152606401610632565b6117a682826115ac565b156117df5760405162461bcd60e51b8152602060048201526009602482015268522d4b4558492d303160b81b6044820152606401610632565b81546000905b8015611828578091508083101561180f5760009081526001808501602052604090912001546117e5565b60009081526001840160205260409020600201546117e5565b60408051608081018252838152600060208083018281528385018381526001606086018181528a86528b82019094529590932093518455519383019390935551600282015590516003909101805460ff191691151591909117905581611890578284556118ca565b818310156118b357600082815260018086016020526040909120018390556118ca565b600082815260018501602052604090206002018390555b6118d4848461208c565b50505050565b6118d483600084846122f7565b60008060008060006118f987876115ac565b6119315760405162461bcd60e51b8152602060048201526009602482015268522d4b444e452d303160b81b6044820152606401610632565b505050600083815260019485016020526040902080549481015460028201546003909201549496909491935060ff9091169150565b60008060006119758585611b16565b611987575060009150819050806119b0565b505050600081815260208381526040808320838052808352818420546001808652919093529220545b9250925092565b60008060006119c984600060016111f2565b90925090505b80156119f8576119e1848260016111f2565b9092509050826119f08161291c565b9350506119cf565b5050919050565b80548015611280575b600081815260018301602052604090206002015415611280576000908152600182016020526040902060020154611a08565b600081831115611a4a57816105cc565b5090919050565b600081611a8c5760405162461bcd60e51b8152602060048201526009602482015268522d5449454d2d303160b81b6044820152606401610632565b600082815260018401602052604090206002015415611ac457600082815260018401602052604090206002015461170a90849061237f565b5060008181526001830160205260409020545b8015801590611af85750600081815260018401602052604090206002015482145b15610537576000818152600184016020526040902054909150611ad7565b600081815260208381526040808320838052909152812054158015611b51575060008281526020848152604080832060018452909152902054155b15611b865760008080526020848152604080832060018452909152902054821415611b7e57506001610537565b506000610537565b506001610537565b600081815260018401602052604080822054848352912081905580611bb5578284556118d4565b6000818152600180860160205260409091200154821415611beb57600081815260018086016020526040909120018390556118d4565b600090815260019390930160205250604090912060020155565b60005b82548214801590611c2d5750600082815260018401602052604090206003015460ff16155b15612000576000828152600180850160205260408083205480845292200154831415611e295760008181526001850160205260408082206002015480835291206003015490925060ff1615611cd1576000828152600180860160205260408083206003908101805460ff19908116909155858552919093209092018054909216179055611cba84826123b7565b600081815260018501602052604090206002015491505b60008281526001808601602052604080832090910154825290206003015460ff16158015611d1c5750600082815260018501602052604080822060020154825290206003015460ff16155b15611d4957600082815260018581016020526040909120600301805460ff19169091179055915081611ffa565b600082815260018501602052604080822060020154825290206003015460ff16611dc6576000828152600180860160205260408083208083015484529083206003908101805460ff1990811690915593869052018054909216179055611daf848361248f565b600081815260018501602052604090206002015491505b600081815260018501602052604080822060039081018054868552838520808401805460ff909316151560ff199384161790558254821690925560029091015484529190922090910180549091169055611e2084826123b7565b83549250611ffa565b6000818152600180860160205260408083209091015480835291206003015490925060ff1615611ea8576000828152600180860160205260408083206003908101805460ff19908116909155858552919093209092018054909216179055611e91848261248f565b600081815260018086016020526040909120015491505b600082815260018501602052604080822060020154825290206003015460ff16158015611ef3575060008281526001808601602052604080832090910154825290206003015460ff16155b15611f2057600082815260018581016020526040909120600301805460ff19169091179055915081611ffa565b60008281526001808601602052604080832090910154825290206003015460ff16611f9f57600082815260018086016020526040808320600281015484529083206003908101805460ff1990811690915593869052018054909216179055611f8884836123b7565b600081815260018086016020526040909120015491505b60008181526001808601602052604080832060039081018054878652838620808401805460ff909316151560ff19938416179055825482169092559301548452922090910180549091169055611ff5848261248f565b835492505b50611c08565b506000908152600190910160205260409020600301805460ff19169055565b600054610100900460ff166120465760405162461bcd60e51b815260040161063290612853565b610a9e336115db565b60005b6000828152600184016020526040902060020154156120865760009182526001830160205260409091206002015490612052565b50919050565b60005b825482148015906120b95750600082815260018401602052604080822054825290206003015460ff165b156122d55760008281526001808501602052604080832054808452818420548452922001548114156121dc5760008181526001850160205260408082205482528082206002015480835291206003015490925060ff1615612162576000818152600180860160205260408083206003808201805460ff199081169091558786528386208201805482169055825486529285200180549092169092179055908290525492506122cf565b600081815260018501602052604090206002015483141561218a5780925061218a84846123b7565b50600082815260018085016020526040808320548084528184206003808201805460ff199081169091558254875293862001805490931690931790915591829052546121d790859061248f565b6122cf565b6000818152600180860160205260408083205483528083209091015480835291206003015490925060ff161561225a576000818152600180860160205260408083206003808201805460ff199081169091558786528386208201805482169055825486529285200180549092169092179055908290525492506122cf565b600081815260018086016020526040909120015483141561228257809250612282848461248f565b50600082815260018085016020526040808320548084528184206003808201805460ff199081169091558254875293862001805490931690931790915591829052546122cf9085906123b7565b5061208f565b505080546000908152600190910160205260409020600301805460ff19169055565b60006123038584611b16565b15801561231557506123158585611b16565b1561237757506000838152602085815260408083208415801580865291845282852080548887528a86528487208388528087528588208b9055918990558087528a865284872092875291855283862088905591855292529091205560016110f5565b5060006110f5565b60005b600082815260018085016020526040909120015415612086576000918252600180840160205260409092209091015490612382565b6000818152600180840160205260408083206002810180549154828652928520909301549385905291839055909180156123ff57600081815260018601602052604090208490555b600083815260018601602052604090208290558161241f5782855561246c565b6000828152600180870160205260409091200154841415612455576000828152600180870160205260409091200183905561246c565b600082815260018601602052604090206002018390555b505060008181526001938401602052604080822090940183905591825291902055565b600081815260018084016020526040808320918201805492548385529184206002015493859052839055909180156124d557600081815260018601602052604090208490555b60008381526001860160205260409020829055816124f557828555612542565b600082815260018601602052604090206002015484141561252b5760008281526001860160205260409020600201839055612542565b600082815260018087016020526040909120018390555b5050600081815260019093016020526040808420600201839055918352912055565b80516112808161294d565b805161128081612962565b80516007811061128057600080fd5b80516005811061128057600080fd5b6000602082840312156125a9578081fd5b81356105cc8161294d565b6000602082840312156125c5578081fd5b5035919050565b6000806000606084860312156125e0578182fd5b505081359360208301359350604090920135919050565b60008060006060848603121561260b578283fd5b83359250602084013561261d81612962565b929592945050506040919091013590565b60008060408385031215612640578182fd5b50508035926020909101359150565b6000806000606084860312156125e0578283fd5b60008060008060808587031215612678578081fd5b5050823594602084013594506040840135936060013592509050565b60008060008060008060c087890312156126ac578182fd5b505084359660208601359650604086013595606081013595506080810135945060a0013592509050565b600061014082840312156126e8578081fd5b6126f061289e565b825181526020830151602082015260408301516040820152606083015160608201526080830151608082015260a083015160a082015261273260c08401612564565b60c082015261274360e0840161256f565b60e0820152610100612756818501612589565b9082015261012061276884820161257a565b908201529392505050565b6000815180845260208085019450808401835b838110156127a257815187529582019590820190600101612786565b509495945050505050565b6020815260006105cc6020830184612773565b6040815260006127d36040830185612773565b828103602084015261107c8185612773565b6080815260006127f86080830187612773565b828103602084015261280a8187612773565b604084019590955250506060015292915050565b6020808252818101527f4f776e61626c653a2063616c6c6572206973206e6f7420746865206f776e6572604082015260600190565b6020808252602b908201527f496e697469616c697a61626c653a20636f6e7472616374206973206e6f74206960408201526a6e697469616c697a696e6760a81b606082015260800190565b604051610140810167ffffffffffffffff811182821017156128d057634e487b7160e01b600052604160045260246000fd5b60405290565b600082198211156128e9576128e9612937565b500190565b60008282101561290057612900612937565b500390565b60008161291457612914612937565b506000190190565b600060001982141561293057612930612937565b5060010190565b634e487b7160e01b600052601160045260246000fd5b6001600160a01b0381168114610b5e57600080fd5b60028110610b5e57600080fdfea26469706673582212200b82437dc05a70f3597575a8a9482a7f31d2cee6a117b9c8110e34d29f79db5a64736f6c63430008040033",
  "linkReferences": {},
  "deployedLinkReferences": {}
}